{
  "abi": [
    {
      "inputs": [
        {
          "internalType": "uint256",
          "name": "minimum",
          "type": "uint256"
        }
      ],
      "name": "createCampaign",
      "outputs": [],
      "stateMutability": "nonpayable",
      "type": "function"
    },
    {
      "inputs": [
        {
          "internalType": "uint256",
          "name": "",
          "type": "uint256"
        }
      ],
      "name": "deployedCampaigns",
      "outputs": [
        {
          "internalType": "address",
          "name": "",
          "type": "address"
        }
      ],
      "stateMutability": "view",
      "type": "function"
    },
    {
      "inputs": [],
      "name": "getDeployedCampaign",
      "outputs": [
        {
          "internalType": "address[]",
          "name": "",
          "type": "address[]"
        }
      ],
      "stateMutability": "view",
      "type": "function"
    }
  ],
  "devdoc": {
    "kind": "dev",
    "methods": {},
    "version": 1
  },
  "evm": {
    "assembly": "    /* \"Campaign.sol\":69:674  contract CampaignFactory{... */\n  mstore(0x40, 0x80)\n  callvalue\n  dup1\n  iszero\n  tag_1\n  jumpi\n  0x00\n  dup1\n  revert\ntag_1:\n  pop\n  dataSize(sub_0)\n  dup1\n  dataOffset(sub_0)\n  0x00\n  codecopy\n  0x00\n  return\nstop\n\nsub_0: assembly {\n        /* \"Campaign.sol\":69:674  contract CampaignFactory{... */\n      mstore(0x40, 0x80)\n      callvalue\n      dup1\n      iszero\n      tag_1\n      jumpi\n      0x00\n      dup1\n      revert\n    tag_1:\n      pop\n      jumpi(tag_2, lt(calldatasize, 0x04))\n      shr(0xe0, calldataload(0x00))\n      dup1\n      0x339d50a5\n      eq\n      tag_3\n      jumpi\n      dup1\n      0x5eac0007\n      eq\n      tag_4\n      jumpi\n      dup1\n      0xa3303a75\n      eq\n      tag_5\n      jumpi\n    tag_2:\n      0x00\n      dup1\n      revert\n        /* \"Campaign.sol\":95:129  address[] public deployedCampaigns */\n    tag_3:\n      tag_6\n      0x04\n      dup1\n      calldatasize\n      sub\n      dup2\n      add\n      swap1\n      tag_7\n      swap2\n      swap1\n      tag_8\n      jump\t// in\n    tag_7:\n      tag_9\n      jump\t// in\n    tag_6:\n      mload(0x40)\n      tag_10\n      swap2\n      swap1\n      tag_11\n      jump\t// in\n    tag_10:\n      mload(0x40)\n      dup1\n      swap2\n      sub\n      swap1\n      return\n        /* \"Campaign.sol\":558:667  function getDeployedCampaign() public view returns(address[] memory){... */\n    tag_4:\n      tag_12\n      tag_13\n      jump\t// in\n    tag_12:\n      mload(0x40)\n      tag_14\n      swap2\n      swap1\n      tag_15\n      jump\t// in\n    tag_14:\n      mload(0x40)\n      dup1\n      swap2\n      sub\n      swap1\n      return\n        /* \"Campaign.sol\":342:553  function createCampaign(uint minimum)public{... */\n    tag_5:\n      tag_16\n      0x04\n      dup1\n      calldatasize\n      sub\n      dup2\n      add\n      swap1\n      tag_17\n      swap2\n      swap1\n      tag_8\n      jump\t// in\n    tag_17:\n      tag_18\n      jump\t// in\n    tag_16:\n      stop\n        /* \"Campaign.sol\":95:129  address[] public deployedCampaigns */\n    tag_9:\n      0x00\n      dup2\n      dup2\n      sload\n      dup2\n      lt\n      tag_19\n      jumpi\n      0x00\n      dup1\n      revert\n    tag_19:\n      swap1\n      0x00\n      mstore\n      keccak256(0x00, 0x20)\n      add\n      0x00\n      swap2\n      pop\n      sload\n      swap1\n      0x0100\n      exp\n      swap1\n      div\n      0xffffffffffffffffffffffffffffffffffffffff\n      and\n      dup2\n      jump\t// out\n        /* \"Campaign.sol\":558:667  function getDeployedCampaign() public view returns(address[] memory){... */\n    tag_13:\n        /* \"Campaign.sol\":609:625  address[] memory */\n      0x60\n        /* \"Campaign.sol\":643:660  deployedCampaigns */\n      0x00\n        /* \"Campaign.sol\":636:660  return deployedCampaigns */\n      dup1\n      sload\n      dup1\n      0x20\n      mul\n      0x20\n      add\n      mload(0x40)\n      swap1\n      dup2\n      add\n      0x40\n      mstore\n      dup1\n      swap3\n      swap2\n      swap1\n      dup2\n      dup2\n      mstore\n      0x20\n      add\n      dup3\n      dup1\n      sload\n      dup1\n      iszero\n      tag_22\n      jumpi\n      0x20\n      mul\n      dup3\n      add\n      swap2\n      swap1\n      0x00\n      mstore\n      keccak256(0x00, 0x20)\n      swap1\n    tag_23:\n      dup2\n      0x00\n      swap1\n      sload\n      swap1\n      0x0100\n      exp\n      swap1\n      div\n      0xffffffffffffffffffffffffffffffffffffffff\n      and\n      0xffffffffffffffffffffffffffffffffffffffff\n      and\n      dup2\n      mstore\n      0x20\n      add\n      swap1\n      0x01\n      add\n      swap1\n      dup1\n      dup4\n      gt\n      tag_23\n      jumpi\n    tag_22:\n      pop\n      pop\n      pop\n      pop\n      pop\n      swap1\n      pop\n        /* \"Campaign.sol\":558:667  function getDeployedCampaign() public view returns(address[] memory){... */\n      swap1\n      jump\t// out\n        /* \"Campaign.sol\":342:553  function createCampaign(uint minimum)public{... */\n    tag_18:\n        /* \"Campaign.sol\":446:466  Campaign newCampaign */\n      0x00\n        /* \"Campaign.sol\":480:487  minimum */\n      dup2\n        /* \"Campaign.sol\":488:498  msg.sender */\n      caller\n        /* \"Campaign.sol\":467:499  new Campaign(minimum,msg.sender) */\n      mload(0x40)\n      tag_25\n      swap1\n      tag_26\n      jump\t// in\n    tag_25:\n      tag_27\n      swap3\n      swap2\n      swap1\n      tag_28\n      jump\t// in\n    tag_27:\n      mload(0x40)\n      dup1\n      swap2\n      sub\n      swap1\n      0x00\n      create\n      dup1\n      iszero\n      dup1\n      iszero\n      tag_29\n      jumpi\n      returndatasize\n      0x00\n      dup1\n      returndatacopy\n      revert(0x00, returndatasize)\n    tag_29:\n      pop\n        /* \"Campaign.sol\":446:499  Campaign newCampaign=new Campaign(minimum,msg.sender) */\n      swap1\n      pop\n        /* \"Campaign.sol\":501:518  deployedCampaigns */\n      0x00\n        /* \"Campaign.sol\":532:543  newCampaign */\n      dup2\n        /* \"Campaign.sol\":501:545  deployedCampaigns.push(address(newCampaign)) */\n      swap1\n      dup1\n      0x01\n      dup2\n      sload\n      add\n      dup1\n      dup3\n      sstore\n      dup1\n      swap2\n      pop\n      pop\n      0x01\n      swap1\n      sub\n      swap1\n      0x00\n      mstore\n      keccak256(0x00, 0x20)\n      add\n      0x00\n      swap1\n      swap2\n      swap1\n      swap2\n      swap1\n      swap2\n      0x0100\n      exp\n      dup2\n      sload\n      dup2\n      0xffffffffffffffffffffffffffffffffffffffff\n      mul\n      not\n      and\n      swap1\n      dup4\n      0xffffffffffffffffffffffffffffffffffffffff\n      and\n      mul\n      or\n      swap1\n      sstore\n      pop\n        /* \"Campaign.sol\":385:553  {... */\n      pop\n        /* \"Campaign.sol\":342:553  function createCampaign(uint minimum)public{... */\n      pop\n      jump\t// out\n    tag_26:\n      dataSize(sub_0)\n      dup1\n      dataOffset(sub_0)\n      dup4\n      codecopy\n      add\n      swap1\n      jump\t// out\n        /* \"#utility.yul\":7:146   */\n    tag_32:\n        /* \"#utility.yul\":53:58   */\n      0x00\n        /* \"#utility.yul\":91:97   */\n      dup2\n        /* \"#utility.yul\":78:98   */\n      calldataload\n        /* \"#utility.yul\":69:98   */\n      swap1\n      pop\n        /* \"#utility.yul\":107:140   */\n      tag_34\n        /* \"#utility.yul\":134:139   */\n      dup2\n        /* \"#utility.yul\":107:140   */\n      tag_35\n      jump\t// in\n    tag_34:\n        /* \"#utility.yul\":7:146   */\n      swap3\n      swap2\n      pop\n      pop\n      jump\t// out\n        /* \"#utility.yul\":152:481   */\n    tag_8:\n        /* \"#utility.yul\":211:217   */\n      0x00\n        /* \"#utility.yul\":260:262   */\n      0x20\n        /* \"#utility.yul\":248:257   */\n      dup3\n        /* \"#utility.yul\":239:246   */\n      dup5\n        /* \"#utility.yul\":235:258   */\n      sub\n        /* \"#utility.yul\":231:263   */\n      slt\n        /* \"#utility.yul\":228:347   */\n      iszero\n      tag_37\n      jumpi\n        /* \"#utility.yul\":266:345   */\n      tag_38\n      tag_39\n      jump\t// in\n    tag_38:\n        /* \"#utility.yul\":228:347   */\n    tag_37:\n        /* \"#utility.yul\":386:387   */\n      0x00\n        /* \"#utility.yul\":411:464   */\n      tag_40\n        /* \"#utility.yul\":456:463   */\n      dup5\n        /* \"#utility.yul\":447:453   */\n      dup3\n        /* \"#utility.yul\":436:445   */\n      dup6\n        /* \"#utility.yul\":432:454   */\n      add\n        /* \"#utility.yul\":411:464   */\n      tag_32\n      jump\t// in\n    tag_40:\n        /* \"#utility.yul\":401:464   */\n      swap2\n      pop\n        /* \"#utility.yul\":357:474   */\n      pop\n        /* \"#utility.yul\":152:481   */\n      swap3\n      swap2\n      pop\n      pop\n      jump\t// out\n        /* \"#utility.yul\":487:666   */\n    tag_41:\n        /* \"#utility.yul\":556:566   */\n      0x00\n        /* \"#utility.yul\":577:623   */\n      tag_43\n        /* \"#utility.yul\":619:622   */\n      dup4\n        /* \"#utility.yul\":611:617   */\n      dup4\n        /* \"#utility.yul\":577:623   */\n      tag_44\n      jump\t// in\n    tag_43:\n        /* \"#utility.yul\":655:659   */\n      0x20\n        /* \"#utility.yul\":650:653   */\n      dup4\n        /* \"#utility.yul\":646:660   */\n      add\n        /* \"#utility.yul\":632:660   */\n      swap1\n      pop\n        /* \"#utility.yul\":487:666   */\n      swap3\n      swap2\n      pop\n      pop\n      jump\t// out\n        /* \"#utility.yul\":672:780   */\n    tag_44:\n        /* \"#utility.yul\":749:773   */\n      tag_46\n        /* \"#utility.yul\":767:772   */\n      dup2\n        /* \"#utility.yul\":749:773   */\n      tag_47\n      jump\t// in\n    tag_46:\n        /* \"#utility.yul\":744:747   */\n      dup3\n        /* \"#utility.yul\":737:774   */\n      mstore\n        /* \"#utility.yul\":672:780   */\n      pop\n      pop\n      jump\t// out\n        /* \"#utility.yul\":786:904   */\n    tag_48:\n        /* \"#utility.yul\":873:897   */\n      tag_50\n        /* \"#utility.yul\":891:896   */\n      dup2\n        /* \"#utility.yul\":873:897   */\n      tag_47\n      jump\t// in\n    tag_50:\n        /* \"#utility.yul\":868:871   */\n      dup3\n        /* \"#utility.yul\":861:898   */\n      mstore\n        /* \"#utility.yul\":786:904   */\n      pop\n      pop\n      jump\t// out\n        /* \"#utility.yul\":940:1672   */\n    tag_51:\n        /* \"#utility.yul\":1059:1062   */\n      0x00\n        /* \"#utility.yul\":1088:1142   */\n      tag_53\n        /* \"#utility.yul\":1136:1141   */\n      dup3\n        /* \"#utility.yul\":1088:1142   */\n      tag_54\n      jump\t// in\n    tag_53:\n        /* \"#utility.yul\":1158:1244   */\n      tag_55\n        /* \"#utility.yul\":1237:1243   */\n      dup2\n        /* \"#utility.yul\":1232:1235   */\n      dup6\n        /* \"#utility.yul\":1158:1244   */\n      tag_56\n      jump\t// in\n    tag_55:\n        /* \"#utility.yul\":1151:1244   */\n      swap4\n      pop\n        /* \"#utility.yul\":1268:1324   */\n      tag_57\n        /* \"#utility.yul\":1318:1323   */\n      dup4\n        /* \"#utility.yul\":1268:1324   */\n      tag_58\n      jump\t// in\n    tag_57:\n        /* \"#utility.yul\":1347:1354   */\n      dup1\n        /* \"#utility.yul\":1378:1379   */\n      0x00\n        /* \"#utility.yul\":1363:1647   */\n    tag_59:\n        /* \"#utility.yul\":1388:1394   */\n      dup4\n        /* \"#utility.yul\":1385:1386   */\n      dup2\n        /* \"#utility.yul\":1382:1395   */\n      lt\n        /* \"#utility.yul\":1363:1647   */\n      iszero\n      tag_61\n      jumpi\n        /* \"#utility.yul\":1464:1470   */\n      dup2\n        /* \"#utility.yul\":1458:1471   */\n      mload\n        /* \"#utility.yul\":1491:1554   */\n      tag_62\n        /* \"#utility.yul\":1550:1553   */\n      dup9\n        /* \"#utility.yul\":1535:1548   */\n      dup3\n        /* \"#utility.yul\":1491:1554   */\n      tag_41\n      jump\t// in\n    tag_62:\n        /* \"#utility.yul\":1484:1554   */\n      swap8\n      pop\n        /* \"#utility.yul\":1577:1637   */\n      tag_63\n        /* \"#utility.yul\":1630:1636   */\n      dup4\n        /* \"#utility.yul\":1577:1637   */\n      tag_64\n      jump\t// in\n    tag_63:\n        /* \"#utility.yul\":1567:1637   */\n      swap3\n      pop\n        /* \"#utility.yul\":1423:1647   */\n      pop\n        /* \"#utility.yul\":1410:1411   */\n      0x01\n        /* \"#utility.yul\":1407:1408   */\n      dup2\n        /* \"#utility.yul\":1403:1412   */\n      add\n        /* \"#utility.yul\":1398:1412   */\n      swap1\n      pop\n        /* \"#utility.yul\":1363:1647   */\n      jump(tag_59)\n    tag_61:\n        /* \"#utility.yul\":1367:1381   */\n      pop\n        /* \"#utility.yul\":1663:1666   */\n      dup6\n        /* \"#utility.yul\":1656:1666   */\n      swap4\n      pop\n        /* \"#utility.yul\":1064:1672   */\n      pop\n      pop\n      pop\n        /* \"#utility.yul\":940:1672   */\n      swap3\n      swap2\n      pop\n      pop\n      jump\t// out\n        /* \"#utility.yul\":1678:1796   */\n    tag_65:\n        /* \"#utility.yul\":1765:1789   */\n      tag_67\n        /* \"#utility.yul\":1783:1788   */\n      dup2\n        /* \"#utility.yul\":1765:1789   */\n      tag_68\n      jump\t// in\n    tag_67:\n        /* \"#utility.yul\":1760:1763   */\n      dup3\n        /* \"#utility.yul\":1753:1790   */\n      mstore\n        /* \"#utility.yul\":1678:1796   */\n      pop\n      pop\n      jump\t// out\n        /* \"#utility.yul\":1802:2024   */\n    tag_11:\n        /* \"#utility.yul\":1895:1899   */\n      0x00\n        /* \"#utility.yul\":1933:1935   */\n      0x20\n        /* \"#utility.yul\":1922:1931   */\n      dup3\n        /* \"#utility.yul\":1918:1936   */\n      add\n        /* \"#utility.yul\":1910:1936   */\n      swap1\n      pop\n        /* \"#utility.yul\":1946:2017   */\n      tag_70\n        /* \"#utility.yul\":2014:2015   */\n      0x00\n        /* \"#utility.yul\":2003:2012   */\n      dup4\n        /* \"#utility.yul\":1999:2016   */\n      add\n        /* \"#utility.yul\":1990:1996   */\n      dup5\n        /* \"#utility.yul\":1946:2017   */\n      tag_48\n      jump\t// in\n    tag_70:\n        /* \"#utility.yul\":1802:2024   */\n      swap3\n      swap2\n      pop\n      pop\n      jump\t// out\n        /* \"#utility.yul\":2030:2403   */\n    tag_15:\n        /* \"#utility.yul\":2173:2177   */\n      0x00\n        /* \"#utility.yul\":2211:2213   */\n      0x20\n        /* \"#utility.yul\":2200:2209   */\n      dup3\n        /* \"#utility.yul\":2196:2214   */\n      add\n        /* \"#utility.yul\":2188:2214   */\n      swap1\n      pop\n        /* \"#utility.yul\":2260:2269   */\n      dup2\n        /* \"#utility.yul\":2254:2258   */\n      dup2\n        /* \"#utility.yul\":2250:2270   */\n      sub\n        /* \"#utility.yul\":2246:2247   */\n      0x00\n        /* \"#utility.yul\":2235:2244   */\n      dup4\n        /* \"#utility.yul\":2231:2248   */\n      add\n        /* \"#utility.yul\":2224:2271   */\n      mstore\n        /* \"#utility.yul\":2288:2396   */\n      tag_72\n        /* \"#utility.yul\":2391:2395   */\n      dup2\n        /* \"#utility.yul\":2382:2388   */\n      dup5\n        /* \"#utility.yul\":2288:2396   */\n      tag_51\n      jump\t// in\n    tag_72:\n        /* \"#utility.yul\":2280:2396   */\n      swap1\n      pop\n        /* \"#utility.yul\":2030:2403   */\n      swap3\n      swap2\n      pop\n      pop\n      jump\t// out\n        /* \"#utility.yul\":2409:2741   */\n    tag_28:\n        /* \"#utility.yul\":2530:2534   */\n      0x00\n        /* \"#utility.yul\":2568:2570   */\n      0x40\n        /* \"#utility.yul\":2557:2566   */\n      dup3\n        /* \"#utility.yul\":2553:2571   */\n      add\n        /* \"#utility.yul\":2545:2571   */\n      swap1\n      pop\n        /* \"#utility.yul\":2581:2652   */\n      tag_74\n        /* \"#utility.yul\":2649:2650   */\n      0x00\n        /* \"#utility.yul\":2638:2647   */\n      dup4\n        /* \"#utility.yul\":2634:2651   */\n      add\n        /* \"#utility.yul\":2625:2631   */\n      dup6\n        /* \"#utility.yul\":2581:2652   */\n      tag_65\n      jump\t// in\n    tag_74:\n        /* \"#utility.yul\":2662:2734   */\n      tag_75\n        /* \"#utility.yul\":2730:2732   */\n      0x20\n        /* \"#utility.yul\":2719:2728   */\n      dup4\n        /* \"#utility.yul\":2715:2733   */\n      add\n        /* \"#utility.yul\":2706:2712   */\n      dup5\n        /* \"#utility.yul\":2662:2734   */\n      tag_48\n      jump\t// in\n    tag_75:\n        /* \"#utility.yul\":2409:2741   */\n      swap4\n      swap3\n      pop\n      pop\n      pop\n      jump\t// out\n        /* \"#utility.yul\":2828:2960   */\n    tag_58:\n        /* \"#utility.yul\":2895:2899   */\n      0x00\n        /* \"#utility.yul\":2918:2921   */\n      dup2\n        /* \"#utility.yul\":2910:2921   */\n      swap1\n      pop\n        /* \"#utility.yul\":2948:2952   */\n      0x20\n        /* \"#utility.yul\":2943:2946   */\n      dup3\n        /* \"#utility.yul\":2939:2953   */\n      add\n        /* \"#utility.yul\":2931:2953   */\n      swap1\n      pop\n        /* \"#utility.yul\":2828:2960   */\n      swap2\n      swap1\n      pop\n      jump\t// out\n        /* \"#utility.yul\":2966:3080   */\n    tag_54:\n        /* \"#utility.yul\":3033:3039   */\n      0x00\n        /* \"#utility.yul\":3067:3072   */\n      dup2\n        /* \"#utility.yul\":3061:3073   */\n      mload\n        /* \"#utility.yul\":3051:3073   */\n      swap1\n      pop\n        /* \"#utility.yul\":2966:3080   */\n      swap2\n      swap1\n      pop\n      jump\t// out\n        /* \"#utility.yul\":3086:3199   */\n    tag_64:\n        /* \"#utility.yul\":3156:3160   */\n      0x00\n        /* \"#utility.yul\":3188:3192   */\n      0x20\n        /* \"#utility.yul\":3183:3186   */\n      dup3\n        /* \"#utility.yul\":3179:3193   */\n      add\n        /* \"#utility.yul\":3171:3193   */\n      swap1\n      pop\n        /* \"#utility.yul\":3086:3199   */\n      swap2\n      swap1\n      pop\n      jump\t// out\n        /* \"#utility.yul\":3205:3389   */\n    tag_56:\n        /* \"#utility.yul\":3304:3315   */\n      0x00\n        /* \"#utility.yul\":3338:3344   */\n      dup3\n        /* \"#utility.yul\":3333:3336   */\n      dup3\n        /* \"#utility.yul\":3326:3345   */\n      mstore\n        /* \"#utility.yul\":3378:3382   */\n      0x20\n        /* \"#utility.yul\":3373:3376   */\n      dup3\n        /* \"#utility.yul\":3369:3383   */\n      add\n        /* \"#utility.yul\":3354:3383   */\n      swap1\n      pop\n        /* \"#utility.yul\":3205:3389   */\n      swap3\n      swap2\n      pop\n      pop\n      jump\t// out\n        /* \"#utility.yul\":3395:3491   */\n    tag_47:\n        /* \"#utility.yul\":3432:3439   */\n      0x00\n        /* \"#utility.yul\":3461:3485   */\n      tag_83\n        /* \"#utility.yul\":3479:3484   */\n      dup3\n        /* \"#utility.yul\":3461:3485   */\n      tag_84\n      jump\t// in\n    tag_83:\n        /* \"#utility.yul\":3450:3485   */\n      swap1\n      pop\n        /* \"#utility.yul\":3395:3491   */\n      swap2\n      swap1\n      pop\n      jump\t// out\n        /* \"#utility.yul\":3497:3623   */\n    tag_84:\n        /* \"#utility.yul\":3534:3541   */\n      0x00\n        /* \"#utility.yul\":3574:3616   */\n      0xffffffffffffffffffffffffffffffffffffffff\n        /* \"#utility.yul\":3567:3572   */\n      dup3\n        /* \"#utility.yul\":3563:3617   */\n      and\n        /* \"#utility.yul\":3552:3617   */\n      swap1\n      pop\n        /* \"#utility.yul\":3497:3623   */\n      swap2\n      swap1\n      pop\n      jump\t// out\n        /* \"#utility.yul\":3629:3706   */\n    tag_68:\n        /* \"#utility.yul\":3666:3673   */\n      0x00\n        /* \"#utility.yul\":3695:3700   */\n      dup2\n        /* \"#utility.yul\":3684:3700   */\n      swap1\n      pop\n        /* \"#utility.yul\":3629:3706   */\n      swap2\n      swap1\n      pop\n      jump\t// out\n        /* \"#utility.yul\":3835:3952   */\n    tag_39:\n        /* \"#utility.yul\":3944:3945   */\n      0x00\n        /* \"#utility.yul\":3941:3942   */\n      dup1\n        /* \"#utility.yul\":3934:3946   */\n      revert\n        /* \"#utility.yul\":3958:4080   */\n    tag_35:\n        /* \"#utility.yul\":4031:4055   */\n      tag_91\n        /* \"#utility.yul\":4049:4054   */\n      dup2\n        /* \"#utility.yul\":4031:4055   */\n      tag_68\n      jump\t// in\n    tag_91:\n        /* \"#utility.yul\":4024:4029   */\n      dup2\n        /* \"#utility.yul\":4021:4056   */\n      eq\n        /* \"#utility.yul\":4011:4074   */\n      tag_92\n      jumpi\n        /* \"#utility.yul\":4070:4071   */\n      0x00\n        /* \"#utility.yul\":4067:4068   */\n      dup1\n        /* \"#utility.yul\":4060:4072   */\n      revert\n        /* \"#utility.yul\":4011:4074   */\n    tag_92:\n        /* \"#utility.yul\":3958:4080   */\n      pop\n      jump\t// out\n    stop\n\n    sub_0: assembly {\n            /* \"Campaign.sol\":676:3854  contract Campaign{... */\n          mstore(0x40, 0x80)\n            /* \"Campaign.sol\":1439:1736  constructor( uint minimum, address creator){... */\n          callvalue\n          dup1\n          iszero\n          tag_1\n          jumpi\n          0x00\n          dup1\n          revert\n        tag_1:\n          pop\n          mload(0x40)\n          sub(codesize, bytecodeSize)\n          dup1\n          bytecodeSize\n          dup4\n          codecopy\n          dup2\n          dup2\n          add\n          0x40\n          mstore\n          dup2\n          add\n          swap1\n          tag_2\n          swap2\n          swap1\n          tag_3\n          jump\t// in\n        tag_2:\n            /* \"Campaign.sol\":1685:1692  creator */\n          dup1\n            /* \"Campaign.sol\":1677:1684  manager */\n          0x02\n          0x00\n            /* \"Campaign.sol\":1677:1692  manager=creator */\n          0x0100\n          exp\n          dup2\n          sload\n          dup2\n          0xffffffffffffffffffffffffffffffffffffffff\n          mul\n          not\n          and\n          swap1\n          dup4\n          0xffffffffffffffffffffffffffffffffffffffff\n          and\n          mul\n          or\n          swap1\n          sstore\n          pop\n            /* \"Campaign.sol\":1722:1729  minimum */\n          dup2\n            /* \"Campaign.sol\":1702:1721  minimumContribution */\n          0x03\n            /* \"Campaign.sol\":1702:1729  minimumContribution=minimum */\n          dup2\n          swap1\n          sstore\n          pop\n            /* \"Campaign.sol\":1439:1736  constructor( uint minimum, address creator){... */\n          pop\n          pop\n            /* \"Campaign.sol\":676:3854  contract Campaign{... */\n          jump(tag_6)\n            /* \"#utility.yul\":7:150   */\n        tag_8:\n            /* \"#utility.yul\":64:69   */\n          0x00\n            /* \"#utility.yul\":95:101   */\n          dup2\n            /* \"#utility.yul\":89:102   */\n          mload\n            /* \"#utility.yul\":80:102   */\n          swap1\n          pop\n            /* \"#utility.yul\":111:144   */\n          tag_10\n            /* \"#utility.yul\":138:143   */\n          dup2\n            /* \"#utility.yul\":111:144   */\n          tag_11\n          jump\t// in\n        tag_10:\n            /* \"#utility.yul\":7:150   */\n          swap3\n          swap2\n          pop\n          pop\n          jump\t// out\n            /* \"#utility.yul\":156:299   */\n        tag_12:\n            /* \"#utility.yul\":213:218   */\n          0x00\n            /* \"#utility.yul\":244:250   */\n          dup2\n            /* \"#utility.yul\":238:251   */\n          mload\n            /* \"#utility.yul\":229:251   */\n          swap1\n          pop\n            /* \"#utility.yul\":260:293   */\n          tag_14\n            /* \"#utility.yul\":287:292   */\n          dup2\n            /* \"#utility.yul\":260:293   */\n          tag_15\n          jump\t// in\n        tag_14:\n            /* \"#utility.yul\":156:299   */\n          swap3\n          swap2\n          pop\n          pop\n          jump\t// out\n            /* \"#utility.yul\":305:812   */\n        tag_3:\n            /* \"#utility.yul\":384:390   */\n          0x00\n            /* \"#utility.yul\":392:398   */\n          dup1\n            /* \"#utility.yul\":441:443   */\n          0x40\n            /* \"#utility.yul\":429:438   */\n          dup4\n            /* \"#utility.yul\":420:427   */\n          dup6\n            /* \"#utility.yul\":416:439   */\n          sub\n            /* \"#utility.yul\":412:444   */\n          slt\n            /* \"#utility.yul\":409:528   */\n          iszero\n          tag_17\n          jumpi\n            /* \"#utility.yul\":447:526   */\n          tag_18\n          tag_19\n          jump\t// in\n        tag_18:\n            /* \"#utility.yul\":409:528   */\n        tag_17:\n            /* \"#utility.yul\":567:568   */\n          0x00\n            /* \"#utility.yul\":592:656   */\n          tag_20\n            /* \"#utility.yul\":648:655   */\n          dup6\n            /* \"#utility.yul\":639:645   */\n          dup3\n            /* \"#utility.yul\":628:637   */\n          dup7\n            /* \"#utility.yul\":624:646   */\n          add\n            /* \"#utility.yul\":592:656   */\n          tag_12\n          jump\t// in\n        tag_20:\n            /* \"#utility.yul\":582:656   */\n          swap3\n          pop\n            /* \"#utility.yul\":538:666   */\n          pop\n            /* \"#utility.yul\":705:707   */\n          0x20\n            /* \"#utility.yul\":731:795   */\n          tag_21\n            /* \"#utility.yul\":787:794   */\n          dup6\n            /* \"#utility.yul\":778:784   */\n          dup3\n            /* \"#utility.yul\":767:776   */\n          dup7\n            /* \"#utility.yul\":763:785   */\n          add\n            /* \"#utility.yul\":731:795   */\n          tag_8\n          jump\t// in\n        tag_21:\n            /* \"#utility.yul\":721:795   */\n          swap2\n          pop\n            /* \"#utility.yul\":676:805   */\n          pop\n            /* \"#utility.yul\":305:812   */\n          swap3\n          pop\n          swap3\n          swap1\n          pop\n          jump\t// out\n            /* \"#utility.yul\":899:995   */\n        tag_24:\n            /* \"#utility.yul\":936:943   */\n          0x00\n            /* \"#utility.yul\":965:989   */\n          tag_26\n            /* \"#utility.yul\":983:988   */\n          dup3\n            /* \"#utility.yul\":965:989   */\n          tag_27\n          jump\t// in\n        tag_26:\n            /* \"#utility.yul\":954:989   */\n          swap1\n          pop\n            /* \"#utility.yul\":899:995   */\n          swap2\n          swap1\n          pop\n          jump\t// out\n            /* \"#utility.yul\":1001:1127   */\n        tag_27:\n            /* \"#utility.yul\":1038:1045   */\n          0x00\n            /* \"#utility.yul\":1078:1120   */\n          0xffffffffffffffffffffffffffffffffffffffff\n            /* \"#utility.yul\":1071:1076   */\n          dup3\n            /* \"#utility.yul\":1067:1121   */\n          and\n            /* \"#utility.yul\":1056:1121   */\n          swap1\n          pop\n            /* \"#utility.yul\":1001:1127   */\n          swap2\n          swap1\n          pop\n          jump\t// out\n            /* \"#utility.yul\":1133:1210   */\n        tag_29:\n            /* \"#utility.yul\":1170:1177   */\n          0x00\n            /* \"#utility.yul\":1199:1204   */\n          dup2\n            /* \"#utility.yul\":1188:1204   */\n          swap1\n          pop\n            /* \"#utility.yul\":1133:1210   */\n          swap2\n          swap1\n          pop\n          jump\t// out\n            /* \"#utility.yul\":1339:1456   */\n        tag_19:\n            /* \"#utility.yul\":1448:1449   */\n          0x00\n            /* \"#utility.yul\":1445:1446   */\n          dup1\n            /* \"#utility.yul\":1438:1450   */\n          revert\n            /* \"#utility.yul\":1462:1584   */\n        tag_11:\n            /* \"#utility.yul\":1535:1559   */\n          tag_35\n            /* \"#utility.yul\":1553:1558   */\n          dup2\n            /* \"#utility.yul\":1535:1559   */\n          tag_24\n          jump\t// in\n        tag_35:\n            /* \"#utility.yul\":1528:1533   */\n          dup2\n            /* \"#utility.yul\":1525:1560   */\n          eq\n            /* \"#utility.yul\":1515:1578   */\n          tag_36\n          jumpi\n            /* \"#utility.yul\":1574:1575   */\n          0x00\n            /* \"#utility.yul\":1571:1572   */\n          dup1\n            /* \"#utility.yul\":1564:1576   */\n          revert\n            /* \"#utility.yul\":1515:1578   */\n        tag_36:\n            /* \"#utility.yul\":1462:1584   */\n          pop\n          jump\t// out\n            /* \"#utility.yul\":1590:1712   */\n        tag_15:\n            /* \"#utility.yul\":1663:1687   */\n          tag_38\n            /* \"#utility.yul\":1681:1686   */\n          dup2\n            /* \"#utility.yul\":1663:1687   */\n          tag_29\n          jump\t// in\n        tag_38:\n            /* \"#utility.yul\":1656:1661   */\n          dup2\n            /* \"#utility.yul\":1653:1688   */\n          eq\n            /* \"#utility.yul\":1643:1706   */\n          tag_39\n          jumpi\n            /* \"#utility.yul\":1702:1703   */\n          0x00\n            /* \"#utility.yul\":1699:1700   */\n          dup1\n            /* \"#utility.yul\":1692:1704   */\n          revert\n            /* \"#utility.yul\":1643:1706   */\n        tag_39:\n            /* \"#utility.yul\":1590:1712   */\n          pop\n          jump\t// out\n            /* \"Campaign.sol\":676:3854  contract Campaign{... */\n        tag_6:\n          dataSize(sub_0)\n          dup1\n          dataOffset(sub_0)\n          0x00\n          codecopy\n          0x00\n          return\n        stop\n\n        sub_0: assembly {\n                /* \"Campaign.sol\":676:3854  contract Campaign{... */\n              mstore(0x40, 0x80)\n              jumpi(tag_1, lt(calldatasize, 0x04))\n              shr(0xe0, calldataload(0x00))\n              dup1\n              0x8a9cfd55\n              gt\n              tag_11\n              jumpi\n              dup1\n              0x8a9cfd55\n              eq\n              tag_6\n              jumpi\n              dup1\n              0x937e09b1\n              eq\n              tag_7\n              jumpi\n              dup1\n              0xd24f8cdd\n              eq\n              tag_8\n              jumpi\n              dup1\n              0xd7bb99ba\n              eq\n              tag_9\n              jumpi\n              dup1\n              0xd7d1bbdb\n              eq\n              tag_10\n              jumpi\n              jump(tag_1)\n            tag_11:\n              dup1\n              0x03441006\n              eq\n              tag_2\n              jumpi\n              dup1\n              0x481c6a75\n              eq\n              tag_3\n              jumpi\n              dup1\n              0x72e87168\n              eq\n              tag_4\n              jumpi\n              dup1\n              0x81d12c58\n              eq\n              tag_5\n              jumpi\n            tag_1:\n              0x00\n              dup1\n              revert\n                /* \"Campaign.sol\":3418:3851  function finalizeRequest(uint index) public restricted{... */\n            tag_2:\n              callvalue\n              dup1\n              iszero\n              tag_12\n              jumpi\n              0x00\n              dup1\n              revert\n            tag_12:\n              pop\n              tag_13\n              0x04\n              dup1\n              calldatasize\n              sub\n              dup2\n              add\n              swap1\n              tag_14\n              swap2\n              swap1\n              tag_15\n              jump\t// in\n            tag_14:\n              tag_16\n              jump\t// in\n            tag_13:\n              stop\n                /* \"Campaign.sol\":1115:1137  address public manager */\n            tag_3:\n              callvalue\n              dup1\n              iszero\n              tag_17\n              jumpi\n              0x00\n              dup1\n              revert\n            tag_17:\n              pop\n              tag_18\n              tag_19\n              jump\t// in\n            tag_18:\n              mload(0x40)\n              tag_20\n              swap2\n              swap1\n              tag_21\n              jump\t// in\n            tag_20:\n              mload(0x40)\n              dup1\n              swap2\n              sub\n              swap1\n              return\n                /* \"Campaign.sol\":1180:1205  uint public donatorsCount */\n            tag_4:\n              callvalue\n              dup1\n              iszero\n              tag_22\n              jumpi\n              0x00\n              dup1\n              revert\n            tag_22:\n              pop\n              tag_23\n              tag_24\n              jump\t// in\n            tag_23:\n              mload(0x40)\n              tag_25\n              swap2\n              swap1\n              tag_26\n              jump\t// in\n            tag_25:\n              mload(0x40)\n              dup1\n              swap2\n              sub\n              swap1\n              return\n                /* \"Campaign.sol\":1007:1032  Request[] public requests */\n            tag_5:\n              callvalue\n              dup1\n              iszero\n              tag_27\n              jumpi\n              0x00\n              dup1\n              revert\n            tag_27:\n              pop\n              tag_28\n              0x04\n              dup1\n              calldatasize\n              sub\n              dup2\n              add\n              swap1\n              tag_29\n              swap2\n              swap1\n              tag_15\n              jump\t// in\n            tag_29:\n              tag_30\n              jump\t// in\n            tag_28:\n              mload(0x40)\n              tag_31\n              swap6\n              swap5\n              swap4\n              swap3\n              swap2\n              swap1\n              tag_32\n              jump\t// in\n            tag_31:\n              mload(0x40)\n              dup1\n              swap2\n              sub\n              swap1\n              return\n                /* \"Campaign.sol\":2360:2758  function createRequest(string memory description, uint value, address payable recipient) public restricted{... */\n            tag_6:\n              callvalue\n              dup1\n              iszero\n              tag_33\n              jumpi\n              0x00\n              dup1\n              revert\n            tag_33:\n              pop\n              tag_34\n              0x04\n              dup1\n              calldatasize\n              sub\n              dup2\n              add\n              swap1\n              tag_35\n              swap2\n              swap1\n              tag_36\n              jump\t// in\n            tag_35:\n              tag_37\n              jump\t// in\n            tag_34:\n              stop\n                /* \"Campaign.sol\":1143:1174  uint public minimumContribution */\n            tag_7:\n              callvalue\n              dup1\n              iszero\n              tag_38\n              jumpi\n              0x00\n              dup1\n              revert\n            tag_38:\n              pop\n              tag_39\n              tag_40\n              jump\t// in\n            tag_39:\n              mload(0x40)\n              tag_41\n              swap2\n              swap1\n              tag_26\n              jump\t// in\n            tag_41:\n              mload(0x40)\n              dup1\n              swap2\n              sub\n              swap1\n              return\n                /* \"Campaign.sol\":1311:1349  mapping(address=>bool) public donators */\n            tag_8:\n              callvalue\n              dup1\n              iszero\n              tag_42\n              jumpi\n              0x00\n              dup1\n              revert\n            tag_42:\n              pop\n              tag_43\n              0x04\n              dup1\n              calldatasize\n              sub\n              dup2\n              add\n              swap1\n              tag_44\n              swap2\n              swap1\n              tag_45\n              jump\t// in\n            tag_44:\n              tag_46\n              jump\t// in\n            tag_43:\n              mload(0x40)\n              tag_47\n              swap2\n              swap1\n              tag_48\n              jump\t// in\n            tag_47:\n              mload(0x40)\n              dup1\n              swap2\n              sub\n              swap1\n              return\n                /* \"Campaign.sol\":1936:2147  function contribute() public payable{... */\n            tag_9:\n              tag_49\n              tag_50\n              jump\t// in\n            tag_49:\n              stop\n                /* \"Campaign.sol\":2943:3305  function approveRequest(uint index) public {... */\n            tag_10:\n              callvalue\n              dup1\n              iszero\n              tag_51\n              jumpi\n              0x00\n              dup1\n              revert\n            tag_51:\n              pop\n              tag_52\n              0x04\n              dup1\n              calldatasize\n              sub\n              dup2\n              add\n              swap1\n              tag_53\n              swap2\n              swap1\n              tag_15\n              jump\t// in\n            tag_53:\n              tag_54\n              jump\t// in\n            tag_52:\n              stop\n                /* \"Campaign.sol\":3418:3851  function finalizeRequest(uint index) public restricted{... */\n            tag_16:\n                /* \"Campaign.sol\":1408:1415  manager */\n              0x02\n              0x00\n              swap1\n              sload\n              swap1\n              0x0100\n              exp\n              swap1\n              div\n              0xffffffffffffffffffffffffffffffffffffffff\n              and\n                /* \"Campaign.sol\":1396:1415  msg.sender==manager */\n              0xffffffffffffffffffffffffffffffffffffffff\n              and\n                /* \"Campaign.sol\":1396:1406  msg.sender */\n              caller\n                /* \"Campaign.sol\":1396:1415  msg.sender==manager */\n              0xffffffffffffffffffffffffffffffffffffffff\n              and\n              eq\n                /* \"Campaign.sol\":1388:1416  require(msg.sender==manager) */\n              tag_56\n              jumpi\n              0x00\n              dup1\n              revert\n            tag_56:\n                /* \"Campaign.sol\":3566:3589  Request storage request */\n              0x00\n                /* \"Campaign.sol\":3590:3598  requests */\n              dup1\n                /* \"Campaign.sol\":3599:3604  index */\n              dup3\n                /* \"Campaign.sol\":3590:3605  requests[index] */\n              dup2\n              sload\n              dup2\n              lt\n              tag_58\n              jumpi\n              tag_59\n              tag_60\n              jump\t// in\n            tag_59:\n            tag_58:\n              swap1\n              0x00\n              mstore\n              keccak256(0x00, 0x20)\n              swap1\n              0x04\n              mul\n              add\n                /* \"Campaign.sol\":3566:3605  Request storage request=requests[index] */\n              swap1\n              pop\n                /* \"Campaign.sol\":3660:3661  2 */\n              0x02\n                /* \"Campaign.sol\":3646:3659  donatorsCount */\n              sload(0x04)\n                /* \"Campaign.sol\":3646:3661  donatorsCount/2 */\n              tag_62\n              swap2\n              swap1\n              tag_63\n              jump\t// in\n            tag_62:\n                /* \"Campaign.sol\":3623:3630  request */\n              dup2\n                /* \"Campaign.sol\":3623:3644  request.approvalCount */\n              0x03\n              add\n              sload\n                /* \"Campaign.sol\":3623:3662  request.approvalCount>(donatorsCount/2) */\n              gt\n                /* \"Campaign.sol\":3615:3663  require(request.approvalCount>(donatorsCount/2)) */\n              tag_64\n              jumpi\n              0x00\n              dup1\n              revert\n            tag_64:\n                /* \"Campaign.sol\":3682:3689  request */\n              dup1\n                /* \"Campaign.sol\":3682:3698  request.complete */\n              0x02\n              add\n              0x14\n              swap1\n              sload\n              swap1\n              0x0100\n              exp\n              swap1\n              div\n              0xff\n              and\n                /* \"Campaign.sol\":3681:3698  !request.complete */\n              iszero\n                /* \"Campaign.sol\":3673:3699  require(!request.complete) */\n              tag_65\n              jumpi\n              0x00\n              dup1\n              revert\n            tag_65:\n                /* \"Campaign.sol\":3769:3776  request */\n              dup1\n                /* \"Campaign.sol\":3769:3787  request.receipient */\n              0x02\n              add\n              0x00\n              swap1\n              sload\n              swap1\n              0x0100\n              exp\n              swap1\n              div\n              0xffffffffffffffffffffffffffffffffffffffff\n              and\n                /* \"Campaign.sol\":3769:3796  request.receipient.transfer */\n              0xffffffffffffffffffffffffffffffffffffffff\n              and\n                /* \"Campaign.sol\":3769:3811  request.receipient.transfer(request.value) */\n              0x08fc\n                /* \"Campaign.sol\":3797:3804  request */\n              dup3\n                /* \"Campaign.sol\":3797:3810  request.value */\n              0x01\n              add\n              sload\n                /* \"Campaign.sol\":3769:3811  request.receipient.transfer(request.value) */\n              swap1\n              dup2\n              iszero\n              mul\n              swap1\n              mload(0x40)\n              0x00\n              mload(0x40)\n              dup1\n              dup4\n              sub\n              dup2\n              dup6\n              dup9\n              dup9\n              call\n              swap4\n              pop\n              pop\n              pop\n              pop\n              iszero\n              dup1\n              iszero\n              tag_67\n              jumpi\n              returndatasize\n              0x00\n              dup1\n              returndatacopy\n              revert(0x00, returndatasize)\n            tag_67:\n              pop\n                /* \"Campaign.sol\":3838:3842  true */\n              0x01\n                /* \"Campaign.sol\":3821:3828  request */\n              dup2\n                /* \"Campaign.sol\":3821:3837  request.complete */\n              0x02\n              add\n              0x14\n                /* \"Campaign.sol\":3821:3842  request.complete=true */\n              0x0100\n              exp\n              dup2\n              sload\n              dup2\n              0xff\n              mul\n              not\n              and\n              swap1\n              dup4\n              iszero\n              iszero\n              mul\n              or\n              swap1\n              sstore\n              pop\n                /* \"Campaign.sol\":3472:3851  {... */\n              pop\n                /* \"Campaign.sol\":3418:3851  function finalizeRequest(uint index) public restricted{... */\n              pop\n              jump\t// out\n                /* \"Campaign.sol\":1115:1137  address public manager */\n            tag_19:\n              0x02\n              0x00\n              swap1\n              sload\n              swap1\n              0x0100\n              exp\n              swap1\n              div\n              0xffffffffffffffffffffffffffffffffffffffff\n              and\n              dup2\n              jump\t// out\n                /* \"Campaign.sol\":1180:1205  uint public donatorsCount */\n            tag_24:\n              sload(0x04)\n              dup2\n              jump\t// out\n                /* \"Campaign.sol\":1007:1032  Request[] public requests */\n            tag_30:\n              0x00\n              dup2\n              dup2\n              sload\n              dup2\n              lt\n              tag_68\n              jumpi\n              0x00\n              dup1\n              revert\n            tag_68:\n              swap1\n              0x00\n              mstore\n              keccak256(0x00, 0x20)\n              swap1\n              0x04\n              mul\n              add\n              0x00\n              swap2\n              pop\n              swap1\n              pop\n              dup1\n              0x00\n              add\n              dup1\n              sload\n              tag_70\n              swap1\n              tag_71\n              jump\t// in\n            tag_70:\n              dup1\n              0x1f\n              add\n              0x20\n              dup1\n              swap2\n              div\n              mul\n              0x20\n              add\n              mload(0x40)\n              swap1\n              dup2\n              add\n              0x40\n              mstore\n              dup1\n              swap3\n              swap2\n              swap1\n              dup2\n              dup2\n              mstore\n              0x20\n              add\n              dup3\n              dup1\n              sload\n              tag_72\n              swap1\n              tag_71\n              jump\t// in\n            tag_72:\n              dup1\n              iszero\n              tag_73\n              jumpi\n              dup1\n              0x1f\n              lt\n              tag_74\n              jumpi\n              0x0100\n              dup1\n              dup4\n              sload\n              div\n              mul\n              dup4\n              mstore\n              swap2\n              0x20\n              add\n              swap2\n              jump(tag_73)\n            tag_74:\n              dup3\n              add\n              swap2\n              swap1\n              0x00\n              mstore\n              keccak256(0x00, 0x20)\n              swap1\n            tag_75:\n              dup2\n              sload\n              dup2\n              mstore\n              swap1\n              0x01\n              add\n              swap1\n              0x20\n              add\n              dup1\n              dup4\n              gt\n              tag_75\n              jumpi\n              dup3\n              swap1\n              sub\n              0x1f\n              and\n              dup3\n              add\n              swap2\n            tag_73:\n              pop\n              pop\n              pop\n              pop\n              pop\n              swap1\n              dup1\n              0x01\n              add\n              sload\n              swap1\n              dup1\n              0x02\n              add\n              0x00\n              swap1\n              sload\n              swap1\n              0x0100\n              exp\n              swap1\n              div\n              0xffffffffffffffffffffffffffffffffffffffff\n              and\n              swap1\n              dup1\n              0x02\n              add\n              0x14\n              swap1\n              sload\n              swap1\n              0x0100\n              exp\n              swap1\n              div\n              0xff\n              and\n              swap1\n              dup1\n              0x03\n              add\n              sload\n              swap1\n              pop\n              dup6\n              jump\t// out\n                /* \"Campaign.sol\":2360:2758  function createRequest(string memory description, uint value, address payable recipient) public restricted{... */\n            tag_37:\n                /* \"Campaign.sol\":1408:1415  manager */\n              0x02\n              0x00\n              swap1\n              sload\n              swap1\n              0x0100\n              exp\n              swap1\n              div\n              0xffffffffffffffffffffffffffffffffffffffff\n              and\n                /* \"Campaign.sol\":1396:1415  msg.sender==manager */\n              0xffffffffffffffffffffffffffffffffffffffff\n              and\n                /* \"Campaign.sol\":1396:1406  msg.sender */\n              caller\n                /* \"Campaign.sol\":1396:1415  msg.sender==manager */\n              0xffffffffffffffffffffffffffffffffffffffff\n              and\n              eq\n                /* \"Campaign.sol\":1388:1416  require(msg.sender==manager) */\n              tag_77\n              jumpi\n              0x00\n              dup1\n              revert\n            tag_77:\n                /* \"Campaign.sol\":2484:2492  donators */\n              0x05\n                /* \"Campaign.sol\":2484:2504  donators[msg.sender] */\n              0x00\n                /* \"Campaign.sol\":2493:2503  msg.sender */\n              caller\n                /* \"Campaign.sol\":2484:2504  donators[msg.sender] */\n              0xffffffffffffffffffffffffffffffffffffffff\n              and\n              0xffffffffffffffffffffffffffffffffffffffff\n              and\n              dup2\n              mstore\n              0x20\n              add\n              swap1\n              dup2\n              mstore\n              0x20\n              add\n              0x00\n              keccak256\n              0x00\n              swap1\n              sload\n              swap1\n              0x0100\n              exp\n              swap1\n              div\n              0xff\n              and\n                /* \"Campaign.sol\":2476:2505  require(donators[msg.sender]) */\n              tag_79\n              jumpi\n              0x00\n              dup1\n              revert\n            tag_79:\n                /* \"Campaign.sol\":2515:2540  Request memory newRequest */\n              0x00\n                /* \"Campaign.sol\":2541:2714  Request({... */\n              mload(0x40)\n              dup1\n              0xa0\n              add\n              0x40\n              mstore\n              dup1\n                /* \"Campaign.sol\":2575:2586  description */\n              dup6\n                /* \"Campaign.sol\":2541:2714  Request({... */\n              dup2\n              mstore\n              0x20\n              add\n                /* \"Campaign.sol\":2606:2611  value */\n              dup5\n                /* \"Campaign.sol\":2541:2714  Request({... */\n              dup2\n              mstore\n              0x20\n              add\n                /* \"Campaign.sol\":2636:2645  recipient */\n              dup4\n                /* \"Campaign.sol\":2541:2714  Request({... */\n              0xffffffffffffffffffffffffffffffffffffffff\n              and\n              dup2\n              mstore\n              0x20\n              add\n                /* \"Campaign.sol\":2668:2673  false */\n              0x00\n                /* \"Campaign.sol\":2541:2714  Request({... */\n              iszero\n              iszero\n              dup2\n              mstore\n              0x20\n              add\n                /* \"Campaign.sol\":2701:2702  0 */\n              0x00\n                /* \"Campaign.sol\":2541:2714  Request({... */\n              dup2\n              mstore\n              pop\n                /* \"Campaign.sol\":2515:2714  Request memory newRequest=Request({... */\n              swap1\n              pop\n                /* \"Campaign.sol\":2725:2733  requests */\n              0x00\n                /* \"Campaign.sol\":2739:2749  newRequest */\n              dup2\n                /* \"Campaign.sol\":2725:2750  requests.push(newRequest) */\n              swap1\n              dup1\n              0x01\n              dup2\n              sload\n              add\n              dup1\n              dup3\n              sstore\n              dup1\n              swap2\n              pop\n              pop\n              0x01\n              swap1\n              sub\n              swap1\n              0x00\n              mstore\n              keccak256(0x00, 0x20)\n              swap1\n              0x04\n              mul\n              add\n              0x00\n              swap1\n              swap2\n              swap1\n              swap2\n              swap1\n              swap2\n              pop\n              0x00\n              dup3\n              add\n              mload\n              dup2\n              0x00\n              add\n              swap1\n              dup1\n              mload\n              swap1\n              0x20\n              add\n              swap1\n              tag_81\n              swap3\n              swap2\n              swap1\n              tag_82\n              jump\t// in\n            tag_81:\n              pop\n              0x20\n              dup3\n              add\n              mload\n              dup2\n              0x01\n              add\n              sstore\n              0x40\n              dup3\n              add\n              mload\n              dup2\n              0x02\n              add\n              exp(0x0100, 0x00)\n              dup2\n              sload\n              dup2\n              0xffffffffffffffffffffffffffffffffffffffff\n              mul\n              not\n              and\n              swap1\n              dup4\n              0xffffffffffffffffffffffffffffffffffffffff\n              and\n              mul\n              or\n              swap1\n              sstore\n              pop\n              0x60\n              dup3\n              add\n              mload\n              dup2\n              0x02\n              add\n              exp(0x0100, 0x14)\n              dup2\n              sload\n              dup2\n              0xff\n              mul\n              not\n              and\n              swap1\n              dup4\n              iszero\n              iszero\n              mul\n              or\n              swap1\n              sstore\n              pop\n              0x80\n              dup3\n              add\n              mload\n              dup2\n              0x03\n              add\n              sstore\n              pop\n              pop\n                /* \"Campaign.sol\":2466:2758  {... */\n              pop\n                /* \"Campaign.sol\":2360:2758  function createRequest(string memory description, uint value, address payable recipient) public restricted{... */\n              pop\n              pop\n              pop\n              jump\t// out\n                /* \"Campaign.sol\":1143:1174  uint public minimumContribution */\n            tag_40:\n              sload(0x03)\n              dup2\n              jump\t// out\n                /* \"Campaign.sol\":1311:1349  mapping(address=>bool) public donators */\n            tag_46:\n              mstore(0x20, 0x05)\n              dup1\n              0x00\n              mstore\n              keccak256(0x00, 0x40)\n              0x00\n              swap2\n              pop\n              sload\n              swap1\n              0x0100\n              exp\n              swap1\n              div\n              0xff\n              and\n              dup2\n              jump\t// out\n                /* \"Campaign.sol\":1936:2147  function contribute() public payable{... */\n            tag_50:\n                /* \"Campaign.sol\":2000:2019  minimumContribution */\n              sload(0x03)\n                /* \"Campaign.sol\":1990:1999  msg.value */\n              callvalue\n                /* \"Campaign.sol\":1990:2019  msg.value>minimumContribution */\n              gt\n                /* \"Campaign.sol\":1982:2020  require(msg.value>minimumContribution) */\n              tag_84\n              jumpi\n              0x00\n              dup1\n              revert\n            tag_84:\n                /* \"Campaign.sol\":2110:2114  true */\n              0x01\n                /* \"Campaign.sol\":2089:2097  donators */\n              0x05\n                /* \"Campaign.sol\":2089:2109  donators[msg.sender] */\n              0x00\n                /* \"Campaign.sol\":2098:2108  msg.sender */\n              caller\n                /* \"Campaign.sol\":2089:2109  donators[msg.sender] */\n              0xffffffffffffffffffffffffffffffffffffffff\n              and\n              0xffffffffffffffffffffffffffffffffffffffff\n              and\n              dup2\n              mstore\n              0x20\n              add\n              swap1\n              dup2\n              mstore\n              0x20\n              add\n              0x00\n              keccak256\n              0x00\n                /* \"Campaign.sol\":2089:2114  donators[msg.sender]=true */\n              0x0100\n              exp\n              dup2\n              sload\n              dup2\n              0xff\n              mul\n              not\n              and\n              swap1\n              dup4\n              iszero\n              iszero\n              mul\n              or\n              swap1\n              sstore\n              pop\n                /* \"Campaign.sol\":2124:2137  donatorsCount */\n              0x04\n              0x00\n                /* \"Campaign.sol\":2124:2139  donatorsCount++ */\n              dup2\n              sload\n              dup1\n              swap3\n              swap2\n              swap1\n              tag_85\n              swap1\n              tag_86\n              jump\t// in\n            tag_85:\n              swap2\n              swap1\n              pop\n              sstore\n              pop\n                /* \"Campaign.sol\":1936:2147  function contribute() public payable{... */\n              jump\t// out\n                /* \"Campaign.sol\":2943:3305  function approveRequest(uint index) public {... */\n            tag_54:\n                /* \"Campaign.sol\":2996:3019  Request storage request */\n              0x00\n                /* \"Campaign.sol\":3020:3028  requests */\n              dup1\n                /* \"Campaign.sol\":3029:3034  index */\n              dup3\n                /* \"Campaign.sol\":3020:3035  requests[index] */\n              dup2\n              sload\n              dup2\n              lt\n              tag_88\n              jumpi\n              tag_89\n              tag_60\n              jump\t// in\n            tag_89:\n            tag_88:\n              swap1\n              0x00\n              mstore\n              keccak256(0x00, 0x20)\n              swap1\n              0x04\n              mul\n              add\n                /* \"Campaign.sol\":2996:3035  Request storage request=requests[index] */\n              swap1\n              pop\n                /* \"Campaign.sol\":3119:3127  donators */\n              0x05\n                /* \"Campaign.sol\":3119:3139  donators[msg.sender] */\n              0x00\n                /* \"Campaign.sol\":3128:3138  msg.sender */\n              caller\n                /* \"Campaign.sol\":3119:3139  donators[msg.sender] */\n              0xffffffffffffffffffffffffffffffffffffffff\n              and\n              0xffffffffffffffffffffffffffffffffffffffff\n              and\n              dup2\n              mstore\n              0x20\n              add\n              swap1\n              dup2\n              mstore\n              0x20\n              add\n              0x00\n              keccak256\n              0x00\n              swap1\n              sload\n              swap1\n              0x0100\n              exp\n              swap1\n              div\n              0xff\n              and\n                /* \"Campaign.sol\":3111:3140  require(donators[msg.sender]) */\n              tag_91\n              jumpi\n              0x00\n              dup1\n              revert\n            tag_91:\n                /* \"Campaign.sol\":3207:3216  approvals */\n              0x01\n                /* \"Campaign.sol\":3207:3228  approvals[msg.sender] */\n              0x00\n                /* \"Campaign.sol\":3217:3227  msg.sender */\n              caller\n                /* \"Campaign.sol\":3207:3228  approvals[msg.sender] */\n              0xffffffffffffffffffffffffffffffffffffffff\n              and\n              0xffffffffffffffffffffffffffffffffffffffff\n              and\n              dup2\n              mstore\n              0x20\n              add\n              swap1\n              dup2\n              mstore\n              0x20\n              add\n              0x00\n              keccak256\n              0x00\n              swap1\n              sload\n              swap1\n              0x0100\n              exp\n              swap1\n              div\n              0xff\n              and\n                /* \"Campaign.sol\":3206:3228  !approvals[msg.sender] */\n              iszero\n                /* \"Campaign.sol\":3198:3229  require(!approvals[msg.sender]) */\n              tag_92\n              jumpi\n              0x00\n              dup1\n              revert\n            tag_92:\n                /* \"Campaign.sol\":3261:3265  true */\n              0x01\n                /* \"Campaign.sol\":3239:3248  approvals */\n              dup1\n                /* \"Campaign.sol\":3239:3260  approvals[msg.sender] */\n              0x00\n                /* \"Campaign.sol\":3249:3259  msg.sender */\n              caller\n                /* \"Campaign.sol\":3239:3260  approvals[msg.sender] */\n              0xffffffffffffffffffffffffffffffffffffffff\n              and\n              0xffffffffffffffffffffffffffffffffffffffff\n              and\n              dup2\n              mstore\n              0x20\n              add\n              swap1\n              dup2\n              mstore\n              0x20\n              add\n              0x00\n              keccak256\n              0x00\n                /* \"Campaign.sol\":3239:3265  approvals[msg.sender]=true */\n              0x0100\n              exp\n              dup2\n              sload\n              dup2\n              0xff\n              mul\n              not\n              and\n              swap1\n              dup4\n              iszero\n              iszero\n              mul\n              or\n              swap1\n              sstore\n              pop\n                /* \"Campaign.sol\":3275:3282  request */\n              dup1\n                /* \"Campaign.sol\":3275:3296  request.approvalCount */\n              0x03\n              add\n              0x00\n                /* \"Campaign.sol\":3275:3298  request.approvalCount++ */\n              dup2\n              sload\n              dup1\n              swap3\n              swap2\n              swap1\n              tag_93\n              swap1\n              tag_86\n              jump\t// in\n            tag_93:\n              swap2\n              swap1\n              pop\n              sstore\n              pop\n                /* \"Campaign.sol\":2986:3305  {... */\n              pop\n                /* \"Campaign.sol\":2943:3305  function approveRequest(uint index) public {... */\n              pop\n              jump\t// out\n            tag_82:\n              dup3\n              dup1\n              sload\n              tag_94\n              swap1\n              tag_71\n              jump\t// in\n            tag_94:\n              swap1\n              0x00\n              mstore\n              keccak256(0x00, 0x20)\n              swap1\n              0x1f\n              add\n              0x20\n              swap1\n              div\n              dup2\n              add\n              swap3\n              dup3\n              tag_96\n              jumpi\n              0x00\n              dup6\n              sstore\n              jump(tag_95)\n            tag_96:\n              dup3\n              0x1f\n              lt\n              tag_97\n              jumpi\n              dup1\n              mload\n              not(0xff)\n              and\n              dup4\n              dup1\n              add\n              or\n              dup6\n              sstore\n              jump(tag_95)\n            tag_97:\n              dup3\n              dup1\n              add\n              0x01\n              add\n              dup6\n              sstore\n              dup3\n              iszero\n              tag_95\n              jumpi\n              swap2\n              dup3\n              add\n            tag_98:\n              dup3\n              dup2\n              gt\n              iszero\n              tag_99\n              jumpi\n              dup3\n              mload\n              dup3\n              sstore\n              swap2\n              0x20\n              add\n              swap2\n              swap1\n              0x01\n              add\n              swap1\n              jump(tag_98)\n            tag_99:\n            tag_95:\n              pop\n              swap1\n              pop\n              tag_100\n              swap2\n              swap1\n              tag_101\n              jump\t// in\n            tag_100:\n              pop\n              swap1\n              jump\t// out\n            tag_101:\n            tag_102:\n              dup1\n              dup3\n              gt\n              iszero\n              tag_103\n              jumpi\n              0x00\n              dup2\n              0x00\n              swap1\n              sstore\n              pop\n              0x01\n              add\n              jump(tag_102)\n            tag_103:\n              pop\n              swap1\n              jump\t// out\n                /* \"#utility.yul\":7:419   */\n            tag_105:\n                /* \"#utility.yul\":85:90   */\n              0x00\n                /* \"#utility.yul\":110:176   */\n              tag_107\n                /* \"#utility.yul\":126:175   */\n              tag_108\n                /* \"#utility.yul\":168:174   */\n              dup5\n                /* \"#utility.yul\":126:175   */\n              tag_109\n              jump\t// in\n            tag_108:\n                /* \"#utility.yul\":110:176   */\n              tag_110\n              jump\t// in\n            tag_107:\n                /* \"#utility.yul\":101:176   */\n              swap1\n              pop\n                /* \"#utility.yul\":199:205   */\n              dup3\n                /* \"#utility.yul\":192:197   */\n              dup2\n                /* \"#utility.yul\":185:206   */\n              mstore\n                /* \"#utility.yul\":237:241   */\n              0x20\n                /* \"#utility.yul\":230:235   */\n              dup2\n                /* \"#utility.yul\":226:242   */\n              add\n                /* \"#utility.yul\":275:278   */\n              dup5\n                /* \"#utility.yul\":266:272   */\n              dup5\n                /* \"#utility.yul\":261:264   */\n              dup5\n                /* \"#utility.yul\":257:273   */\n              add\n                /* \"#utility.yul\":254:279   */\n              gt\n                /* \"#utility.yul\":251:363   */\n              iszero\n              tag_111\n              jumpi\n                /* \"#utility.yul\":282:361   */\n              tag_112\n              tag_113\n              jump\t// in\n            tag_112:\n                /* \"#utility.yul\":251:363   */\n            tag_111:\n                /* \"#utility.yul\":372:413   */\n              tag_114\n                /* \"#utility.yul\":406:412   */\n              dup5\n                /* \"#utility.yul\":401:404   */\n              dup3\n                /* \"#utility.yul\":396:399   */\n              dup6\n                /* \"#utility.yul\":372:413   */\n              tag_115\n              jump\t// in\n            tag_114:\n                /* \"#utility.yul\":91:419   */\n              pop\n                /* \"#utility.yul\":7:419   */\n              swap4\n              swap3\n              pop\n              pop\n              pop\n              jump\t// out\n                /* \"#utility.yul\":425:564   */\n            tag_116:\n                /* \"#utility.yul\":471:476   */\n              0x00\n                /* \"#utility.yul\":509:515   */\n              dup2\n                /* \"#utility.yul\":496:516   */\n              calldataload\n                /* \"#utility.yul\":487:516   */\n              swap1\n              pop\n                /* \"#utility.yul\":525:558   */\n              tag_118\n                /* \"#utility.yul\":552:557   */\n              dup2\n                /* \"#utility.yul\":525:558   */\n              tag_119\n              jump\t// in\n            tag_118:\n                /* \"#utility.yul\":425:564   */\n              swap3\n              swap2\n              pop\n              pop\n              jump\t// out\n                /* \"#utility.yul\":570:725   */\n            tag_120:\n                /* \"#utility.yul\":624:629   */\n              0x00\n                /* \"#utility.yul\":662:668   */\n              dup2\n                /* \"#utility.yul\":649:669   */\n              calldataload\n                /* \"#utility.yul\":640:669   */\n              swap1\n              pop\n                /* \"#utility.yul\":678:719   */\n              tag_122\n                /* \"#utility.yul\":713:718   */\n              dup2\n                /* \"#utility.yul\":678:719   */\n              tag_123\n              jump\t// in\n            tag_122:\n                /* \"#utility.yul\":570:725   */\n              swap3\n              swap2\n              pop\n              pop\n              jump\t// out\n                /* \"#utility.yul\":745:1085   */\n            tag_124:\n                /* \"#utility.yul\":801:806   */\n              0x00\n                /* \"#utility.yul\":850:853   */\n              dup3\n                /* \"#utility.yul\":843:847   */\n              0x1f\n                /* \"#utility.yul\":835:841   */\n              dup4\n                /* \"#utility.yul\":831:848   */\n              add\n                /* \"#utility.yul\":827:854   */\n              slt\n                /* \"#utility.yul\":817:939   */\n              tag_126\n              jumpi\n                /* \"#utility.yul\":858:937   */\n              tag_127\n              tag_128\n              jump\t// in\n            tag_127:\n                /* \"#utility.yul\":817:939   */\n            tag_126:\n                /* \"#utility.yul\":975:981   */\n              dup2\n                /* \"#utility.yul\":962:982   */\n              calldataload\n                /* \"#utility.yul\":1000:1079   */\n              tag_129\n                /* \"#utility.yul\":1075:1078   */\n              dup5\n                /* \"#utility.yul\":1067:1073   */\n              dup3\n                /* \"#utility.yul\":1060:1064   */\n              0x20\n                /* \"#utility.yul\":1052:1058   */\n              dup7\n                /* \"#utility.yul\":1048:1065   */\n              add\n                /* \"#utility.yul\":1000:1079   */\n              tag_105\n              jump\t// in\n            tag_129:\n                /* \"#utility.yul\":991:1079   */\n              swap2\n              pop\n                /* \"#utility.yul\":807:1085   */\n              pop\n                /* \"#utility.yul\":745:1085   */\n              swap3\n              swap2\n              pop\n              pop\n              jump\t// out\n                /* \"#utility.yul\":1091:1230   */\n            tag_130:\n                /* \"#utility.yul\":1137:1142   */\n              0x00\n                /* \"#utility.yul\":1175:1181   */\n              dup2\n                /* \"#utility.yul\":1162:1182   */\n              calldataload\n                /* \"#utility.yul\":1153:1182   */\n              swap1\n              pop\n                /* \"#utility.yul\":1191:1224   */\n              tag_132\n                /* \"#utility.yul\":1218:1223   */\n              dup2\n                /* \"#utility.yul\":1191:1224   */\n              tag_133\n              jump\t// in\n            tag_132:\n                /* \"#utility.yul\":1091:1230   */\n              swap3\n              swap2\n              pop\n              pop\n              jump\t// out\n                /* \"#utility.yul\":1236:1565   */\n            tag_45:\n                /* \"#utility.yul\":1295:1301   */\n              0x00\n                /* \"#utility.yul\":1344:1346   */\n              0x20\n                /* \"#utility.yul\":1332:1341   */\n              dup3\n                /* \"#utility.yul\":1323:1330   */\n              dup5\n                /* \"#utility.yul\":1319:1342   */\n              sub\n                /* \"#utility.yul\":1315:1347   */\n              slt\n                /* \"#utility.yul\":1312:1431   */\n              iszero\n              tag_135\n              jumpi\n                /* \"#utility.yul\":1350:1429   */\n              tag_136\n              tag_137\n              jump\t// in\n            tag_136:\n                /* \"#utility.yul\":1312:1431   */\n            tag_135:\n                /* \"#utility.yul\":1470:1471   */\n              0x00\n                /* \"#utility.yul\":1495:1548   */\n              tag_138\n                /* \"#utility.yul\":1540:1547   */\n              dup5\n                /* \"#utility.yul\":1531:1537   */\n              dup3\n                /* \"#utility.yul\":1520:1529   */\n              dup6\n                /* \"#utility.yul\":1516:1538   */\n              add\n                /* \"#utility.yul\":1495:1548   */\n              tag_116\n              jump\t// in\n            tag_138:\n                /* \"#utility.yul\":1485:1548   */\n              swap2\n              pop\n                /* \"#utility.yul\":1441:1558   */\n              pop\n                /* \"#utility.yul\":1236:1565   */\n              swap3\n              swap2\n              pop\n              pop\n              jump\t// out\n                /* \"#utility.yul\":1571:2386   */\n            tag_36:\n                /* \"#utility.yul\":1666:1672   */\n              0x00\n                /* \"#utility.yul\":1674:1680   */\n              dup1\n                /* \"#utility.yul\":1682:1688   */\n              0x00\n                /* \"#utility.yul\":1731:1733   */\n              0x60\n                /* \"#utility.yul\":1719:1728   */\n              dup5\n                /* \"#utility.yul\":1710:1717   */\n              dup7\n                /* \"#utility.yul\":1706:1729   */\n              sub\n                /* \"#utility.yul\":1702:1734   */\n              slt\n                /* \"#utility.yul\":1699:1818   */\n              iszero\n              tag_140\n              jumpi\n                /* \"#utility.yul\":1737:1816   */\n              tag_141\n              tag_137\n              jump\t// in\n            tag_141:\n                /* \"#utility.yul\":1699:1818   */\n            tag_140:\n                /* \"#utility.yul\":1885:1886   */\n              0x00\n                /* \"#utility.yul\":1874:1883   */\n              dup5\n                /* \"#utility.yul\":1870:1887   */\n              add\n                /* \"#utility.yul\":1857:1888   */\n              calldataload\n                /* \"#utility.yul\":1915:1933   */\n              0xffffffffffffffff\n                /* \"#utility.yul\":1907:1913   */\n              dup2\n                /* \"#utility.yul\":1904:1934   */\n              gt\n                /* \"#utility.yul\":1901:2018   */\n              iszero\n              tag_142\n              jumpi\n                /* \"#utility.yul\":1937:2016   */\n              tag_143\n              tag_144\n              jump\t// in\n            tag_143:\n                /* \"#utility.yul\":1901:2018   */\n            tag_142:\n                /* \"#utility.yul\":2042:2105   */\n              tag_145\n                /* \"#utility.yul\":2097:2104   */\n              dup7\n                /* \"#utility.yul\":2088:2094   */\n              dup3\n                /* \"#utility.yul\":2077:2086   */\n              dup8\n                /* \"#utility.yul\":2073:2095   */\n              add\n                /* \"#utility.yul\":2042:2105   */\n              tag_124\n              jump\t// in\n            tag_145:\n                /* \"#utility.yul\":2032:2105   */\n              swap4\n              pop\n                /* \"#utility.yul\":1828:2115   */\n              pop\n                /* \"#utility.yul\":2154:2156   */\n              0x20\n                /* \"#utility.yul\":2180:2233   */\n              tag_146\n                /* \"#utility.yul\":2225:2232   */\n              dup7\n                /* \"#utility.yul\":2216:2222   */\n              dup3\n                /* \"#utility.yul\":2205:2214   */\n              dup8\n                /* \"#utility.yul\":2201:2223   */\n              add\n                /* \"#utility.yul\":2180:2233   */\n              tag_130\n              jump\t// in\n            tag_146:\n                /* \"#utility.yul\":2170:2233   */\n              swap3\n              pop\n                /* \"#utility.yul\":2125:2243   */\n              pop\n                /* \"#utility.yul\":2282:2284   */\n              0x40\n                /* \"#utility.yul\":2308:2369   */\n              tag_147\n                /* \"#utility.yul\":2361:2368   */\n              dup7\n                /* \"#utility.yul\":2352:2358   */\n              dup3\n                /* \"#utility.yul\":2341:2350   */\n              dup8\n                /* \"#utility.yul\":2337:2359   */\n              add\n                /* \"#utility.yul\":2308:2369   */\n              tag_120\n              jump\t// in\n            tag_147:\n                /* \"#utility.yul\":2298:2369   */\n              swap2\n              pop\n                /* \"#utility.yul\":2253:2379   */\n              pop\n                /* \"#utility.yul\":1571:2386   */\n              swap3\n              pop\n              swap3\n              pop\n              swap3\n              jump\t// out\n                /* \"#utility.yul\":2392:2721   */\n            tag_15:\n                /* \"#utility.yul\":2451:2457   */\n              0x00\n                /* \"#utility.yul\":2500:2502   */\n              0x20\n                /* \"#utility.yul\":2488:2497   */\n              dup3\n                /* \"#utility.yul\":2479:2486   */\n              dup5\n                /* \"#utility.yul\":2475:2498   */\n              sub\n                /* \"#utility.yul\":2471:2503   */\n              slt\n                /* \"#utility.yul\":2468:2587   */\n              iszero\n              tag_149\n              jumpi\n                /* \"#utility.yul\":2506:2585   */\n              tag_150\n              tag_137\n              jump\t// in\n            tag_150:\n                /* \"#utility.yul\":2468:2587   */\n            tag_149:\n                /* \"#utility.yul\":2626:2627   */\n              0x00\n                /* \"#utility.yul\":2651:2704   */\n              tag_151\n                /* \"#utility.yul\":2696:2703   */\n              dup5\n                /* \"#utility.yul\":2687:2693   */\n              dup3\n                /* \"#utility.yul\":2676:2685   */\n              dup6\n                /* \"#utility.yul\":2672:2694   */\n              add\n                /* \"#utility.yul\":2651:2704   */\n              tag_130\n              jump\t// in\n            tag_151:\n                /* \"#utility.yul\":2641:2704   */\n              swap2\n              pop\n                /* \"#utility.yul\":2597:2714   */\n              pop\n                /* \"#utility.yul\":2392:2721   */\n              swap3\n              swap2\n              pop\n              pop\n              jump\t// out\n                /* \"#utility.yul\":2727:2869   */\n            tag_152:\n                /* \"#utility.yul\":2830:2862   */\n              tag_154\n                /* \"#utility.yul\":2856:2861   */\n              dup2\n                /* \"#utility.yul\":2830:2862   */\n              tag_155\n              jump\t// in\n            tag_154:\n                /* \"#utility.yul\":2825:2828   */\n              dup3\n                /* \"#utility.yul\":2818:2863   */\n              mstore\n                /* \"#utility.yul\":2727:2869   */\n              pop\n              pop\n              jump\t// out\n                /* \"#utility.yul\":2875:2993   */\n            tag_156:\n                /* \"#utility.yul\":2962:2986   */\n              tag_158\n                /* \"#utility.yul\":2980:2985   */\n              dup2\n                /* \"#utility.yul\":2962:2986   */\n              tag_159\n              jump\t// in\n            tag_158:\n                /* \"#utility.yul\":2957:2960   */\n              dup3\n                /* \"#utility.yul\":2950:2987   */\n              mstore\n                /* \"#utility.yul\":2875:2993   */\n              pop\n              pop\n              jump\t// out\n                /* \"#utility.yul\":2999:3108   */\n            tag_160:\n                /* \"#utility.yul\":3080:3101   */\n              tag_162\n                /* \"#utility.yul\":3095:3100   */\n              dup2\n                /* \"#utility.yul\":3080:3101   */\n              tag_163\n              jump\t// in\n            tag_162:\n                /* \"#utility.yul\":3075:3078   */\n              dup3\n                /* \"#utility.yul\":3068:3102   */\n              mstore\n                /* \"#utility.yul\":2999:3108   */\n              pop\n              pop\n              jump\t// out\n                /* \"#utility.yul\":3114:3478   */\n            tag_164:\n                /* \"#utility.yul\":3202:3205   */\n              0x00\n                /* \"#utility.yul\":3230:3269   */\n              tag_166\n                /* \"#utility.yul\":3263:3268   */\n              dup3\n                /* \"#utility.yul\":3230:3269   */\n              tag_167\n              jump\t// in\n            tag_166:\n                /* \"#utility.yul\":3285:3356   */\n              tag_168\n                /* \"#utility.yul\":3349:3355   */\n              dup2\n                /* \"#utility.yul\":3344:3347   */\n              dup6\n                /* \"#utility.yul\":3285:3356   */\n              tag_169\n              jump\t// in\n            tag_168:\n                /* \"#utility.yul\":3278:3356   */\n              swap4\n              pop\n                /* \"#utility.yul\":3365:3417   */\n              tag_170\n                /* \"#utility.yul\":3410:3416   */\n              dup2\n                /* \"#utility.yul\":3405:3408   */\n              dup6\n                /* \"#utility.yul\":3398:3402   */\n              0x20\n                /* \"#utility.yul\":3391:3396   */\n              dup7\n                /* \"#utility.yul\":3387:3403   */\n              add\n                /* \"#utility.yul\":3365:3417   */\n              tag_171\n              jump\t// in\n            tag_170:\n                /* \"#utility.yul\":3442:3471   */\n              tag_172\n                /* \"#utility.yul\":3464:3470   */\n              dup2\n                /* \"#utility.yul\":3442:3471   */\n              tag_173\n              jump\t// in\n            tag_172:\n                /* \"#utility.yul\":3437:3440   */\n              dup5\n                /* \"#utility.yul\":3433:3472   */\n              add\n                /* \"#utility.yul\":3426:3472   */\n              swap2\n              pop\n                /* \"#utility.yul\":3206:3478   */\n              pop\n                /* \"#utility.yul\":3114:3478   */\n              swap3\n              swap2\n              pop\n              pop\n              jump\t// out\n                /* \"#utility.yul\":3484:3602   */\n            tag_174:\n                /* \"#utility.yul\":3571:3595   */\n              tag_176\n                /* \"#utility.yul\":3589:3594   */\n              dup2\n                /* \"#utility.yul\":3571:3595   */\n              tag_177\n              jump\t// in\n            tag_176:\n                /* \"#utility.yul\":3566:3569   */\n              dup3\n                /* \"#utility.yul\":3559:3596   */\n              mstore\n                /* \"#utility.yul\":3484:3602   */\n              pop\n              pop\n              jump\t// out\n                /* \"#utility.yul\":3608:3830   */\n            tag_21:\n                /* \"#utility.yul\":3701:3705   */\n              0x00\n                /* \"#utility.yul\":3739:3741   */\n              0x20\n                /* \"#utility.yul\":3728:3737   */\n              dup3\n                /* \"#utility.yul\":3724:3742   */\n              add\n                /* \"#utility.yul\":3716:3742   */\n              swap1\n              pop\n                /* \"#utility.yul\":3752:3823   */\n              tag_179\n                /* \"#utility.yul\":3820:3821   */\n              0x00\n                /* \"#utility.yul\":3809:3818   */\n              dup4\n                /* \"#utility.yul\":3805:3822   */\n              add\n                /* \"#utility.yul\":3796:3802   */\n              dup5\n                /* \"#utility.yul\":3752:3823   */\n              tag_156\n              jump\t// in\n            tag_179:\n                /* \"#utility.yul\":3608:3830   */\n              swap3\n              swap2\n              pop\n              pop\n              jump\t// out\n                /* \"#utility.yul\":3836:4046   */\n            tag_48:\n                /* \"#utility.yul\":3923:3927   */\n              0x00\n                /* \"#utility.yul\":3961:3963   */\n              0x20\n                /* \"#utility.yul\":3950:3959   */\n              dup3\n                /* \"#utility.yul\":3946:3964   */\n              add\n                /* \"#utility.yul\":3938:3964   */\n              swap1\n              pop\n                /* \"#utility.yul\":3974:4039   */\n              tag_181\n                /* \"#utility.yul\":4036:4037   */\n              0x00\n                /* \"#utility.yul\":4025:4034   */\n              dup4\n                /* \"#utility.yul\":4021:4038   */\n              add\n                /* \"#utility.yul\":4012:4018   */\n              dup5\n                /* \"#utility.yul\":3974:4039   */\n              tag_160\n              jump\t// in\n            tag_181:\n                /* \"#utility.yul\":3836:4046   */\n              swap3\n              swap2\n              pop\n              pop\n              jump\t// out\n                /* \"#utility.yul\":4052:4827   */\n            tag_32:\n                /* \"#utility.yul\":4287:4291   */\n              0x00\n                /* \"#utility.yul\":4325:4328   */\n              0xa0\n                /* \"#utility.yul\":4314:4323   */\n              dup3\n                /* \"#utility.yul\":4310:4329   */\n              add\n                /* \"#utility.yul\":4302:4329   */\n              swap1\n              pop\n                /* \"#utility.yul\":4375:4384   */\n              dup2\n                /* \"#utility.yul\":4369:4373   */\n              dup2\n                /* \"#utility.yul\":4365:4385   */\n              sub\n                /* \"#utility.yul\":4361:4362   */\n              0x00\n                /* \"#utility.yul\":4350:4359   */\n              dup4\n                /* \"#utility.yul\":4346:4363   */\n              add\n                /* \"#utility.yul\":4339:4386   */\n              mstore\n                /* \"#utility.yul\":4403:4481   */\n              tag_183\n                /* \"#utility.yul\":4476:4480   */\n              dup2\n                /* \"#utility.yul\":4467:4473   */\n              dup9\n                /* \"#utility.yul\":4403:4481   */\n              tag_164\n              jump\t// in\n            tag_183:\n                /* \"#utility.yul\":4395:4481   */\n              swap1\n              pop\n                /* \"#utility.yul\":4491:4563   */\n              tag_184\n                /* \"#utility.yul\":4559:4561   */\n              0x20\n                /* \"#utility.yul\":4548:4557   */\n              dup4\n                /* \"#utility.yul\":4544:4562   */\n              add\n                /* \"#utility.yul\":4535:4541   */\n              dup8\n                /* \"#utility.yul\":4491:4563   */\n              tag_174\n              jump\t// in\n            tag_184:\n                /* \"#utility.yul\":4573:4661   */\n              tag_185\n                /* \"#utility.yul\":4657:4659   */\n              0x40\n                /* \"#utility.yul\":4646:4655   */\n              dup4\n                /* \"#utility.yul\":4642:4660   */\n              add\n                /* \"#utility.yul\":4633:4639   */\n              dup7\n                /* \"#utility.yul\":4573:4661   */\n              tag_152\n              jump\t// in\n            tag_185:\n                /* \"#utility.yul\":4671:4737   */\n              tag_186\n                /* \"#utility.yul\":4733:4735   */\n              0x60\n                /* \"#utility.yul\":4722:4731   */\n              dup4\n                /* \"#utility.yul\":4718:4736   */\n              add\n                /* \"#utility.yul\":4709:4715   */\n              dup6\n                /* \"#utility.yul\":4671:4737   */\n              tag_160\n              jump\t// in\n            tag_186:\n                /* \"#utility.yul\":4747:4820   */\n              tag_187\n                /* \"#utility.yul\":4815:4818   */\n              0x80\n                /* \"#utility.yul\":4804:4813   */\n              dup4\n                /* \"#utility.yul\":4800:4819   */\n              add\n                /* \"#utility.yul\":4791:4797   */\n              dup5\n                /* \"#utility.yul\":4747:4820   */\n              tag_174\n              jump\t// in\n            tag_187:\n                /* \"#utility.yul\":4052:4827   */\n              swap7\n              swap6\n              pop\n              pop\n              pop\n              pop\n              pop\n              pop\n              jump\t// out\n                /* \"#utility.yul\":4833:5055   */\n            tag_26:\n                /* \"#utility.yul\":4926:4930   */\n              0x00\n                /* \"#utility.yul\":4964:4966   */\n              0x20\n                /* \"#utility.yul\":4953:4962   */\n              dup3\n                /* \"#utility.yul\":4949:4967   */\n              add\n                /* \"#utility.yul\":4941:4967   */\n              swap1\n              pop\n                /* \"#utility.yul\":4977:5048   */\n              tag_189\n                /* \"#utility.yul\":5045:5046   */\n              0x00\n                /* \"#utility.yul\":5034:5043   */\n              dup4\n                /* \"#utility.yul\":5030:5047   */\n              add\n                /* \"#utility.yul\":5021:5027   */\n              dup5\n                /* \"#utility.yul\":4977:5048   */\n              tag_174\n              jump\t// in\n            tag_189:\n                /* \"#utility.yul\":4833:5055   */\n              swap3\n              swap2\n              pop\n              pop\n              jump\t// out\n                /* \"#utility.yul\":5061:5190   */\n            tag_110:\n                /* \"#utility.yul\":5095:5101   */\n              0x00\n                /* \"#utility.yul\":5122:5142   */\n              tag_191\n              tag_192\n              jump\t// in\n            tag_191:\n                /* \"#utility.yul\":5112:5142   */\n              swap1\n              pop\n                /* \"#utility.yul\":5151:5184   */\n              tag_193\n                /* \"#utility.yul\":5179:5183   */\n              dup3\n                /* \"#utility.yul\":5171:5177   */\n              dup3\n                /* \"#utility.yul\":5151:5184   */\n              tag_194\n              jump\t// in\n            tag_193:\n                /* \"#utility.yul\":5061:5190   */\n              swap2\n              swap1\n              pop\n              jump\t// out\n                /* \"#utility.yul\":5196:5271   */\n            tag_192:\n                /* \"#utility.yul\":5229:5235   */\n              0x00\n                /* \"#utility.yul\":5262:5264   */\n              0x40\n                /* \"#utility.yul\":5256:5265   */\n              mload\n                /* \"#utility.yul\":5246:5265   */\n              swap1\n              pop\n                /* \"#utility.yul\":5196:5271   */\n              swap1\n              jump\t// out\n                /* \"#utility.yul\":5277:5585   */\n            tag_109:\n                /* \"#utility.yul\":5339:5343   */\n              0x00\n                /* \"#utility.yul\":5429:5447   */\n              0xffffffffffffffff\n                /* \"#utility.yul\":5421:5427   */\n              dup3\n                /* \"#utility.yul\":5418:5448   */\n              gt\n                /* \"#utility.yul\":5415:5471   */\n              iszero\n              tag_197\n              jumpi\n                /* \"#utility.yul\":5451:5469   */\n              tag_198\n              tag_199\n              jump\t// in\n            tag_198:\n                /* \"#utility.yul\":5415:5471   */\n            tag_197:\n                /* \"#utility.yul\":5489:5518   */\n              tag_200\n                /* \"#utility.yul\":5511:5517   */\n              dup3\n                /* \"#utility.yul\":5489:5518   */\n              tag_173\n              jump\t// in\n            tag_200:\n                /* \"#utility.yul\":5481:5518   */\n              swap1\n              pop\n                /* \"#utility.yul\":5573:5577   */\n              0x20\n                /* \"#utility.yul\":5567:5571   */\n              dup2\n                /* \"#utility.yul\":5563:5578   */\n              add\n                /* \"#utility.yul\":5555:5578   */\n              swap1\n              pop\n                /* \"#utility.yul\":5277:5585   */\n              swap2\n              swap1\n              pop\n              jump\t// out\n                /* \"#utility.yul\":5591:5690   */\n            tag_167:\n                /* \"#utility.yul\":5643:5649   */\n              0x00\n                /* \"#utility.yul\":5677:5682   */\n              dup2\n                /* \"#utility.yul\":5671:5683   */\n              mload\n                /* \"#utility.yul\":5661:5683   */\n              swap1\n              pop\n                /* \"#utility.yul\":5591:5690   */\n              swap2\n              swap1\n              pop\n              jump\t// out\n                /* \"#utility.yul\":5696:5865   */\n            tag_169:\n                /* \"#utility.yul\":5780:5791   */\n              0x00\n                /* \"#utility.yul\":5814:5820   */\n              dup3\n                /* \"#utility.yul\":5809:5812   */\n              dup3\n                /* \"#utility.yul\":5802:5821   */\n              mstore\n                /* \"#utility.yul\":5854:5858   */\n              0x20\n                /* \"#utility.yul\":5849:5852   */\n              dup3\n                /* \"#utility.yul\":5845:5859   */\n              add\n                /* \"#utility.yul\":5830:5859   */\n              swap1\n              pop\n                /* \"#utility.yul\":5696:5865   */\n              swap3\n              swap2\n              pop\n              pop\n              jump\t// out\n                /* \"#utility.yul\":5871:6056   */\n            tag_63:\n                /* \"#utility.yul\":5911:5912   */\n              0x00\n                /* \"#utility.yul\":5928:5948   */\n              tag_204\n                /* \"#utility.yul\":5946:5947   */\n              dup3\n                /* \"#utility.yul\":5928:5948   */\n              tag_177\n              jump\t// in\n            tag_204:\n                /* \"#utility.yul\":5923:5948   */\n              swap2\n              pop\n                /* \"#utility.yul\":5962:5982   */\n              tag_205\n                /* \"#utility.yul\":5980:5981   */\n              dup4\n                /* \"#utility.yul\":5962:5982   */\n              tag_177\n              jump\t// in\n            tag_205:\n                /* \"#utility.yul\":5957:5982   */\n              swap3\n              pop\n                /* \"#utility.yul\":6001:6002   */\n              dup3\n                /* \"#utility.yul\":5991:6026   */\n              tag_206\n              jumpi\n                /* \"#utility.yul\":6006:6024   */\n              tag_207\n              tag_208\n              jump\t// in\n            tag_207:\n                /* \"#utility.yul\":5991:6026   */\n            tag_206:\n                /* \"#utility.yul\":6048:6049   */\n              dup3\n                /* \"#utility.yul\":6045:6046   */\n              dup3\n                /* \"#utility.yul\":6041:6050   */\n              div\n                /* \"#utility.yul\":6036:6050   */\n              swap1\n              pop\n                /* \"#utility.yul\":5871:6056   */\n              swap3\n              swap2\n              pop\n              pop\n              jump\t// out\n                /* \"#utility.yul\":6062:6158   */\n            tag_159:\n                /* \"#utility.yul\":6099:6106   */\n              0x00\n                /* \"#utility.yul\":6128:6152   */\n              tag_210\n                /* \"#utility.yul\":6146:6151   */\n              dup3\n                /* \"#utility.yul\":6128:6152   */\n              tag_211\n              jump\t// in\n            tag_210:\n                /* \"#utility.yul\":6117:6152   */\n              swap1\n              pop\n                /* \"#utility.yul\":6062:6158   */\n              swap2\n              swap1\n              pop\n              jump\t// out\n                /* \"#utility.yul\":6164:6268   */\n            tag_155:\n                /* \"#utility.yul\":6209:6216   */\n              0x00\n                /* \"#utility.yul\":6238:6262   */\n              tag_213\n                /* \"#utility.yul\":6256:6261   */\n              dup3\n                /* \"#utility.yul\":6238:6262   */\n              tag_211\n              jump\t// in\n            tag_213:\n                /* \"#utility.yul\":6227:6262   */\n              swap1\n              pop\n                /* \"#utility.yul\":6164:6268   */\n              swap2\n              swap1\n              pop\n              jump\t// out\n                /* \"#utility.yul\":6274:6364   */\n            tag_163:\n                /* \"#utility.yul\":6308:6315   */\n              0x00\n                /* \"#utility.yul\":6351:6356   */\n              dup2\n                /* \"#utility.yul\":6344:6357   */\n              iszero\n                /* \"#utility.yul\":6337:6358   */\n              iszero\n                /* \"#utility.yul\":6326:6358   */\n              swap1\n              pop\n                /* \"#utility.yul\":6274:6364   */\n              swap2\n              swap1\n              pop\n              jump\t// out\n                /* \"#utility.yul\":6370:6496   */\n            tag_211:\n                /* \"#utility.yul\":6407:6414   */\n              0x00\n                /* \"#utility.yul\":6447:6489   */\n              0xffffffffffffffffffffffffffffffffffffffff\n                /* \"#utility.yul\":6440:6445   */\n              dup3\n                /* \"#utility.yul\":6436:6490   */\n              and\n                /* \"#utility.yul\":6425:6490   */\n              swap1\n              pop\n                /* \"#utility.yul\":6370:6496   */\n              swap2\n              swap1\n              pop\n              jump\t// out\n                /* \"#utility.yul\":6502:6579   */\n            tag_177:\n                /* \"#utility.yul\":6539:6546   */\n              0x00\n                /* \"#utility.yul\":6568:6573   */\n              dup2\n                /* \"#utility.yul\":6557:6573   */\n              swap1\n              pop\n                /* \"#utility.yul\":6502:6579   */\n              swap2\n              swap1\n              pop\n              jump\t// out\n                /* \"#utility.yul\":6585:6739   */\n            tag_115:\n                /* \"#utility.yul\":6669:6675   */\n              dup3\n                /* \"#utility.yul\":6664:6667   */\n              dup2\n                /* \"#utility.yul\":6659:6662   */\n              dup4\n                /* \"#utility.yul\":6646:6676   */\n              calldatacopy\n                /* \"#utility.yul\":6731:6732   */\n              0x00\n                /* \"#utility.yul\":6722:6728   */\n              dup4\n                /* \"#utility.yul\":6717:6720   */\n              dup4\n                /* \"#utility.yul\":6713:6729   */\n              add\n                /* \"#utility.yul\":6706:6733   */\n              mstore\n                /* \"#utility.yul\":6585:6739   */\n              pop\n              pop\n              pop\n              jump\t// out\n                /* \"#utility.yul\":6745:7052   */\n            tag_171:\n                /* \"#utility.yul\":6813:6814   */\n              0x00\n                /* \"#utility.yul\":6823:6936   */\n            tag_219:\n                /* \"#utility.yul\":6837:6843   */\n              dup4\n                /* \"#utility.yul\":6834:6835   */\n              dup2\n                /* \"#utility.yul\":6831:6844   */\n              lt\n                /* \"#utility.yul\":6823:6936   */\n              iszero\n              tag_221\n              jumpi\n                /* \"#utility.yul\":6922:6923   */\n              dup1\n                /* \"#utility.yul\":6917:6920   */\n              dup3\n                /* \"#utility.yul\":6913:6924   */\n              add\n                /* \"#utility.yul\":6907:6925   */\n              mload\n                /* \"#utility.yul\":6903:6904   */\n              dup2\n                /* \"#utility.yul\":6898:6901   */\n              dup5\n                /* \"#utility.yul\":6894:6905   */\n              add\n                /* \"#utility.yul\":6887:6926   */\n              mstore\n                /* \"#utility.yul\":6859:6861   */\n              0x20\n                /* \"#utility.yul\":6856:6857   */\n              dup2\n                /* \"#utility.yul\":6852:6862   */\n              add\n                /* \"#utility.yul\":6847:6862   */\n              swap1\n              pop\n                /* \"#utility.yul\":6823:6936   */\n              jump(tag_219)\n            tag_221:\n                /* \"#utility.yul\":6954:6960   */\n              dup4\n                /* \"#utility.yul\":6951:6952   */\n              dup2\n                /* \"#utility.yul\":6948:6961   */\n              gt\n                /* \"#utility.yul\":6945:7046   */\n              iszero\n              tag_222\n              jumpi\n                /* \"#utility.yul\":7034:7035   */\n              0x00\n                /* \"#utility.yul\":7025:7031   */\n              dup5\n                /* \"#utility.yul\":7020:7023   */\n              dup5\n                /* \"#utility.yul\":7016:7032   */\n              add\n                /* \"#utility.yul\":7009:7036   */\n              mstore\n                /* \"#utility.yul\":6945:7046   */\n            tag_222:\n                /* \"#utility.yul\":6794:7052   */\n              pop\n                /* \"#utility.yul\":6745:7052   */\n              pop\n              pop\n              pop\n              jump\t// out\n                /* \"#utility.yul\":7058:7378   */\n            tag_71:\n                /* \"#utility.yul\":7102:7108   */\n              0x00\n                /* \"#utility.yul\":7139:7140   */\n              0x02\n                /* \"#utility.yul\":7133:7137   */\n              dup3\n                /* \"#utility.yul\":7129:7141   */\n              div\n                /* \"#utility.yul\":7119:7141   */\n              swap1\n              pop\n                /* \"#utility.yul\":7186:7187   */\n              0x01\n                /* \"#utility.yul\":7180:7184   */\n              dup3\n                /* \"#utility.yul\":7176:7188   */\n              and\n                /* \"#utility.yul\":7207:7225   */\n              dup1\n                /* \"#utility.yul\":7197:7278   */\n              tag_224\n              jumpi\n                /* \"#utility.yul\":7263:7267   */\n              0x7f\n                /* \"#utility.yul\":7255:7261   */\n              dup3\n                /* \"#utility.yul\":7251:7268   */\n              and\n                /* \"#utility.yul\":7241:7268   */\n              swap2\n              pop\n                /* \"#utility.yul\":7197:7278   */\n            tag_224:\n                /* \"#utility.yul\":7325:7327   */\n              0x20\n                /* \"#utility.yul\":7317:7323   */\n              dup3\n                /* \"#utility.yul\":7314:7328   */\n              lt\n                /* \"#utility.yul\":7294:7312   */\n              dup2\n                /* \"#utility.yul\":7291:7329   */\n              eq\n                /* \"#utility.yul\":7288:7372   */\n              iszero\n              tag_225\n              jumpi\n                /* \"#utility.yul\":7344:7362   */\n              tag_226\n              tag_227\n              jump\t// in\n            tag_226:\n                /* \"#utility.yul\":7288:7372   */\n            tag_225:\n                /* \"#utility.yul\":7109:7378   */\n              pop\n                /* \"#utility.yul\":7058:7378   */\n              swap2\n              swap1\n              pop\n              jump\t// out\n                /* \"#utility.yul\":7384:7665   */\n            tag_194:\n                /* \"#utility.yul\":7467:7494   */\n              tag_229\n                /* \"#utility.yul\":7489:7493   */\n              dup3\n                /* \"#utility.yul\":7467:7494   */\n              tag_173\n              jump\t// in\n            tag_229:\n                /* \"#utility.yul\":7459:7465   */\n              dup2\n                /* \"#utility.yul\":7455:7495   */\n              add\n                /* \"#utility.yul\":7597:7603   */\n              dup2\n                /* \"#utility.yul\":7585:7595   */\n              dup2\n                /* \"#utility.yul\":7582:7604   */\n              lt\n                /* \"#utility.yul\":7561:7579   */\n              0xffffffffffffffff\n                /* \"#utility.yul\":7549:7559   */\n              dup3\n                /* \"#utility.yul\":7546:7580   */\n              gt\n                /* \"#utility.yul\":7543:7605   */\n              or\n                /* \"#utility.yul\":7540:7628   */\n              iszero\n              tag_230\n              jumpi\n                /* \"#utility.yul\":7608:7626   */\n              tag_231\n              tag_199\n              jump\t// in\n            tag_231:\n                /* \"#utility.yul\":7540:7628   */\n            tag_230:\n                /* \"#utility.yul\":7648:7658   */\n              dup1\n                /* \"#utility.yul\":7644:7646   */\n              0x40\n                /* \"#utility.yul\":7637:7659   */\n              mstore\n                /* \"#utility.yul\":7427:7665   */\n              pop\n                /* \"#utility.yul\":7384:7665   */\n              pop\n              pop\n              jump\t// out\n                /* \"#utility.yul\":7671:7904   */\n            tag_86:\n                /* \"#utility.yul\":7710:7713   */\n              0x00\n                /* \"#utility.yul\":7733:7757   */\n              tag_233\n                /* \"#utility.yul\":7751:7756   */\n              dup3\n                /* \"#utility.yul\":7733:7757   */\n              tag_177\n              jump\t// in\n            tag_233:\n                /* \"#utility.yul\":7724:7757   */\n              swap2\n              pop\n                /* \"#utility.yul\":7779:7845   */\n              0xffffffffffffffffffffffffffffffffffffffffffffffffffffffffffffffff\n                /* \"#utility.yul\":7772:7777   */\n              dup3\n                /* \"#utility.yul\":7769:7846   */\n              eq\n                /* \"#utility.yul\":7766:7869   */\n              iszero\n              tag_234\n              jumpi\n                /* \"#utility.yul\":7849:7867   */\n              tag_235\n              tag_236\n              jump\t// in\n            tag_235:\n                /* \"#utility.yul\":7766:7869   */\n            tag_234:\n                /* \"#utility.yul\":7896:7897   */\n              0x01\n                /* \"#utility.yul\":7889:7894   */\n              dup3\n                /* \"#utility.yul\":7885:7898   */\n              add\n                /* \"#utility.yul\":7878:7898   */\n              swap1\n              pop\n                /* \"#utility.yul\":7671:7904   */\n              swap2\n              swap1\n              pop\n              jump\t// out\n                /* \"#utility.yul\":7910:8090   */\n            tag_236:\n                /* \"#utility.yul\":7958:8035   */\n              0x4e487b7100000000000000000000000000000000000000000000000000000000\n                /* \"#utility.yul\":7955:7956   */\n              0x00\n                /* \"#utility.yul\":7948:8036   */\n              mstore\n                /* \"#utility.yul\":8055:8059   */\n              0x11\n                /* \"#utility.yul\":8052:8053   */\n              0x04\n                /* \"#utility.yul\":8045:8060   */\n              mstore\n                /* \"#utility.yul\":8079:8083   */\n              0x24\n                /* \"#utility.yul\":8076:8077   */\n              0x00\n                /* \"#utility.yul\":8069:8084   */\n              revert\n                /* \"#utility.yul\":8096:8276   */\n            tag_208:\n                /* \"#utility.yul\":8144:8221   */\n              0x4e487b7100000000000000000000000000000000000000000000000000000000\n                /* \"#utility.yul\":8141:8142   */\n              0x00\n                /* \"#utility.yul\":8134:8222   */\n              mstore\n                /* \"#utility.yul\":8241:8245   */\n              0x12\n                /* \"#utility.yul\":8238:8239   */\n              0x04\n                /* \"#utility.yul\":8231:8246   */\n              mstore\n                /* \"#utility.yul\":8265:8269   */\n              0x24\n                /* \"#utility.yul\":8262:8263   */\n              0x00\n                /* \"#utility.yul\":8255:8270   */\n              revert\n                /* \"#utility.yul\":8282:8462   */\n            tag_227:\n                /* \"#utility.yul\":8330:8407   */\n              0x4e487b7100000000000000000000000000000000000000000000000000000000\n                /* \"#utility.yul\":8327:8328   */\n              0x00\n                /* \"#utility.yul\":8320:8408   */\n              mstore\n                /* \"#utility.yul\":8427:8431   */\n              0x22\n                /* \"#utility.yul\":8424:8425   */\n              0x04\n                /* \"#utility.yul\":8417:8432   */\n              mstore\n                /* \"#utility.yul\":8451:8455   */\n              0x24\n                /* \"#utility.yul\":8448:8449   */\n              0x00\n                /* \"#utility.yul\":8441:8456   */\n              revert\n                /* \"#utility.yul\":8468:8648   */\n            tag_60:\n                /* \"#utility.yul\":8516:8593   */\n              0x4e487b7100000000000000000000000000000000000000000000000000000000\n                /* \"#utility.yul\":8513:8514   */\n              0x00\n                /* \"#utility.yul\":8506:8594   */\n              mstore\n                /* \"#utility.yul\":8613:8617   */\n              0x32\n                /* \"#utility.yul\":8610:8611   */\n              0x04\n                /* \"#utility.yul\":8603:8618   */\n              mstore\n                /* \"#utility.yul\":8637:8641   */\n              0x24\n                /* \"#utility.yul\":8634:8635   */\n              0x00\n                /* \"#utility.yul\":8627:8642   */\n              revert\n                /* \"#utility.yul\":8654:8834   */\n            tag_199:\n                /* \"#utility.yul\":8702:8779   */\n              0x4e487b7100000000000000000000000000000000000000000000000000000000\n                /* \"#utility.yul\":8699:8700   */\n              0x00\n                /* \"#utility.yul\":8692:8780   */\n              mstore\n                /* \"#utility.yul\":8799:8803   */\n              0x41\n                /* \"#utility.yul\":8796:8797   */\n              0x04\n                /* \"#utility.yul\":8789:8804   */\n              mstore\n                /* \"#utility.yul\":8823:8827   */\n              0x24\n                /* \"#utility.yul\":8820:8821   */\n              0x00\n                /* \"#utility.yul\":8813:8828   */\n              revert\n                /* \"#utility.yul\":8840:8957   */\n            tag_128:\n                /* \"#utility.yul\":8949:8950   */\n              0x00\n                /* \"#utility.yul\":8946:8947   */\n              dup1\n                /* \"#utility.yul\":8939:8951   */\n              revert\n                /* \"#utility.yul\":8963:9080   */\n            tag_113:\n                /* \"#utility.yul\":9072:9073   */\n              0x00\n                /* \"#utility.yul\":9069:9070   */\n              dup1\n                /* \"#utility.yul\":9062:9074   */\n              revert\n                /* \"#utility.yul\":9086:9203   */\n            tag_144:\n                /* \"#utility.yul\":9195:9196   */\n              0x00\n                /* \"#utility.yul\":9192:9193   */\n              dup1\n                /* \"#utility.yul\":9185:9197   */\n              revert\n                /* \"#utility.yul\":9209:9326   */\n            tag_137:\n                /* \"#utility.yul\":9318:9319   */\n              0x00\n                /* \"#utility.yul\":9315:9316   */\n              dup1\n                /* \"#utility.yul\":9308:9320   */\n              revert\n                /* \"#utility.yul\":9332:9434   */\n            tag_173:\n                /* \"#utility.yul\":9373:9379   */\n              0x00\n                /* \"#utility.yul\":9424:9426   */\n              0x1f\n                /* \"#utility.yul\":9420:9427   */\n              not\n                /* \"#utility.yul\":9415:9417   */\n              0x1f\n                /* \"#utility.yul\":9408:9413   */\n              dup4\n                /* \"#utility.yul\":9404:9418   */\n              add\n                /* \"#utility.yul\":9400:9428   */\n              and\n                /* \"#utility.yul\":9390:9428   */\n              swap1\n              pop\n                /* \"#utility.yul\":9332:9434   */\n              swap2\n              swap1\n              pop\n              jump\t// out\n                /* \"#utility.yul\":9440:9562   */\n            tag_119:\n                /* \"#utility.yul\":9513:9537   */\n              tag_248\n                /* \"#utility.yul\":9531:9536   */\n              dup2\n                /* \"#utility.yul\":9513:9537   */\n              tag_159\n              jump\t// in\n            tag_248:\n                /* \"#utility.yul\":9506:9511   */\n              dup2\n                /* \"#utility.yul\":9503:9538   */\n              eq\n                /* \"#utility.yul\":9493:9556   */\n              tag_249\n              jumpi\n                /* \"#utility.yul\":9552:9553   */\n              0x00\n                /* \"#utility.yul\":9549:9550   */\n              dup1\n                /* \"#utility.yul\":9542:9554   */\n              revert\n                /* \"#utility.yul\":9493:9556   */\n            tag_249:\n                /* \"#utility.yul\":9440:9562   */\n              pop\n              jump\t// out\n                /* \"#utility.yul\":9568:9706   */\n            tag_123:\n                /* \"#utility.yul\":9649:9681   */\n              tag_251\n                /* \"#utility.yul\":9675:9680   */\n              dup2\n                /* \"#utility.yul\":9649:9681   */\n              tag_155\n              jump\t// in\n            tag_251:\n                /* \"#utility.yul\":9642:9647   */\n              dup2\n                /* \"#utility.yul\":9639:9682   */\n              eq\n                /* \"#utility.yul\":9629:9700   */\n              tag_252\n              jumpi\n                /* \"#utility.yul\":9696:9697   */\n              0x00\n                /* \"#utility.yul\":9693:9694   */\n              dup1\n                /* \"#utility.yul\":9686:9698   */\n              revert\n                /* \"#utility.yul\":9629:9700   */\n            tag_252:\n                /* \"#utility.yul\":9568:9706   */\n              pop\n              jump\t// out\n                /* \"#utility.yul\":9712:9834   */\n            tag_133:\n                /* \"#utility.yul\":9785:9809   */\n              tag_254\n                /* \"#utility.yul\":9803:9808   */\n              dup2\n                /* \"#utility.yul\":9785:9809   */\n              tag_177\n              jump\t// in\n            tag_254:\n                /* \"#utility.yul\":9778:9783   */\n              dup2\n                /* \"#utility.yul\":9775:9810   */\n              eq\n                /* \"#utility.yul\":9765:9828   */\n              tag_255\n              jumpi\n                /* \"#utility.yul\":9824:9825   */\n              0x00\n                /* \"#utility.yul\":9821:9822   */\n              dup1\n                /* \"#utility.yul\":9814:9826   */\n              revert\n                /* \"#utility.yul\":9765:9828   */\n            tag_255:\n                /* \"#utility.yul\":9712:9834   */\n              pop\n              jump\t// out\n\n            auxdata: 0xa26469706673582212200654301d503bf5380a03605d50576c44abcc9dae2373e0b9a9f020b59ce64dd564736f6c63430008070033\n        }\n    }\n\n    auxdata: 0xa264697066735822122043319e34b4ef88a74a694ee705f784eb6ec938389c04b9feeace7395b0b1366e64736f6c63430008070033\n}\n",
    "bytecode": {
      "linkReferences": {},
      "object": "608060405234801561001057600080fd5b5061149e806100206000396000f3fe608060405234801561001057600080fd5b50600436106100415760003560e01c8063339d50a5146100465780635eac000714610076578063a3303a7514610094575b600080fd5b610060600480360381019061005b9190610240565b6100b0565b60405161006d9190610310565b60405180910390f35b61007e6100ef565b60405161008b919061032b565b60405180910390f35b6100ae60048036038101906100a99190610240565b61017d565b005b600081815481106100c057600080fd5b906000526020600020016000915054906101000a900473ffffffffffffffffffffffffffffffffffffffff1681565b6060600080548060200260200160405190810160405280929190818152602001828054801561017357602002820191906000526020600020905b8160009054906101000a900473ffffffffffffffffffffffffffffffffffffffff1673ffffffffffffffffffffffffffffffffffffffff1681526020019060010190808311610129575b5050505050905090565b6000813360405161018d9061021e565b61019892919061034d565b604051809103906000f0801580156101b4573d6000803e3d6000fd5b5090506000819080600181540180825580915050600190039060005260206000200160009091909190916101000a81548173ffffffffffffffffffffffffffffffffffffffff021916908373ffffffffffffffffffffffffffffffffffffffff1602179055505050565b6110618061040883390190565b60008135905061023a816103f0565b92915050565b600060208284031215610256576102556103eb565b5b60006102648482850161022b565b91505092915050565b60006102798383610285565b60208301905092915050565b61028e816103af565b82525050565b61029d816103af565b82525050565b60006102ae82610386565b6102b8818561039e565b93506102c383610376565b8060005b838110156102f45781516102db888261026d565b97506102e683610391565b9250506001810190506102c7565b5085935050505092915050565b61030a816103e1565b82525050565b60006020820190506103256000830184610294565b92915050565b6000602082019050818103600083015261034581846102a3565b905092915050565b60006040820190506103626000830185610301565b61036f6020830184610294565b9392505050565b6000819050602082019050919050565b600081519050919050565b6000602082019050919050565b600082825260208201905092915050565b60006103ba826103c1565b9050919050565b600073ffffffffffffffffffffffffffffffffffffffff82169050919050565b6000819050919050565b600080fd5b6103f9816103e1565b811461040457600080fd5b5056fe60806040523480156200001157600080fd5b5060405162001061380380620010618339818101604052810190620000379190620000b5565b80600260006101000a81548173ffffffffffffffffffffffffffffffffffffffff021916908373ffffffffffffffffffffffffffffffffffffffff16021790555081600381905550505062000173565b60008151905062000098816200013f565b92915050565b600081519050620000af8162000159565b92915050565b60008060408385031215620000cf57620000ce6200013a565b5b6000620000df858286016200009e565b9250506020620000f28582860162000087565b9150509250929050565b6000620001098262000110565b9050919050565b600073ffffffffffffffffffffffffffffffffffffffff82169050919050565b6000819050919050565b600080fd5b6200014a81620000fc565b81146200015657600080fd5b50565b620001648162000130565b81146200017057600080fd5b50565b610ede80620001836000396000f3fe6080604052600436106100865760003560e01c80638a9cfd55116100595780638a9cfd551461014b578063937e09b114610174578063d24f8cdd1461019f578063d7bb99ba146101dc578063d7d1bbdb146101e657610086565b8063034410061461008b578063481c6a75146100b457806372e87168146100df57806381d12c581461010a575b600080fd5b34801561009757600080fd5b506100b260048036038101906100ad9190610a1b565b61020f565b005b3480156100c057600080fd5b506100c9610358565b6040516100d69190610abd565b60405180910390f35b3480156100eb57600080fd5b506100f461037e565b6040516101019190610b4d565b60405180910390f35b34801561011657600080fd5b50610131600480360381019061012c9190610a1b565b610384565b604051610142959493929190610af3565b60405180910390f35b34801561015757600080fd5b50610172600480360381019061016d91906109ac565b61047f565b005b34801561018057600080fd5b50610189610640565b6040516101969190610b4d565b60405180910390f35b3480156101ab57600080fd5b506101c660048036038101906101c1919061097f565b610646565b6040516101d39190610ad8565b60405180910390f35b6101e4610666565b005b3480156101f257600080fd5b5061020d60048036038101906102089190610a1b565b6106e6565b005b600260009054906101000a900473ffffffffffffffffffffffffffffffffffffffff1673ffffffffffffffffffffffffffffffffffffffff163373ffffffffffffffffffffffffffffffffffffffff161461026957600080fd5b600080828154811061027e5761027d610de0565b5b90600052602060002090600402019050600260045461029d9190610bda565b8160030154116102ac57600080fd5b8060020160149054906101000a900460ff16156102c857600080fd5b8060020160009054906101000a900473ffffffffffffffffffffffffffffffffffffffff1673ffffffffffffffffffffffffffffffffffffffff166108fc82600101549081150290604051600060405180830381858888f19350505050158015610336573d6000803e3d6000fd5b5060018160020160146101000a81548160ff0219169083151502179055505050565b600260009054906101000a900473ffffffffffffffffffffffffffffffffffffffff1681565b60045481565b6000818154811061039457600080fd5b90600052602060002090600402016000915090508060000180546103b790610ca7565b80601f01602080910402602001604051908101604052809291908181526020018280546103e390610ca7565b80156104305780601f1061040557610100808354040283529160200191610430565b820191906000526020600020905b81548152906001019060200180831161041357829003601f168201915b5050505050908060010154908060020160009054906101000a900473ffffffffffffffffffffffffffffffffffffffff16908060020160149054906101000a900460ff16908060030154905085565b600260009054906101000a900473ffffffffffffffffffffffffffffffffffffffff1673ffffffffffffffffffffffffffffffffffffffff163373ffffffffffffffffffffffffffffffffffffffff16146104d957600080fd5b600560003373ffffffffffffffffffffffffffffffffffffffff1673ffffffffffffffffffffffffffffffffffffffff16815260200190815260200160002060009054906101000a900460ff1661052f57600080fd5b60006040518060a001604052808581526020018481526020018373ffffffffffffffffffffffffffffffffffffffff16815260200160001515815260200160008152509050600081908060018154018082558091505060019003906000526020600020906004020160009091909190915060008201518160000190805190602001906105bc92919061082d565b506020820151816001015560408201518160020160006101000a81548173ffffffffffffffffffffffffffffffffffffffff021916908373ffffffffffffffffffffffffffffffffffffffff16021790555060608201518160020160146101000a81548160ff02191690831515021790555060808201518160030155505050505050565b60035481565b60056020528060005260406000206000915054906101000a900460ff1681565b600354341161067457600080fd5b6001600560003373ffffffffffffffffffffffffffffffffffffffff1673ffffffffffffffffffffffffffffffffffffffff16815260200190815260200160002060006101000a81548160ff021916908315150217905550600460008154809291906106df90610d0a565b9190505550565b60008082815481106106fb576106fa610de0565b5b90600052602060002090600402019050600560003373ffffffffffffffffffffffffffffffffffffffff1673ffffffffffffffffffffffffffffffffffffffff16815260200190815260200160002060009054906101000a900460ff1661076157600080fd5b600160003373ffffffffffffffffffffffffffffffffffffffff1673ffffffffffffffffffffffffffffffffffffffff16815260200190815260200160002060009054906101000a900460ff16156107b857600080fd5b60018060003373ffffffffffffffffffffffffffffffffffffffff1673ffffffffffffffffffffffffffffffffffffffff16815260200190815260200160002060006101000a81548160ff02191690831515021790555080600301600081548092919061082490610d0a565b91905055505050565b82805461083990610ca7565b90600052602060002090601f01602090048101928261085b57600085556108a2565b82601f1061087457805160ff19168380011785556108a2565b828001600101855582156108a2579182015b828111156108a1578251825591602001919060010190610886565b5b5090506108af91906108b3565b5090565b5b808211156108cc5760008160009055506001016108b4565b5090565b60006108e36108de84610b8d565b610b68565b9050828152602081018484840111156108ff576108fe610e43565b5b61090a848285610c65565b509392505050565b60008135905061092181610e63565b92915050565b60008135905061093681610e7a565b92915050565b600082601f83011261095157610950610e3e565b5b81356109618482602086016108d0565b91505092915050565b60008135905061097981610e91565b92915050565b60006020828403121561099557610994610e4d565b5b60006109a384828501610912565b91505092915050565b6000806000606084860312156109c5576109c4610e4d565b5b600084013567ffffffffffffffff8111156109e3576109e2610e48565b5b6109ef8682870161093c565b9350506020610a008682870161096a565b9250506040610a1186828701610927565b9150509250925092565b600060208284031215610a3157610a30610e4d565b5b6000610a3f8482850161096a565b91505092915050565b610a5181610c1d565b82525050565b610a6081610c0b565b82525050565b610a6f81610c2f565b82525050565b6000610a8082610bbe565b610a8a8185610bc9565b9350610a9a818560208601610c74565b610aa381610e52565b840191505092915050565b610ab781610c5b565b82525050565b6000602082019050610ad26000830184610a57565b92915050565b6000602082019050610aed6000830184610a66565b92915050565b600060a0820190508181036000830152610b0d8188610a75565b9050610b1c6020830187610aae565b610b296040830186610a48565b610b366060830185610a66565b610b436080830184610aae565b9695505050505050565b6000602082019050610b626000830184610aae565b92915050565b6000610b72610b83565b9050610b7e8282610cd9565b919050565b6000604051905090565b600067ffffffffffffffff821115610ba857610ba7610e0f565b5b610bb182610e52565b9050602081019050919050565b600081519050919050565b600082825260208201905092915050565b6000610be582610c5b565b9150610bf083610c5b565b925082610c0057610bff610d82565b5b828204905092915050565b6000610c1682610c3b565b9050919050565b6000610c2882610c3b565b9050919050565b60008115159050919050565b600073ffffffffffffffffffffffffffffffffffffffff82169050919050565b6000819050919050565b82818337600083830152505050565b60005b83811015610c92578082015181840152602081019050610c77565b83811115610ca1576000848401525b50505050565b60006002820490506001821680610cbf57607f821691505b60208210811415610cd357610cd2610db1565b5b50919050565b610ce282610e52565b810181811067ffffffffffffffff82111715610d0157610d00610e0f565b5b80604052505050565b6000610d1582610c5b565b91507fffffffffffffffffffffffffffffffffffffffffffffffffffffffffffffffff821415610d4857610d47610d53565b5b600182019050919050565b7f4e487b7100000000000000000000000000000000000000000000000000000000600052601160045260246000fd5b7f4e487b7100000000000000000000000000000000000000000000000000000000600052601260045260246000fd5b7f4e487b7100000000000000000000000000000000000000000000000000000000600052602260045260246000fd5b7f4e487b7100000000000000000000000000000000000000000000000000000000600052603260045260246000fd5b7f4e487b7100000000000000000000000000000000000000000000000000000000600052604160045260246000fd5b600080fd5b600080fd5b600080fd5b600080fd5b6000601f19601f8301169050919050565b610e6c81610c0b565b8114610e7757600080fd5b50565b610e8381610c1d565b8114610e8e57600080fd5b50565b610e9a81610c5b565b8114610ea557600080fd5b5056fea26469706673582212200654301d503bf5380a03605d50576c44abcc9dae2373e0b9a9f020b59ce64dd564736f6c63430008070033a264697066735822122043319e34b4ef88a74a694ee705f784eb6ec938389c04b9feeace7395b0b1366e64736f6c63430008070033",
      "opcodes": "PUSH1 0x80 PUSH1 0x40 MSTORE CALLVALUE DUP1 ISZERO PUSH2 0x10 JUMPI PUSH1 0x0 DUP1 REVERT JUMPDEST POP PUSH2 0x149E DUP1 PUSH2 0x20 PUSH1 0x0 CODECOPY PUSH1 0x0 RETURN INVALID PUSH1 0x80 PUSH1 0x40 MSTORE CALLVALUE DUP1 ISZERO PUSH2 0x10 JUMPI PUSH1 0x0 DUP1 REVERT JUMPDEST POP PUSH1 0x4 CALLDATASIZE LT PUSH2 0x41 JUMPI PUSH1 0x0 CALLDATALOAD PUSH1 0xE0 SHR DUP1 PUSH4 0x339D50A5 EQ PUSH2 0x46 JUMPI DUP1 PUSH4 0x5EAC0007 EQ PUSH2 0x76 JUMPI DUP1 PUSH4 0xA3303A75 EQ PUSH2 0x94 JUMPI JUMPDEST PUSH1 0x0 DUP1 REVERT JUMPDEST PUSH2 0x60 PUSH1 0x4 DUP1 CALLDATASIZE SUB DUP2 ADD SWAP1 PUSH2 0x5B SWAP2 SWAP1 PUSH2 0x240 JUMP JUMPDEST PUSH2 0xB0 JUMP JUMPDEST PUSH1 0x40 MLOAD PUSH2 0x6D SWAP2 SWAP1 PUSH2 0x310 JUMP JUMPDEST PUSH1 0x40 MLOAD DUP1 SWAP2 SUB SWAP1 RETURN JUMPDEST PUSH2 0x7E PUSH2 0xEF JUMP JUMPDEST PUSH1 0x40 MLOAD PUSH2 0x8B SWAP2 SWAP1 PUSH2 0x32B JUMP JUMPDEST PUSH1 0x40 MLOAD DUP1 SWAP2 SUB SWAP1 RETURN JUMPDEST PUSH2 0xAE PUSH1 0x4 DUP1 CALLDATASIZE SUB DUP2 ADD SWAP1 PUSH2 0xA9 SWAP2 SWAP1 PUSH2 0x240 JUMP JUMPDEST PUSH2 0x17D JUMP JUMPDEST STOP JUMPDEST PUSH1 0x0 DUP2 DUP2 SLOAD DUP2 LT PUSH2 0xC0 JUMPI PUSH1 0x0 DUP1 REVERT JUMPDEST SWAP1 PUSH1 0x0 MSTORE PUSH1 0x20 PUSH1 0x0 KECCAK256 ADD PUSH1 0x0 SWAP2 POP SLOAD SWAP1 PUSH2 0x100 EXP SWAP1 DIV PUSH20 0xFFFFFFFFFFFFFFFFFFFFFFFFFFFFFFFFFFFFFFFF AND DUP2 JUMP JUMPDEST PUSH1 0x60 PUSH1 0x0 DUP1 SLOAD DUP1 PUSH1 0x20 MUL PUSH1 0x20 ADD PUSH1 0x40 MLOAD SWAP1 DUP2 ADD PUSH1 0x40 MSTORE DUP1 SWAP3 SWAP2 SWAP1 DUP2 DUP2 MSTORE PUSH1 0x20 ADD DUP3 DUP1 SLOAD DUP1 ISZERO PUSH2 0x173 JUMPI PUSH1 0x20 MUL DUP3 ADD SWAP2 SWAP1 PUSH1 0x0 MSTORE PUSH1 0x20 PUSH1 0x0 KECCAK256 SWAP1 JUMPDEST DUP2 PUSH1 0x0 SWAP1 SLOAD SWAP1 PUSH2 0x100 EXP SWAP1 DIV PUSH20 0xFFFFFFFFFFFFFFFFFFFFFFFFFFFFFFFFFFFFFFFF AND PUSH20 0xFFFFFFFFFFFFFFFFFFFFFFFFFFFFFFFFFFFFFFFF AND DUP2 MSTORE PUSH1 0x20 ADD SWAP1 PUSH1 0x1 ADD SWAP1 DUP1 DUP4 GT PUSH2 0x129 JUMPI JUMPDEST POP POP POP POP POP SWAP1 POP SWAP1 JUMP JUMPDEST PUSH1 0x0 DUP2 CALLER PUSH1 0x40 MLOAD PUSH2 0x18D SWAP1 PUSH2 0x21E JUMP JUMPDEST PUSH2 0x198 SWAP3 SWAP2 SWAP1 PUSH2 0x34D JUMP JUMPDEST PUSH1 0x40 MLOAD DUP1 SWAP2 SUB SWAP1 PUSH1 0x0 CREATE DUP1 ISZERO DUP1 ISZERO PUSH2 0x1B4 JUMPI RETURNDATASIZE PUSH1 0x0 DUP1 RETURNDATACOPY RETURNDATASIZE PUSH1 0x0 REVERT JUMPDEST POP SWAP1 POP PUSH1 0x0 DUP2 SWAP1 DUP1 PUSH1 0x1 DUP2 SLOAD ADD DUP1 DUP3 SSTORE DUP1 SWAP2 POP POP PUSH1 0x1 SWAP1 SUB SWAP1 PUSH1 0x0 MSTORE PUSH1 0x20 PUSH1 0x0 KECCAK256 ADD PUSH1 0x0 SWAP1 SWAP2 SWAP1 SWAP2 SWAP1 SWAP2 PUSH2 0x100 EXP DUP2 SLOAD DUP2 PUSH20 0xFFFFFFFFFFFFFFFFFFFFFFFFFFFFFFFFFFFFFFFF MUL NOT AND SWAP1 DUP4 PUSH20 0xFFFFFFFFFFFFFFFFFFFFFFFFFFFFFFFFFFFFFFFF AND MUL OR SWAP1 SSTORE POP POP POP JUMP JUMPDEST PUSH2 0x1061 DUP1 PUSH2 0x408 DUP4 CODECOPY ADD SWAP1 JUMP JUMPDEST PUSH1 0x0 DUP2 CALLDATALOAD SWAP1 POP PUSH2 0x23A DUP2 PUSH2 0x3F0 JUMP JUMPDEST SWAP3 SWAP2 POP POP JUMP JUMPDEST PUSH1 0x0 PUSH1 0x20 DUP3 DUP5 SUB SLT ISZERO PUSH2 0x256 JUMPI PUSH2 0x255 PUSH2 0x3EB JUMP JUMPDEST JUMPDEST PUSH1 0x0 PUSH2 0x264 DUP5 DUP3 DUP6 ADD PUSH2 0x22B JUMP JUMPDEST SWAP2 POP POP SWAP3 SWAP2 POP POP JUMP JUMPDEST PUSH1 0x0 PUSH2 0x279 DUP4 DUP4 PUSH2 0x285 JUMP JUMPDEST PUSH1 0x20 DUP4 ADD SWAP1 POP SWAP3 SWAP2 POP POP JUMP JUMPDEST PUSH2 0x28E DUP2 PUSH2 0x3AF JUMP JUMPDEST DUP3 MSTORE POP POP JUMP JUMPDEST PUSH2 0x29D DUP2 PUSH2 0x3AF JUMP JUMPDEST DUP3 MSTORE POP POP JUMP JUMPDEST PUSH1 0x0 PUSH2 0x2AE DUP3 PUSH2 0x386 JUMP JUMPDEST PUSH2 0x2B8 DUP2 DUP6 PUSH2 0x39E JUMP JUMPDEST SWAP4 POP PUSH2 0x2C3 DUP4 PUSH2 0x376 JUMP JUMPDEST DUP1 PUSH1 0x0 JUMPDEST DUP4 DUP2 LT ISZERO PUSH2 0x2F4 JUMPI DUP2 MLOAD PUSH2 0x2DB DUP9 DUP3 PUSH2 0x26D JUMP JUMPDEST SWAP8 POP PUSH2 0x2E6 DUP4 PUSH2 0x391 JUMP JUMPDEST SWAP3 POP POP PUSH1 0x1 DUP2 ADD SWAP1 POP PUSH2 0x2C7 JUMP JUMPDEST POP DUP6 SWAP4 POP POP POP POP SWAP3 SWAP2 POP POP JUMP JUMPDEST PUSH2 0x30A DUP2 PUSH2 0x3E1 JUMP JUMPDEST DUP3 MSTORE POP POP JUMP JUMPDEST PUSH1 0x0 PUSH1 0x20 DUP3 ADD SWAP1 POP PUSH2 0x325 PUSH1 0x0 DUP4 ADD DUP5 PUSH2 0x294 JUMP JUMPDEST SWAP3 SWAP2 POP POP JUMP JUMPDEST PUSH1 0x0 PUSH1 0x20 DUP3 ADD SWAP1 POP DUP2 DUP2 SUB PUSH1 0x0 DUP4 ADD MSTORE PUSH2 0x345 DUP2 DUP5 PUSH2 0x2A3 JUMP JUMPDEST SWAP1 POP SWAP3 SWAP2 POP POP JUMP JUMPDEST PUSH1 0x0 PUSH1 0x40 DUP3 ADD SWAP1 POP PUSH2 0x362 PUSH1 0x0 DUP4 ADD DUP6 PUSH2 0x301 JUMP JUMPDEST PUSH2 0x36F PUSH1 0x20 DUP4 ADD DUP5 PUSH2 0x294 JUMP JUMPDEST SWAP4 SWAP3 POP POP POP JUMP JUMPDEST PUSH1 0x0 DUP2 SWAP1 POP PUSH1 0x20 DUP3 ADD SWAP1 POP SWAP2 SWAP1 POP JUMP JUMPDEST PUSH1 0x0 DUP2 MLOAD SWAP1 POP SWAP2 SWAP1 POP JUMP JUMPDEST PUSH1 0x0 PUSH1 0x20 DUP3 ADD SWAP1 POP SWAP2 SWAP1 POP JUMP JUMPDEST PUSH1 0x0 DUP3 DUP3 MSTORE PUSH1 0x20 DUP3 ADD SWAP1 POP SWAP3 SWAP2 POP POP JUMP JUMPDEST PUSH1 0x0 PUSH2 0x3BA DUP3 PUSH2 0x3C1 JUMP JUMPDEST SWAP1 POP SWAP2 SWAP1 POP JUMP JUMPDEST PUSH1 0x0 PUSH20 0xFFFFFFFFFFFFFFFFFFFFFFFFFFFFFFFFFFFFFFFF DUP3 AND SWAP1 POP SWAP2 SWAP1 POP JUMP JUMPDEST PUSH1 0x0 DUP2 SWAP1 POP SWAP2 SWAP1 POP JUMP JUMPDEST PUSH1 0x0 DUP1 REVERT JUMPDEST PUSH2 0x3F9 DUP2 PUSH2 0x3E1 JUMP JUMPDEST DUP2 EQ PUSH2 0x404 JUMPI PUSH1 0x0 DUP1 REVERT JUMPDEST POP JUMP INVALID PUSH1 0x80 PUSH1 0x40 MSTORE CALLVALUE DUP1 ISZERO PUSH3 0x11 JUMPI PUSH1 0x0 DUP1 REVERT JUMPDEST POP PUSH1 0x40 MLOAD PUSH3 0x1061 CODESIZE SUB DUP1 PUSH3 0x1061 DUP4 CODECOPY DUP2 DUP2 ADD PUSH1 0x40 MSTORE DUP2 ADD SWAP1 PUSH3 0x37 SWAP2 SWAP1 PUSH3 0xB5 JUMP JUMPDEST DUP1 PUSH1 0x2 PUSH1 0x0 PUSH2 0x100 EXP DUP2 SLOAD DUP2 PUSH20 0xFFFFFFFFFFFFFFFFFFFFFFFFFFFFFFFFFFFFFFFF MUL NOT AND SWAP1 DUP4 PUSH20 0xFFFFFFFFFFFFFFFFFFFFFFFFFFFFFFFFFFFFFFFF AND MUL OR SWAP1 SSTORE POP DUP2 PUSH1 0x3 DUP2 SWAP1 SSTORE POP POP POP PUSH3 0x173 JUMP JUMPDEST PUSH1 0x0 DUP2 MLOAD SWAP1 POP PUSH3 0x98 DUP2 PUSH3 0x13F JUMP JUMPDEST SWAP3 SWAP2 POP POP JUMP JUMPDEST PUSH1 0x0 DUP2 MLOAD SWAP1 POP PUSH3 0xAF DUP2 PUSH3 0x159 JUMP JUMPDEST SWAP3 SWAP2 POP POP JUMP JUMPDEST PUSH1 0x0 DUP1 PUSH1 0x40 DUP4 DUP6 SUB SLT ISZERO PUSH3 0xCF JUMPI PUSH3 0xCE PUSH3 0x13A JUMP JUMPDEST JUMPDEST PUSH1 0x0 PUSH3 0xDF DUP6 DUP3 DUP7 ADD PUSH3 0x9E JUMP JUMPDEST SWAP3 POP POP PUSH1 0x20 PUSH3 0xF2 DUP6 DUP3 DUP7 ADD PUSH3 0x87 JUMP JUMPDEST SWAP2 POP POP SWAP3 POP SWAP3 SWAP1 POP JUMP JUMPDEST PUSH1 0x0 PUSH3 0x109 DUP3 PUSH3 0x110 JUMP JUMPDEST SWAP1 POP SWAP2 SWAP1 POP JUMP JUMPDEST PUSH1 0x0 PUSH20 0xFFFFFFFFFFFFFFFFFFFFFFFFFFFFFFFFFFFFFFFF DUP3 AND SWAP1 POP SWAP2 SWAP1 POP JUMP JUMPDEST PUSH1 0x0 DUP2 SWAP1 POP SWAP2 SWAP1 POP JUMP JUMPDEST PUSH1 0x0 DUP1 REVERT JUMPDEST PUSH3 0x14A DUP2 PUSH3 0xFC JUMP JUMPDEST DUP2 EQ PUSH3 0x156 JUMPI PUSH1 0x0 DUP1 REVERT JUMPDEST POP JUMP JUMPDEST PUSH3 0x164 DUP2 PUSH3 0x130 JUMP JUMPDEST DUP2 EQ PUSH3 0x170 JUMPI PUSH1 0x0 DUP1 REVERT JUMPDEST POP JUMP JUMPDEST PUSH2 0xEDE DUP1 PUSH3 0x183 PUSH1 0x0 CODECOPY PUSH1 0x0 RETURN INVALID PUSH1 0x80 PUSH1 0x40 MSTORE PUSH1 0x4 CALLDATASIZE LT PUSH2 0x86 JUMPI PUSH1 0x0 CALLDATALOAD PUSH1 0xE0 SHR DUP1 PUSH4 0x8A9CFD55 GT PUSH2 0x59 JUMPI DUP1 PUSH4 0x8A9CFD55 EQ PUSH2 0x14B JUMPI DUP1 PUSH4 0x937E09B1 EQ PUSH2 0x174 JUMPI DUP1 PUSH4 0xD24F8CDD EQ PUSH2 0x19F JUMPI DUP1 PUSH4 0xD7BB99BA EQ PUSH2 0x1DC JUMPI DUP1 PUSH4 0xD7D1BBDB EQ PUSH2 0x1E6 JUMPI PUSH2 0x86 JUMP JUMPDEST DUP1 PUSH4 0x3441006 EQ PUSH2 0x8B JUMPI DUP1 PUSH4 0x481C6A75 EQ PUSH2 0xB4 JUMPI DUP1 PUSH4 0x72E87168 EQ PUSH2 0xDF JUMPI DUP1 PUSH4 0x81D12C58 EQ PUSH2 0x10A JUMPI JUMPDEST PUSH1 0x0 DUP1 REVERT JUMPDEST CALLVALUE DUP1 ISZERO PUSH2 0x97 JUMPI PUSH1 0x0 DUP1 REVERT JUMPDEST POP PUSH2 0xB2 PUSH1 0x4 DUP1 CALLDATASIZE SUB DUP2 ADD SWAP1 PUSH2 0xAD SWAP2 SWAP1 PUSH2 0xA1B JUMP JUMPDEST PUSH2 0x20F JUMP JUMPDEST STOP JUMPDEST CALLVALUE DUP1 ISZERO PUSH2 0xC0 JUMPI PUSH1 0x0 DUP1 REVERT JUMPDEST POP PUSH2 0xC9 PUSH2 0x358 JUMP JUMPDEST PUSH1 0x40 MLOAD PUSH2 0xD6 SWAP2 SWAP1 PUSH2 0xABD JUMP JUMPDEST PUSH1 0x40 MLOAD DUP1 SWAP2 SUB SWAP1 RETURN JUMPDEST CALLVALUE DUP1 ISZERO PUSH2 0xEB JUMPI PUSH1 0x0 DUP1 REVERT JUMPDEST POP PUSH2 0xF4 PUSH2 0x37E JUMP JUMPDEST PUSH1 0x40 MLOAD PUSH2 0x101 SWAP2 SWAP1 PUSH2 0xB4D JUMP JUMPDEST PUSH1 0x40 MLOAD DUP1 SWAP2 SUB SWAP1 RETURN JUMPDEST CALLVALUE DUP1 ISZERO PUSH2 0x116 JUMPI PUSH1 0x0 DUP1 REVERT JUMPDEST POP PUSH2 0x131 PUSH1 0x4 DUP1 CALLDATASIZE SUB DUP2 ADD SWAP1 PUSH2 0x12C SWAP2 SWAP1 PUSH2 0xA1B JUMP JUMPDEST PUSH2 0x384 JUMP JUMPDEST PUSH1 0x40 MLOAD PUSH2 0x142 SWAP6 SWAP5 SWAP4 SWAP3 SWAP2 SWAP1 PUSH2 0xAF3 JUMP JUMPDEST PUSH1 0x40 MLOAD DUP1 SWAP2 SUB SWAP1 RETURN JUMPDEST CALLVALUE DUP1 ISZERO PUSH2 0x157 JUMPI PUSH1 0x0 DUP1 REVERT JUMPDEST POP PUSH2 0x172 PUSH1 0x4 DUP1 CALLDATASIZE SUB DUP2 ADD SWAP1 PUSH2 0x16D SWAP2 SWAP1 PUSH2 0x9AC JUMP JUMPDEST PUSH2 0x47F JUMP JUMPDEST STOP JUMPDEST CALLVALUE DUP1 ISZERO PUSH2 0x180 JUMPI PUSH1 0x0 DUP1 REVERT JUMPDEST POP PUSH2 0x189 PUSH2 0x640 JUMP JUMPDEST PUSH1 0x40 MLOAD PUSH2 0x196 SWAP2 SWAP1 PUSH2 0xB4D JUMP JUMPDEST PUSH1 0x40 MLOAD DUP1 SWAP2 SUB SWAP1 RETURN JUMPDEST CALLVALUE DUP1 ISZERO PUSH2 0x1AB JUMPI PUSH1 0x0 DUP1 REVERT JUMPDEST POP PUSH2 0x1C6 PUSH1 0x4 DUP1 CALLDATASIZE SUB DUP2 ADD SWAP1 PUSH2 0x1C1 SWAP2 SWAP1 PUSH2 0x97F JUMP JUMPDEST PUSH2 0x646 JUMP JUMPDEST PUSH1 0x40 MLOAD PUSH2 0x1D3 SWAP2 SWAP1 PUSH2 0xAD8 JUMP JUMPDEST PUSH1 0x40 MLOAD DUP1 SWAP2 SUB SWAP1 RETURN JUMPDEST PUSH2 0x1E4 PUSH2 0x666 JUMP JUMPDEST STOP JUMPDEST CALLVALUE DUP1 ISZERO PUSH2 0x1F2 JUMPI PUSH1 0x0 DUP1 REVERT JUMPDEST POP PUSH2 0x20D PUSH1 0x4 DUP1 CALLDATASIZE SUB DUP2 ADD SWAP1 PUSH2 0x208 SWAP2 SWAP1 PUSH2 0xA1B JUMP JUMPDEST PUSH2 0x6E6 JUMP JUMPDEST STOP JUMPDEST PUSH1 0x2 PUSH1 0x0 SWAP1 SLOAD SWAP1 PUSH2 0x100 EXP SWAP1 DIV PUSH20 0xFFFFFFFFFFFFFFFFFFFFFFFFFFFFFFFFFFFFFFFF AND PUSH20 0xFFFFFFFFFFFFFFFFFFFFFFFFFFFFFFFFFFFFFFFF AND CALLER PUSH20 0xFFFFFFFFFFFFFFFFFFFFFFFFFFFFFFFFFFFFFFFF AND EQ PUSH2 0x269 JUMPI PUSH1 0x0 DUP1 REVERT JUMPDEST PUSH1 0x0 DUP1 DUP3 DUP2 SLOAD DUP2 LT PUSH2 0x27E JUMPI PUSH2 0x27D PUSH2 0xDE0 JUMP JUMPDEST JUMPDEST SWAP1 PUSH1 0x0 MSTORE PUSH1 0x20 PUSH1 0x0 KECCAK256 SWAP1 PUSH1 0x4 MUL ADD SWAP1 POP PUSH1 0x2 PUSH1 0x4 SLOAD PUSH2 0x29D SWAP2 SWAP1 PUSH2 0xBDA JUMP JUMPDEST DUP2 PUSH1 0x3 ADD SLOAD GT PUSH2 0x2AC JUMPI PUSH1 0x0 DUP1 REVERT JUMPDEST DUP1 PUSH1 0x2 ADD PUSH1 0x14 SWAP1 SLOAD SWAP1 PUSH2 0x100 EXP SWAP1 DIV PUSH1 0xFF AND ISZERO PUSH2 0x2C8 JUMPI PUSH1 0x0 DUP1 REVERT JUMPDEST DUP1 PUSH1 0x2 ADD PUSH1 0x0 SWAP1 SLOAD SWAP1 PUSH2 0x100 EXP SWAP1 DIV PUSH20 0xFFFFFFFFFFFFFFFFFFFFFFFFFFFFFFFFFFFFFFFF AND PUSH20 0xFFFFFFFFFFFFFFFFFFFFFFFFFFFFFFFFFFFFFFFF AND PUSH2 0x8FC DUP3 PUSH1 0x1 ADD SLOAD SWAP1 DUP2 ISZERO MUL SWAP1 PUSH1 0x40 MLOAD PUSH1 0x0 PUSH1 0x40 MLOAD DUP1 DUP4 SUB DUP2 DUP6 DUP9 DUP9 CALL SWAP4 POP POP POP POP ISZERO DUP1 ISZERO PUSH2 0x336 JUMPI RETURNDATASIZE PUSH1 0x0 DUP1 RETURNDATACOPY RETURNDATASIZE PUSH1 0x0 REVERT JUMPDEST POP PUSH1 0x1 DUP2 PUSH1 0x2 ADD PUSH1 0x14 PUSH2 0x100 EXP DUP2 SLOAD DUP2 PUSH1 0xFF MUL NOT AND SWAP1 DUP4 ISZERO ISZERO MUL OR SWAP1 SSTORE POP POP POP JUMP JUMPDEST PUSH1 0x2 PUSH1 0x0 SWAP1 SLOAD SWAP1 PUSH2 0x100 EXP SWAP1 DIV PUSH20 0xFFFFFFFFFFFFFFFFFFFFFFFFFFFFFFFFFFFFFFFF AND DUP2 JUMP JUMPDEST PUSH1 0x4 SLOAD DUP2 JUMP JUMPDEST PUSH1 0x0 DUP2 DUP2 SLOAD DUP2 LT PUSH2 0x394 JUMPI PUSH1 0x0 DUP1 REVERT JUMPDEST SWAP1 PUSH1 0x0 MSTORE PUSH1 0x20 PUSH1 0x0 KECCAK256 SWAP1 PUSH1 0x4 MUL ADD PUSH1 0x0 SWAP2 POP SWAP1 POP DUP1 PUSH1 0x0 ADD DUP1 SLOAD PUSH2 0x3B7 SWAP1 PUSH2 0xCA7 JUMP JUMPDEST DUP1 PUSH1 0x1F ADD PUSH1 0x20 DUP1 SWAP2 DIV MUL PUSH1 0x20 ADD PUSH1 0x40 MLOAD SWAP1 DUP2 ADD PUSH1 0x40 MSTORE DUP1 SWAP3 SWAP2 SWAP1 DUP2 DUP2 MSTORE PUSH1 0x20 ADD DUP3 DUP1 SLOAD PUSH2 0x3E3 SWAP1 PUSH2 0xCA7 JUMP JUMPDEST DUP1 ISZERO PUSH2 0x430 JUMPI DUP1 PUSH1 0x1F LT PUSH2 0x405 JUMPI PUSH2 0x100 DUP1 DUP4 SLOAD DIV MUL DUP4 MSTORE SWAP2 PUSH1 0x20 ADD SWAP2 PUSH2 0x430 JUMP JUMPDEST DUP3 ADD SWAP2 SWAP1 PUSH1 0x0 MSTORE PUSH1 0x20 PUSH1 0x0 KECCAK256 SWAP1 JUMPDEST DUP2 SLOAD DUP2 MSTORE SWAP1 PUSH1 0x1 ADD SWAP1 PUSH1 0x20 ADD DUP1 DUP4 GT PUSH2 0x413 JUMPI DUP3 SWAP1 SUB PUSH1 0x1F AND DUP3 ADD SWAP2 JUMPDEST POP POP POP POP POP SWAP1 DUP1 PUSH1 0x1 ADD SLOAD SWAP1 DUP1 PUSH1 0x2 ADD PUSH1 0x0 SWAP1 SLOAD SWAP1 PUSH2 0x100 EXP SWAP1 DIV PUSH20 0xFFFFFFFFFFFFFFFFFFFFFFFFFFFFFFFFFFFFFFFF AND SWAP1 DUP1 PUSH1 0x2 ADD PUSH1 0x14 SWAP1 SLOAD SWAP1 PUSH2 0x100 EXP SWAP1 DIV PUSH1 0xFF AND SWAP1 DUP1 PUSH1 0x3 ADD SLOAD SWAP1 POP DUP6 JUMP JUMPDEST PUSH1 0x2 PUSH1 0x0 SWAP1 SLOAD SWAP1 PUSH2 0x100 EXP SWAP1 DIV PUSH20 0xFFFFFFFFFFFFFFFFFFFFFFFFFFFFFFFFFFFFFFFF AND PUSH20 0xFFFFFFFFFFFFFFFFFFFFFFFFFFFFFFFFFFFFFFFF AND CALLER PUSH20 0xFFFFFFFFFFFFFFFFFFFFFFFFFFFFFFFFFFFFFFFF AND EQ PUSH2 0x4D9 JUMPI PUSH1 0x0 DUP1 REVERT JUMPDEST PUSH1 0x5 PUSH1 0x0 CALLER PUSH20 0xFFFFFFFFFFFFFFFFFFFFFFFFFFFFFFFFFFFFFFFF AND PUSH20 0xFFFFFFFFFFFFFFFFFFFFFFFFFFFFFFFFFFFFFFFF AND DUP2 MSTORE PUSH1 0x20 ADD SWAP1 DUP2 MSTORE PUSH1 0x20 ADD PUSH1 0x0 KECCAK256 PUSH1 0x0 SWAP1 SLOAD SWAP1 PUSH2 0x100 EXP SWAP1 DIV PUSH1 0xFF AND PUSH2 0x52F JUMPI PUSH1 0x0 DUP1 REVERT JUMPDEST PUSH1 0x0 PUSH1 0x40 MLOAD DUP1 PUSH1 0xA0 ADD PUSH1 0x40 MSTORE DUP1 DUP6 DUP2 MSTORE PUSH1 0x20 ADD DUP5 DUP2 MSTORE PUSH1 0x20 ADD DUP4 PUSH20 0xFFFFFFFFFFFFFFFFFFFFFFFFFFFFFFFFFFFFFFFF AND DUP2 MSTORE PUSH1 0x20 ADD PUSH1 0x0 ISZERO ISZERO DUP2 MSTORE PUSH1 0x20 ADD PUSH1 0x0 DUP2 MSTORE POP SWAP1 POP PUSH1 0x0 DUP2 SWAP1 DUP1 PUSH1 0x1 DUP2 SLOAD ADD DUP1 DUP3 SSTORE DUP1 SWAP2 POP POP PUSH1 0x1 SWAP1 SUB SWAP1 PUSH1 0x0 MSTORE PUSH1 0x20 PUSH1 0x0 KECCAK256 SWAP1 PUSH1 0x4 MUL ADD PUSH1 0x0 SWAP1 SWAP2 SWAP1 SWAP2 SWAP1 SWAP2 POP PUSH1 0x0 DUP3 ADD MLOAD DUP2 PUSH1 0x0 ADD SWAP1 DUP1 MLOAD SWAP1 PUSH1 0x20 ADD SWAP1 PUSH2 0x5BC SWAP3 SWAP2 SWAP1 PUSH2 0x82D JUMP JUMPDEST POP PUSH1 0x20 DUP3 ADD MLOAD DUP2 PUSH1 0x1 ADD SSTORE PUSH1 0x40 DUP3 ADD MLOAD DUP2 PUSH1 0x2 ADD PUSH1 0x0 PUSH2 0x100 EXP DUP2 SLOAD DUP2 PUSH20 0xFFFFFFFFFFFFFFFFFFFFFFFFFFFFFFFFFFFFFFFF MUL NOT AND SWAP1 DUP4 PUSH20 0xFFFFFFFFFFFFFFFFFFFFFFFFFFFFFFFFFFFFFFFF AND MUL OR SWAP1 SSTORE POP PUSH1 0x60 DUP3 ADD MLOAD DUP2 PUSH1 0x2 ADD PUSH1 0x14 PUSH2 0x100 EXP DUP2 SLOAD DUP2 PUSH1 0xFF MUL NOT AND SWAP1 DUP4 ISZERO ISZERO MUL OR SWAP1 SSTORE POP PUSH1 0x80 DUP3 ADD MLOAD DUP2 PUSH1 0x3 ADD SSTORE POP POP POP POP POP POP JUMP JUMPDEST PUSH1 0x3 SLOAD DUP2 JUMP JUMPDEST PUSH1 0x5 PUSH1 0x20 MSTORE DUP1 PUSH1 0x0 MSTORE PUSH1 0x40 PUSH1 0x0 KECCAK256 PUSH1 0x0 SWAP2 POP SLOAD SWAP1 PUSH2 0x100 EXP SWAP1 DIV PUSH1 0xFF AND DUP2 JUMP JUMPDEST PUSH1 0x3 SLOAD CALLVALUE GT PUSH2 0x674 JUMPI PUSH1 0x0 DUP1 REVERT JUMPDEST PUSH1 0x1 PUSH1 0x5 PUSH1 0x0 CALLER PUSH20 0xFFFFFFFFFFFFFFFFFFFFFFFFFFFFFFFFFFFFFFFF AND PUSH20 0xFFFFFFFFFFFFFFFFFFFFFFFFFFFFFFFFFFFFFFFF AND DUP2 MSTORE PUSH1 0x20 ADD SWAP1 DUP2 MSTORE PUSH1 0x20 ADD PUSH1 0x0 KECCAK256 PUSH1 0x0 PUSH2 0x100 EXP DUP2 SLOAD DUP2 PUSH1 0xFF MUL NOT AND SWAP1 DUP4 ISZERO ISZERO MUL OR SWAP1 SSTORE POP PUSH1 0x4 PUSH1 0x0 DUP2 SLOAD DUP1 SWAP3 SWAP2 SWAP1 PUSH2 0x6DF SWAP1 PUSH2 0xD0A JUMP JUMPDEST SWAP2 SWAP1 POP SSTORE POP JUMP JUMPDEST PUSH1 0x0 DUP1 DUP3 DUP2 SLOAD DUP2 LT PUSH2 0x6FB JUMPI PUSH2 0x6FA PUSH2 0xDE0 JUMP JUMPDEST JUMPDEST SWAP1 PUSH1 0x0 MSTORE PUSH1 0x20 PUSH1 0x0 KECCAK256 SWAP1 PUSH1 0x4 MUL ADD SWAP1 POP PUSH1 0x5 PUSH1 0x0 CALLER PUSH20 0xFFFFFFFFFFFFFFFFFFFFFFFFFFFFFFFFFFFFFFFF AND PUSH20 0xFFFFFFFFFFFFFFFFFFFFFFFFFFFFFFFFFFFFFFFF AND DUP2 MSTORE PUSH1 0x20 ADD SWAP1 DUP2 MSTORE PUSH1 0x20 ADD PUSH1 0x0 KECCAK256 PUSH1 0x0 SWAP1 SLOAD SWAP1 PUSH2 0x100 EXP SWAP1 DIV PUSH1 0xFF AND PUSH2 0x761 JUMPI PUSH1 0x0 DUP1 REVERT JUMPDEST PUSH1 0x1 PUSH1 0x0 CALLER PUSH20 0xFFFFFFFFFFFFFFFFFFFFFFFFFFFFFFFFFFFFFFFF AND PUSH20 0xFFFFFFFFFFFFFFFFFFFFFFFFFFFFFFFFFFFFFFFF AND DUP2 MSTORE PUSH1 0x20 ADD SWAP1 DUP2 MSTORE PUSH1 0x20 ADD PUSH1 0x0 KECCAK256 PUSH1 0x0 SWAP1 SLOAD SWAP1 PUSH2 0x100 EXP SWAP1 DIV PUSH1 0xFF AND ISZERO PUSH2 0x7B8 JUMPI PUSH1 0x0 DUP1 REVERT JUMPDEST PUSH1 0x1 DUP1 PUSH1 0x0 CALLER PUSH20 0xFFFFFFFFFFFFFFFFFFFFFFFFFFFFFFFFFFFFFFFF AND PUSH20 0xFFFFFFFFFFFFFFFFFFFFFFFFFFFFFFFFFFFFFFFF AND DUP2 MSTORE PUSH1 0x20 ADD SWAP1 DUP2 MSTORE PUSH1 0x20 ADD PUSH1 0x0 KECCAK256 PUSH1 0x0 PUSH2 0x100 EXP DUP2 SLOAD DUP2 PUSH1 0xFF MUL NOT AND SWAP1 DUP4 ISZERO ISZERO MUL OR SWAP1 SSTORE POP DUP1 PUSH1 0x3 ADD PUSH1 0x0 DUP2 SLOAD DUP1 SWAP3 SWAP2 SWAP1 PUSH2 0x824 SWAP1 PUSH2 0xD0A JUMP JUMPDEST SWAP2 SWAP1 POP SSTORE POP POP POP JUMP JUMPDEST DUP3 DUP1 SLOAD PUSH2 0x839 SWAP1 PUSH2 0xCA7 JUMP JUMPDEST SWAP1 PUSH1 0x0 MSTORE PUSH1 0x20 PUSH1 0x0 KECCAK256 SWAP1 PUSH1 0x1F ADD PUSH1 0x20 SWAP1 DIV DUP2 ADD SWAP3 DUP3 PUSH2 0x85B JUMPI PUSH1 0x0 DUP6 SSTORE PUSH2 0x8A2 JUMP JUMPDEST DUP3 PUSH1 0x1F LT PUSH2 0x874 JUMPI DUP1 MLOAD PUSH1 0xFF NOT AND DUP4 DUP1 ADD OR DUP6 SSTORE PUSH2 0x8A2 JUMP JUMPDEST DUP3 DUP1 ADD PUSH1 0x1 ADD DUP6 SSTORE DUP3 ISZERO PUSH2 0x8A2 JUMPI SWAP2 DUP3 ADD JUMPDEST DUP3 DUP2 GT ISZERO PUSH2 0x8A1 JUMPI DUP3 MLOAD DUP3 SSTORE SWAP2 PUSH1 0x20 ADD SWAP2 SWAP1 PUSH1 0x1 ADD SWAP1 PUSH2 0x886 JUMP JUMPDEST JUMPDEST POP SWAP1 POP PUSH2 0x8AF SWAP2 SWAP1 PUSH2 0x8B3 JUMP JUMPDEST POP SWAP1 JUMP JUMPDEST JUMPDEST DUP1 DUP3 GT ISZERO PUSH2 0x8CC JUMPI PUSH1 0x0 DUP2 PUSH1 0x0 SWAP1 SSTORE POP PUSH1 0x1 ADD PUSH2 0x8B4 JUMP JUMPDEST POP SWAP1 JUMP JUMPDEST PUSH1 0x0 PUSH2 0x8E3 PUSH2 0x8DE DUP5 PUSH2 0xB8D JUMP JUMPDEST PUSH2 0xB68 JUMP JUMPDEST SWAP1 POP DUP3 DUP2 MSTORE PUSH1 0x20 DUP2 ADD DUP5 DUP5 DUP5 ADD GT ISZERO PUSH2 0x8FF JUMPI PUSH2 0x8FE PUSH2 0xE43 JUMP JUMPDEST JUMPDEST PUSH2 0x90A DUP5 DUP3 DUP6 PUSH2 0xC65 JUMP JUMPDEST POP SWAP4 SWAP3 POP POP POP JUMP JUMPDEST PUSH1 0x0 DUP2 CALLDATALOAD SWAP1 POP PUSH2 0x921 DUP2 PUSH2 0xE63 JUMP JUMPDEST SWAP3 SWAP2 POP POP JUMP JUMPDEST PUSH1 0x0 DUP2 CALLDATALOAD SWAP1 POP PUSH2 0x936 DUP2 PUSH2 0xE7A JUMP JUMPDEST SWAP3 SWAP2 POP POP JUMP JUMPDEST PUSH1 0x0 DUP3 PUSH1 0x1F DUP4 ADD SLT PUSH2 0x951 JUMPI PUSH2 0x950 PUSH2 0xE3E JUMP JUMPDEST JUMPDEST DUP2 CALLDATALOAD PUSH2 0x961 DUP5 DUP3 PUSH1 0x20 DUP7 ADD PUSH2 0x8D0 JUMP JUMPDEST SWAP2 POP POP SWAP3 SWAP2 POP POP JUMP JUMPDEST PUSH1 0x0 DUP2 CALLDATALOAD SWAP1 POP PUSH2 0x979 DUP2 PUSH2 0xE91 JUMP JUMPDEST SWAP3 SWAP2 POP POP JUMP JUMPDEST PUSH1 0x0 PUSH1 0x20 DUP3 DUP5 SUB SLT ISZERO PUSH2 0x995 JUMPI PUSH2 0x994 PUSH2 0xE4D JUMP JUMPDEST JUMPDEST PUSH1 0x0 PUSH2 0x9A3 DUP5 DUP3 DUP6 ADD PUSH2 0x912 JUMP JUMPDEST SWAP2 POP POP SWAP3 SWAP2 POP POP JUMP JUMPDEST PUSH1 0x0 DUP1 PUSH1 0x0 PUSH1 0x60 DUP5 DUP7 SUB SLT ISZERO PUSH2 0x9C5 JUMPI PUSH2 0x9C4 PUSH2 0xE4D JUMP JUMPDEST JUMPDEST PUSH1 0x0 DUP5 ADD CALLDATALOAD PUSH8 0xFFFFFFFFFFFFFFFF DUP2 GT ISZERO PUSH2 0x9E3 JUMPI PUSH2 0x9E2 PUSH2 0xE48 JUMP JUMPDEST JUMPDEST PUSH2 0x9EF DUP7 DUP3 DUP8 ADD PUSH2 0x93C JUMP JUMPDEST SWAP4 POP POP PUSH1 0x20 PUSH2 0xA00 DUP7 DUP3 DUP8 ADD PUSH2 0x96A JUMP JUMPDEST SWAP3 POP POP PUSH1 0x40 PUSH2 0xA11 DUP7 DUP3 DUP8 ADD PUSH2 0x927 JUMP JUMPDEST SWAP2 POP POP SWAP3 POP SWAP3 POP SWAP3 JUMP JUMPDEST PUSH1 0x0 PUSH1 0x20 DUP3 DUP5 SUB SLT ISZERO PUSH2 0xA31 JUMPI PUSH2 0xA30 PUSH2 0xE4D JUMP JUMPDEST JUMPDEST PUSH1 0x0 PUSH2 0xA3F DUP5 DUP3 DUP6 ADD PUSH2 0x96A JUMP JUMPDEST SWAP2 POP POP SWAP3 SWAP2 POP POP JUMP JUMPDEST PUSH2 0xA51 DUP2 PUSH2 0xC1D JUMP JUMPDEST DUP3 MSTORE POP POP JUMP JUMPDEST PUSH2 0xA60 DUP2 PUSH2 0xC0B JUMP JUMPDEST DUP3 MSTORE POP POP JUMP JUMPDEST PUSH2 0xA6F DUP2 PUSH2 0xC2F JUMP JUMPDEST DUP3 MSTORE POP POP JUMP JUMPDEST PUSH1 0x0 PUSH2 0xA80 DUP3 PUSH2 0xBBE JUMP JUMPDEST PUSH2 0xA8A DUP2 DUP6 PUSH2 0xBC9 JUMP JUMPDEST SWAP4 POP PUSH2 0xA9A DUP2 DUP6 PUSH1 0x20 DUP7 ADD PUSH2 0xC74 JUMP JUMPDEST PUSH2 0xAA3 DUP2 PUSH2 0xE52 JUMP JUMPDEST DUP5 ADD SWAP2 POP POP SWAP3 SWAP2 POP POP JUMP JUMPDEST PUSH2 0xAB7 DUP2 PUSH2 0xC5B JUMP JUMPDEST DUP3 MSTORE POP POP JUMP JUMPDEST PUSH1 0x0 PUSH1 0x20 DUP3 ADD SWAP1 POP PUSH2 0xAD2 PUSH1 0x0 DUP4 ADD DUP5 PUSH2 0xA57 JUMP JUMPDEST SWAP3 SWAP2 POP POP JUMP JUMPDEST PUSH1 0x0 PUSH1 0x20 DUP3 ADD SWAP1 POP PUSH2 0xAED PUSH1 0x0 DUP4 ADD DUP5 PUSH2 0xA66 JUMP JUMPDEST SWAP3 SWAP2 POP POP JUMP JUMPDEST PUSH1 0x0 PUSH1 0xA0 DUP3 ADD SWAP1 POP DUP2 DUP2 SUB PUSH1 0x0 DUP4 ADD MSTORE PUSH2 0xB0D DUP2 DUP9 PUSH2 0xA75 JUMP JUMPDEST SWAP1 POP PUSH2 0xB1C PUSH1 0x20 DUP4 ADD DUP8 PUSH2 0xAAE JUMP JUMPDEST PUSH2 0xB29 PUSH1 0x40 DUP4 ADD DUP7 PUSH2 0xA48 JUMP JUMPDEST PUSH2 0xB36 PUSH1 0x60 DUP4 ADD DUP6 PUSH2 0xA66 JUMP JUMPDEST PUSH2 0xB43 PUSH1 0x80 DUP4 ADD DUP5 PUSH2 0xAAE JUMP JUMPDEST SWAP7 SWAP6 POP POP POP POP POP POP JUMP JUMPDEST PUSH1 0x0 PUSH1 0x20 DUP3 ADD SWAP1 POP PUSH2 0xB62 PUSH1 0x0 DUP4 ADD DUP5 PUSH2 0xAAE JUMP JUMPDEST SWAP3 SWAP2 POP POP JUMP JUMPDEST PUSH1 0x0 PUSH2 0xB72 PUSH2 0xB83 JUMP JUMPDEST SWAP1 POP PUSH2 0xB7E DUP3 DUP3 PUSH2 0xCD9 JUMP JUMPDEST SWAP2 SWAP1 POP JUMP JUMPDEST PUSH1 0x0 PUSH1 0x40 MLOAD SWAP1 POP SWAP1 JUMP JUMPDEST PUSH1 0x0 PUSH8 0xFFFFFFFFFFFFFFFF DUP3 GT ISZERO PUSH2 0xBA8 JUMPI PUSH2 0xBA7 PUSH2 0xE0F JUMP JUMPDEST JUMPDEST PUSH2 0xBB1 DUP3 PUSH2 0xE52 JUMP JUMPDEST SWAP1 POP PUSH1 0x20 DUP2 ADD SWAP1 POP SWAP2 SWAP1 POP JUMP JUMPDEST PUSH1 0x0 DUP2 MLOAD SWAP1 POP SWAP2 SWAP1 POP JUMP JUMPDEST PUSH1 0x0 DUP3 DUP3 MSTORE PUSH1 0x20 DUP3 ADD SWAP1 POP SWAP3 SWAP2 POP POP JUMP JUMPDEST PUSH1 0x0 PUSH2 0xBE5 DUP3 PUSH2 0xC5B JUMP JUMPDEST SWAP2 POP PUSH2 0xBF0 DUP4 PUSH2 0xC5B JUMP JUMPDEST SWAP3 POP DUP3 PUSH2 0xC00 JUMPI PUSH2 0xBFF PUSH2 0xD82 JUMP JUMPDEST JUMPDEST DUP3 DUP3 DIV SWAP1 POP SWAP3 SWAP2 POP POP JUMP JUMPDEST PUSH1 0x0 PUSH2 0xC16 DUP3 PUSH2 0xC3B JUMP JUMPDEST SWAP1 POP SWAP2 SWAP1 POP JUMP JUMPDEST PUSH1 0x0 PUSH2 0xC28 DUP3 PUSH2 0xC3B JUMP JUMPDEST SWAP1 POP SWAP2 SWAP1 POP JUMP JUMPDEST PUSH1 0x0 DUP2 ISZERO ISZERO SWAP1 POP SWAP2 SWAP1 POP JUMP JUMPDEST PUSH1 0x0 PUSH20 0xFFFFFFFFFFFFFFFFFFFFFFFFFFFFFFFFFFFFFFFF DUP3 AND SWAP1 POP SWAP2 SWAP1 POP JUMP JUMPDEST PUSH1 0x0 DUP2 SWAP1 POP SWAP2 SWAP1 POP JUMP JUMPDEST DUP3 DUP2 DUP4 CALLDATACOPY PUSH1 0x0 DUP4 DUP4 ADD MSTORE POP POP POP JUMP JUMPDEST PUSH1 0x0 JUMPDEST DUP4 DUP2 LT ISZERO PUSH2 0xC92 JUMPI DUP1 DUP3 ADD MLOAD DUP2 DUP5 ADD MSTORE PUSH1 0x20 DUP2 ADD SWAP1 POP PUSH2 0xC77 JUMP JUMPDEST DUP4 DUP2 GT ISZERO PUSH2 0xCA1 JUMPI PUSH1 0x0 DUP5 DUP5 ADD MSTORE JUMPDEST POP POP POP POP JUMP JUMPDEST PUSH1 0x0 PUSH1 0x2 DUP3 DIV SWAP1 POP PUSH1 0x1 DUP3 AND DUP1 PUSH2 0xCBF JUMPI PUSH1 0x7F DUP3 AND SWAP2 POP JUMPDEST PUSH1 0x20 DUP3 LT DUP2 EQ ISZERO PUSH2 0xCD3 JUMPI PUSH2 0xCD2 PUSH2 0xDB1 JUMP JUMPDEST JUMPDEST POP SWAP2 SWAP1 POP JUMP JUMPDEST PUSH2 0xCE2 DUP3 PUSH2 0xE52 JUMP JUMPDEST DUP2 ADD DUP2 DUP2 LT PUSH8 0xFFFFFFFFFFFFFFFF DUP3 GT OR ISZERO PUSH2 0xD01 JUMPI PUSH2 0xD00 PUSH2 0xE0F JUMP JUMPDEST JUMPDEST DUP1 PUSH1 0x40 MSTORE POP POP POP JUMP JUMPDEST PUSH1 0x0 PUSH2 0xD15 DUP3 PUSH2 0xC5B JUMP JUMPDEST SWAP2 POP PUSH32 0xFFFFFFFFFFFFFFFFFFFFFFFFFFFFFFFFFFFFFFFFFFFFFFFFFFFFFFFFFFFFFFFF DUP3 EQ ISZERO PUSH2 0xD48 JUMPI PUSH2 0xD47 PUSH2 0xD53 JUMP JUMPDEST JUMPDEST PUSH1 0x1 DUP3 ADD SWAP1 POP SWAP2 SWAP1 POP JUMP JUMPDEST PUSH32 0x4E487B7100000000000000000000000000000000000000000000000000000000 PUSH1 0x0 MSTORE PUSH1 0x11 PUSH1 0x4 MSTORE PUSH1 0x24 PUSH1 0x0 REVERT JUMPDEST PUSH32 0x4E487B7100000000000000000000000000000000000000000000000000000000 PUSH1 0x0 MSTORE PUSH1 0x12 PUSH1 0x4 MSTORE PUSH1 0x24 PUSH1 0x0 REVERT JUMPDEST PUSH32 0x4E487B7100000000000000000000000000000000000000000000000000000000 PUSH1 0x0 MSTORE PUSH1 0x22 PUSH1 0x4 MSTORE PUSH1 0x24 PUSH1 0x0 REVERT JUMPDEST PUSH32 0x4E487B7100000000000000000000000000000000000000000000000000000000 PUSH1 0x0 MSTORE PUSH1 0x32 PUSH1 0x4 MSTORE PUSH1 0x24 PUSH1 0x0 REVERT JUMPDEST PUSH32 0x4E487B7100000000000000000000000000000000000000000000000000000000 PUSH1 0x0 MSTORE PUSH1 0x41 PUSH1 0x4 MSTORE PUSH1 0x24 PUSH1 0x0 REVERT JUMPDEST PUSH1 0x0 DUP1 REVERT JUMPDEST PUSH1 0x0 DUP1 REVERT JUMPDEST PUSH1 0x0 DUP1 REVERT JUMPDEST PUSH1 0x0 DUP1 REVERT JUMPDEST PUSH1 0x0 PUSH1 0x1F NOT PUSH1 0x1F DUP4 ADD AND SWAP1 POP SWAP2 SWAP1 POP JUMP JUMPDEST PUSH2 0xE6C DUP2 PUSH2 0xC0B JUMP JUMPDEST DUP2 EQ PUSH2 0xE77 JUMPI PUSH1 0x0 DUP1 REVERT JUMPDEST POP JUMP JUMPDEST PUSH2 0xE83 DUP2 PUSH2 0xC1D JUMP JUMPDEST DUP2 EQ PUSH2 0xE8E JUMPI PUSH1 0x0 DUP1 REVERT JUMPDEST POP JUMP JUMPDEST PUSH2 0xE9A DUP2 PUSH2 0xC5B JUMP JUMPDEST DUP2 EQ PUSH2 0xEA5 JUMPI PUSH1 0x0 DUP1 REVERT JUMPDEST POP JUMP INVALID LOG2 PUSH5 0x6970667358 0x22 SLT KECCAK256 MOD SLOAD ADDRESS SAR POP EXTCODESIZE CREATE2 CODESIZE EXP SUB PUSH1 0x5D POP JUMPI PUSH13 0x44ABCC9DAE2373E0B9A9F020B5 SWAP13 0xE6 0x4D 0xD5 PUSH5 0x736F6C6343 STOP ADDMOD SMOD STOP CALLER LOG2 PUSH5 0x6970667358 0x22 SLT KECCAK256 NUMBER BALANCE SWAP15 CALLVALUE 0xB4 0xEF DUP9 0xA7 0x4A PUSH10 0x4EE705F784EB6EC93838 SWAP13 DIV 0xB9 INVALID 0xEA 0xCE PUSH20 0x95B0B1366E64736F6C6343000807003300000000 "
    },
    "gasEstimates": {
      "creation": {
        "codeDepositCost": "1055600",
        "executionCost": "1094",
        "totalCost": "1056694"
      },
      "external": {
        "createCampaign(uint256)": "infinite",
        "deployedCampaigns(uint256)": "4934",
        "getDeployedCampaign()": "infinite"
      }
    },
    "methodIdentifiers": {
      "createCampaign(uint256)": "a3303a75",
      "deployedCampaigns(uint256)": "339d50a5",
      "getDeployedCampaign()": "5eac0007"
    }
  },
  "storageLayout": {
    "storage": [
      {
        "astId": 4,
        "contract": "Campaign.sol:CampaignFactory",
        "label": "deployedCampaigns",
        "offset": 0,
        "slot": "0",
        "type": "t_array(t_address)dyn_storage"
      }
    ],
    "types": {
      "t_address": {
        "encoding": "inplace",
        "label": "address",
        "numberOfBytes": "20"
      },
      "t_array(t_address)dyn_storage": {
        "base": "t_address",
        "encoding": "dynamic_array",
        "label": "address[]",
        "numberOfBytes": "32"
      }
    }
  },
  "userdoc": {
    "kind": "user",
    "methods": {},
    "version": 1
  }
}