{
  "abi": [
    {
      "inputs": [],
      "name": "campaignsCount",
      "outputs": [
        {
          "internalType": "uint256",
          "name": "",
          "type": "uint256"
        }
      ],
      "stateMutability": "view",
      "type": "function"
    },
    {
      "inputs": [
        {
          "internalType": "uint256",
          "name": "minimum",
          "type": "uint256"
        }
      ],
      "name": "createCampaign",
      "outputs": [],
      "stateMutability": "nonpayable",
      "type": "function"
    },
    {
      "inputs": [
        {
          "internalType": "uint256",
          "name": "",
          "type": "uint256"
        }
      ],
      "name": "deployedCampaigns",
      "outputs": [
        {
          "internalType": "address",
          "name": "",
          "type": "address"
        }
      ],
      "stateMutability": "view",
      "type": "function"
    },
    {
      "inputs": [],
      "name": "getCampaignCounts",
      "outputs": [
        {
          "internalType": "uint256",
          "name": "",
          "type": "uint256"
        }
      ],
      "stateMutability": "view",
      "type": "function"
    },
    {
      "inputs": [
        {
          "internalType": "uint256",
          "name": "index",
          "type": "uint256"
        }
      ],
      "name": "getDeployedCampaign",
      "outputs": [
        {
          "internalType": "address",
          "name": "",
          "type": "address"
        }
      ],
      "stateMutability": "view",
      "type": "function"
    }
  ],
  "devdoc": {
    "kind": "dev",
    "methods": {},
    "version": 1
  },
  "evm": {
    "assembly": "    /* \"Campaign.sol\":69:860  contract CampaignFactory{... */\n  mstore(0x40, 0x80)\n  callvalue\n  dup1\n  iszero\n  tag_1\n  jumpi\n  0x00\n  dup1\n  revert\ntag_1:\n  pop\n  dataSize(sub_0)\n  dup1\n  dataOffset(sub_0)\n  0x00\n  codecopy\n  0x00\n  return\nstop\n\nsub_0: assembly {\n        /* \"Campaign.sol\":69:860  contract CampaignFactory{... */\n      mstore(0x40, 0x80)\n      callvalue\n      dup1\n      iszero\n      tag_1\n      jumpi\n      0x00\n      dup1\n      revert\n    tag_1:\n      pop\n      jumpi(tag_2, lt(calldatasize, 0x04))\n      shr(0xe0, calldataload(0x00))\n      dup1\n      0x07399b26\n      eq\n      tag_3\n      jumpi\n      dup1\n      0x339d50a5\n      eq\n      tag_4\n      jumpi\n      dup1\n      0x44c89b65\n      eq\n      tag_5\n      jumpi\n      dup1\n      0x51b53e07\n      eq\n      tag_6\n      jumpi\n      dup1\n      0xa3303a75\n      eq\n      tag_7\n      jumpi\n    tag_2:\n      0x00\n      dup1\n      revert\n        /* \"Campaign.sol\":637:755  function getDeployedCampaign(uint index) public view returns(address ){... */\n    tag_3:\n      tag_8\n      0x04\n      dup1\n      calldatasize\n      sub\n      dup2\n      add\n      swap1\n      tag_9\n      swap2\n      swap1\n      tag_10\n      jump\t// in\n    tag_9:\n      tag_11\n      jump\t// in\n    tag_8:\n      mload(0x40)\n      tag_12\n      swap2\n      swap1\n      tag_13\n      jump\t// in\n    tag_12:\n      mload(0x40)\n      dup1\n      swap2\n      sub\n      swap1\n      return\n        /* \"Campaign.sol\":95:129  address[] public deployedCampaigns */\n    tag_4:\n      tag_14\n      0x04\n      dup1\n      calldatasize\n      sub\n      dup2\n      add\n      swap1\n      tag_15\n      swap2\n      swap1\n      tag_10\n      jump\t// in\n    tag_15:\n      tag_16\n      jump\t// in\n    tag_14:\n      mload(0x40)\n      tag_17\n      swap2\n      swap1\n      tag_13\n      jump\t// in\n    tag_17:\n      mload(0x40)\n      dup1\n      swap2\n      sub\n      swap1\n      return\n        /* \"Campaign.sol\":131:157  uint public campaignsCount */\n    tag_5:\n      tag_18\n      tag_19\n      jump\t// in\n    tag_18:\n      mload(0x40)\n      tag_20\n      swap2\n      swap1\n      tag_21\n      jump\t// in\n    tag_20:\n      mload(0x40)\n      dup1\n      swap2\n      sub\n      swap1\n      return\n        /* \"Campaign.sol\":761:853  function getCampaignCounts() public view returns(uint){... */\n    tag_6:\n      tag_22\n      tag_23\n      jump\t// in\n    tag_22:\n      mload(0x40)\n      tag_24\n      swap2\n      swap1\n      tag_21\n      jump\t// in\n    tag_24:\n      mload(0x40)\n      dup1\n      swap2\n      sub\n      swap1\n      return\n        /* \"Campaign.sol\":375:632  function createCampaign(uint minimum)public{... */\n    tag_7:\n      tag_25\n      0x04\n      dup1\n      calldatasize\n      sub\n      dup2\n      add\n      swap1\n      tag_26\n      swap2\n      swap1\n      tag_10\n      jump\t// in\n    tag_26:\n      tag_27\n      jump\t// in\n    tag_25:\n      stop\n        /* \"Campaign.sol\":637:755  function getDeployedCampaign(uint index) public view returns(address ){... */\n    tag_11:\n        /* \"Campaign.sol\":698:705  address */\n      0x00\n        /* \"Campaign.sol\":724:741  deployedCampaigns */\n      dup1\n        /* \"Campaign.sol\":742:747  index */\n      dup3\n        /* \"Campaign.sol\":724:748  deployedCampaigns[index] */\n      dup2\n      sload\n      dup2\n      lt\n      tag_29\n      jumpi\n      tag_30\n      tag_31\n      jump\t// in\n    tag_30:\n    tag_29:\n      swap1\n      0x00\n      mstore\n      keccak256(0x00, 0x20)\n      add\n      0x00\n      swap1\n      sload\n      swap1\n      0x0100\n      exp\n      swap1\n      div\n      0xffffffffffffffffffffffffffffffffffffffff\n      and\n        /* \"Campaign.sol\":717:748  return deployedCampaigns[index] */\n      swap1\n      pop\n        /* \"Campaign.sol\":637:755  function getDeployedCampaign(uint index) public view returns(address ){... */\n      swap2\n      swap1\n      pop\n      jump\t// out\n        /* \"Campaign.sol\":95:129  address[] public deployedCampaigns */\n    tag_16:\n      0x00\n      dup2\n      dup2\n      sload\n      dup2\n      lt\n      tag_33\n      jumpi\n      0x00\n      dup1\n      revert\n    tag_33:\n      swap1\n      0x00\n      mstore\n      keccak256(0x00, 0x20)\n      add\n      0x00\n      swap2\n      pop\n      sload\n      swap1\n      0x0100\n      exp\n      swap1\n      div\n      0xffffffffffffffffffffffffffffffffffffffff\n      and\n      dup2\n      jump\t// out\n        /* \"Campaign.sol\":131:157  uint public campaignsCount */\n    tag_19:\n      sload(0x01)\n      dup2\n      jump\t// out\n        /* \"Campaign.sol\":761:853  function getCampaignCounts() public view returns(uint){... */\n    tag_23:\n        /* \"Campaign.sol\":810:814  uint */\n      0x00\n        /* \"Campaign.sol\":832:846  campaignsCount */\n      sload(0x01)\n        /* \"Campaign.sol\":825:846  return campaignsCount */\n      swap1\n      pop\n        /* \"Campaign.sol\":761:853  function getCampaignCounts() public view returns(uint){... */\n      swap1\n      jump\t// out\n        /* \"Campaign.sol\":375:632  function createCampaign(uint minimum)public{... */\n    tag_27:\n        /* \"Campaign.sol\":491:511  Campaign newCampaign */\n      0x00\n        /* \"Campaign.sol\":525:532  minimum */\n      dup2\n        /* \"Campaign.sol\":533:543  msg.sender */\n      caller\n        /* \"Campaign.sol\":512:544  new Campaign(minimum,msg.sender) */\n      mload(0x40)\n      tag_37\n      swap1\n      tag_38\n      jump\t// in\n    tag_37:\n      tag_39\n      swap3\n      swap2\n      swap1\n      tag_40\n      jump\t// in\n    tag_39:\n      mload(0x40)\n      dup1\n      swap2\n      sub\n      swap1\n      0x00\n      create\n      dup1\n      iszero\n      dup1\n      iszero\n      tag_41\n      jumpi\n      returndatasize\n      0x00\n      dup1\n      returndatacopy\n      revert(0x00, returndatasize)\n    tag_41:\n      pop\n        /* \"Campaign.sol\":491:544  Campaign newCampaign=new Campaign(minimum,msg.sender) */\n      swap1\n      pop\n        /* \"Campaign.sol\":554:571  deployedCampaigns */\n      0x00\n        /* \"Campaign.sol\":585:596  newCampaign */\n      dup2\n        /* \"Campaign.sol\":554:598  deployedCampaigns.push(address(newCampaign)) */\n      swap1\n      dup1\n      0x01\n      dup2\n      sload\n      add\n      dup1\n      dup3\n      sstore\n      dup1\n      swap2\n      pop\n      pop\n      0x01\n      swap1\n      sub\n      swap1\n      0x00\n      mstore\n      keccak256(0x00, 0x20)\n      add\n      0x00\n      swap1\n      swap2\n      swap1\n      swap2\n      swap1\n      swap2\n      0x0100\n      exp\n      dup2\n      sload\n      dup2\n      0xffffffffffffffffffffffffffffffffffffffff\n      mul\n      not\n      and\n      swap1\n      dup4\n      0xffffffffffffffffffffffffffffffffffffffff\n      and\n      mul\n      or\n      swap1\n      sstore\n      pop\n        /* \"Campaign.sol\":608:622  campaignsCount */\n      0x01\n      0x00\n        /* \"Campaign.sol\":608:624  campaignsCount++ */\n      dup2\n      sload\n      dup1\n      swap3\n      swap2\n      swap1\n      tag_43\n      swap1\n      tag_44\n      jump\t// in\n    tag_43:\n      swap2\n      swap1\n      pop\n      sstore\n      pop\n        /* \"Campaign.sol\":418:632  {... */\n      pop\n        /* \"Campaign.sol\":375:632  function createCampaign(uint minimum)public{... */\n      pop\n      jump\t// out\n    tag_38:\n      dataSize(sub_0)\n      dup1\n      dataOffset(sub_0)\n      dup4\n      codecopy\n      add\n      swap1\n      jump\t// out\n        /* \"#utility.yul\":7:146   */\n    tag_46:\n        /* \"#utility.yul\":53:58   */\n      0x00\n        /* \"#utility.yul\":91:97   */\n      dup2\n        /* \"#utility.yul\":78:98   */\n      calldataload\n        /* \"#utility.yul\":69:98   */\n      swap1\n      pop\n        /* \"#utility.yul\":107:140   */\n      tag_48\n        /* \"#utility.yul\":134:139   */\n      dup2\n        /* \"#utility.yul\":107:140   */\n      tag_49\n      jump\t// in\n    tag_48:\n        /* \"#utility.yul\":7:146   */\n      swap3\n      swap2\n      pop\n      pop\n      jump\t// out\n        /* \"#utility.yul\":152:481   */\n    tag_10:\n        /* \"#utility.yul\":211:217   */\n      0x00\n        /* \"#utility.yul\":260:262   */\n      0x20\n        /* \"#utility.yul\":248:257   */\n      dup3\n        /* \"#utility.yul\":239:246   */\n      dup5\n        /* \"#utility.yul\":235:258   */\n      sub\n        /* \"#utility.yul\":231:263   */\n      slt\n        /* \"#utility.yul\":228:347   */\n      iszero\n      tag_51\n      jumpi\n        /* \"#utility.yul\":266:345   */\n      tag_52\n      tag_53\n      jump\t// in\n    tag_52:\n        /* \"#utility.yul\":228:347   */\n    tag_51:\n        /* \"#utility.yul\":386:387   */\n      0x00\n        /* \"#utility.yul\":411:464   */\n      tag_54\n        /* \"#utility.yul\":456:463   */\n      dup5\n        /* \"#utility.yul\":447:453   */\n      dup3\n        /* \"#utility.yul\":436:445   */\n      dup6\n        /* \"#utility.yul\":432:454   */\n      add\n        /* \"#utility.yul\":411:464   */\n      tag_46\n      jump\t// in\n    tag_54:\n        /* \"#utility.yul\":401:464   */\n      swap2\n      pop\n        /* \"#utility.yul\":357:474   */\n      pop\n        /* \"#utility.yul\":152:481   */\n      swap3\n      swap2\n      pop\n      pop\n      jump\t// out\n        /* \"#utility.yul\":487:605   */\n    tag_55:\n        /* \"#utility.yul\":574:598   */\n      tag_57\n        /* \"#utility.yul\":592:597   */\n      dup2\n        /* \"#utility.yul\":574:598   */\n      tag_58\n      jump\t// in\n    tag_57:\n        /* \"#utility.yul\":569:572   */\n      dup3\n        /* \"#utility.yul\":562:599   */\n      mstore\n        /* \"#utility.yul\":487:605   */\n      pop\n      pop\n      jump\t// out\n        /* \"#utility.yul\":611:729   */\n    tag_59:\n        /* \"#utility.yul\":698:722   */\n      tag_61\n        /* \"#utility.yul\":716:721   */\n      dup2\n        /* \"#utility.yul\":698:722   */\n      tag_62\n      jump\t// in\n    tag_61:\n        /* \"#utility.yul\":693:696   */\n      dup3\n        /* \"#utility.yul\":686:723   */\n      mstore\n        /* \"#utility.yul\":611:729   */\n      pop\n      pop\n      jump\t// out\n        /* \"#utility.yul\":735:957   */\n    tag_13:\n        /* \"#utility.yul\":828:832   */\n      0x00\n        /* \"#utility.yul\":866:868   */\n      0x20\n        /* \"#utility.yul\":855:864   */\n      dup3\n        /* \"#utility.yul\":851:869   */\n      add\n        /* \"#utility.yul\":843:869   */\n      swap1\n      pop\n        /* \"#utility.yul\":879:950   */\n      tag_64\n        /* \"#utility.yul\":947:948   */\n      0x00\n        /* \"#utility.yul\":936:945   */\n      dup4\n        /* \"#utility.yul\":932:949   */\n      add\n        /* \"#utility.yul\":923:929   */\n      dup5\n        /* \"#utility.yul\":879:950   */\n      tag_55\n      jump\t// in\n    tag_64:\n        /* \"#utility.yul\":735:957   */\n      swap3\n      swap2\n      pop\n      pop\n      jump\t// out\n        /* \"#utility.yul\":963:1185   */\n    tag_21:\n        /* \"#utility.yul\":1056:1060   */\n      0x00\n        /* \"#utility.yul\":1094:1096   */\n      0x20\n        /* \"#utility.yul\":1083:1092   */\n      dup3\n        /* \"#utility.yul\":1079:1097   */\n      add\n        /* \"#utility.yul\":1071:1097   */\n      swap1\n      pop\n        /* \"#utility.yul\":1107:1178   */\n      tag_66\n        /* \"#utility.yul\":1175:1176   */\n      0x00\n        /* \"#utility.yul\":1164:1173   */\n      dup4\n        /* \"#utility.yul\":1160:1177   */\n      add\n        /* \"#utility.yul\":1151:1157   */\n      dup5\n        /* \"#utility.yul\":1107:1178   */\n      tag_59\n      jump\t// in\n    tag_66:\n        /* \"#utility.yul\":963:1185   */\n      swap3\n      swap2\n      pop\n      pop\n      jump\t// out\n        /* \"#utility.yul\":1191:1523   */\n    tag_40:\n        /* \"#utility.yul\":1312:1316   */\n      0x00\n        /* \"#utility.yul\":1350:1352   */\n      0x40\n        /* \"#utility.yul\":1339:1348   */\n      dup3\n        /* \"#utility.yul\":1335:1353   */\n      add\n        /* \"#utility.yul\":1327:1353   */\n      swap1\n      pop\n        /* \"#utility.yul\":1363:1434   */\n      tag_68\n        /* \"#utility.yul\":1431:1432   */\n      0x00\n        /* \"#utility.yul\":1420:1429   */\n      dup4\n        /* \"#utility.yul\":1416:1433   */\n      add\n        /* \"#utility.yul\":1407:1413   */\n      dup6\n        /* \"#utility.yul\":1363:1434   */\n      tag_59\n      jump\t// in\n    tag_68:\n        /* \"#utility.yul\":1444:1516   */\n      tag_69\n        /* \"#utility.yul\":1512:1514   */\n      0x20\n        /* \"#utility.yul\":1501:1510   */\n      dup4\n        /* \"#utility.yul\":1497:1515   */\n      add\n        /* \"#utility.yul\":1488:1494   */\n      dup5\n        /* \"#utility.yul\":1444:1516   */\n      tag_55\n      jump\t// in\n    tag_69:\n        /* \"#utility.yul\":1191:1523   */\n      swap4\n      swap3\n      pop\n      pop\n      pop\n      jump\t// out\n        /* \"#utility.yul\":1610:1706   */\n    tag_58:\n        /* \"#utility.yul\":1647:1654   */\n      0x00\n        /* \"#utility.yul\":1676:1700   */\n      tag_73\n        /* \"#utility.yul\":1694:1699   */\n      dup3\n        /* \"#utility.yul\":1676:1700   */\n      tag_74\n      jump\t// in\n    tag_73:\n        /* \"#utility.yul\":1665:1700   */\n      swap1\n      pop\n        /* \"#utility.yul\":1610:1706   */\n      swap2\n      swap1\n      pop\n      jump\t// out\n        /* \"#utility.yul\":1712:1838   */\n    tag_74:\n        /* \"#utility.yul\":1749:1756   */\n      0x00\n        /* \"#utility.yul\":1789:1831   */\n      0xffffffffffffffffffffffffffffffffffffffff\n        /* \"#utility.yul\":1782:1787   */\n      dup3\n        /* \"#utility.yul\":1778:1832   */\n      and\n        /* \"#utility.yul\":1767:1832   */\n      swap1\n      pop\n        /* \"#utility.yul\":1712:1838   */\n      swap2\n      swap1\n      pop\n      jump\t// out\n        /* \"#utility.yul\":1844:1921   */\n    tag_62:\n        /* \"#utility.yul\":1881:1888   */\n      0x00\n        /* \"#utility.yul\":1910:1915   */\n      dup2\n        /* \"#utility.yul\":1899:1915   */\n      swap1\n      pop\n        /* \"#utility.yul\":1844:1921   */\n      swap2\n      swap1\n      pop\n      jump\t// out\n        /* \"#utility.yul\":1927:2160   */\n    tag_44:\n        /* \"#utility.yul\":1966:1969   */\n      0x00\n        /* \"#utility.yul\":1989:2013   */\n      tag_78\n        /* \"#utility.yul\":2007:2012   */\n      dup3\n        /* \"#utility.yul\":1989:2013   */\n      tag_62\n      jump\t// in\n    tag_78:\n        /* \"#utility.yul\":1980:2013   */\n      swap2\n      pop\n        /* \"#utility.yul\":2035:2101   */\n      0xffffffffffffffffffffffffffffffffffffffffffffffffffffffffffffffff\n        /* \"#utility.yul\":2028:2033   */\n      dup3\n        /* \"#utility.yul\":2025:2102   */\n      eq\n        /* \"#utility.yul\":2022:2125   */\n      iszero\n      tag_79\n      jumpi\n        /* \"#utility.yul\":2105:2123   */\n      tag_80\n      tag_81\n      jump\t// in\n    tag_80:\n        /* \"#utility.yul\":2022:2125   */\n    tag_79:\n        /* \"#utility.yul\":2152:2153   */\n      0x01\n        /* \"#utility.yul\":2145:2150   */\n      dup3\n        /* \"#utility.yul\":2141:2154   */\n      add\n        /* \"#utility.yul\":2134:2154   */\n      swap1\n      pop\n        /* \"#utility.yul\":1927:2160   */\n      swap2\n      swap1\n      pop\n      jump\t// out\n        /* \"#utility.yul\":2166:2346   */\n    tag_81:\n        /* \"#utility.yul\":2214:2291   */\n      0x4e487b7100000000000000000000000000000000000000000000000000000000\n        /* \"#utility.yul\":2211:2212   */\n      0x00\n        /* \"#utility.yul\":2204:2292   */\n      mstore\n        /* \"#utility.yul\":2311:2315   */\n      0x11\n        /* \"#utility.yul\":2308:2309   */\n      0x04\n        /* \"#utility.yul\":2301:2316   */\n      mstore\n        /* \"#utility.yul\":2335:2339   */\n      0x24\n        /* \"#utility.yul\":2332:2333   */\n      0x00\n        /* \"#utility.yul\":2325:2340   */\n      revert\n        /* \"#utility.yul\":2352:2532   */\n    tag_31:\n        /* \"#utility.yul\":2400:2477   */\n      0x4e487b7100000000000000000000000000000000000000000000000000000000\n        /* \"#utility.yul\":2397:2398   */\n      0x00\n        /* \"#utility.yul\":2390:2478   */\n      mstore\n        /* \"#utility.yul\":2497:2501   */\n      0x32\n        /* \"#utility.yul\":2494:2495   */\n      0x04\n        /* \"#utility.yul\":2487:2502   */\n      mstore\n        /* \"#utility.yul\":2521:2525   */\n      0x24\n        /* \"#utility.yul\":2518:2519   */\n      0x00\n        /* \"#utility.yul\":2511:2526   */\n      revert\n        /* \"#utility.yul\":2661:2778   */\n    tag_53:\n        /* \"#utility.yul\":2770:2771   */\n      0x00\n        /* \"#utility.yul\":2767:2768   */\n      dup1\n        /* \"#utility.yul\":2760:2772   */\n      revert\n        /* \"#utility.yul\":2784:2906   */\n    tag_49:\n        /* \"#utility.yul\":2857:2881   */\n      tag_88\n        /* \"#utility.yul\":2875:2880   */\n      dup2\n        /* \"#utility.yul\":2857:2881   */\n      tag_62\n      jump\t// in\n    tag_88:\n        /* \"#utility.yul\":2850:2855   */\n      dup2\n        /* \"#utility.yul\":2847:2882   */\n      eq\n        /* \"#utility.yul\":2837:2900   */\n      tag_89\n      jumpi\n        /* \"#utility.yul\":2896:2897   */\n      0x00\n        /* \"#utility.yul\":2893:2894   */\n      dup1\n        /* \"#utility.yul\":2886:2898   */\n      revert\n        /* \"#utility.yul\":2837:2900   */\n    tag_89:\n        /* \"#utility.yul\":2784:2906   */\n      pop\n      jump\t// out\n    stop\n\n    sub_0: assembly {\n            /* \"Campaign.sol\":862:4657  contract Campaign {... */\n          mstore(0x40, 0x80)\n            /* \"Campaign.sol\":1678:1975  constructor( uint minimum, address creator){... */\n          callvalue\n          dup1\n          iszero\n          tag_1\n          jumpi\n          0x00\n          dup1\n          revert\n        tag_1:\n          pop\n          mload(0x40)\n          sub(codesize, bytecodeSize)\n          dup1\n          bytecodeSize\n          dup4\n          codecopy\n          dup2\n          dup2\n          add\n          0x40\n          mstore\n          dup2\n          add\n          swap1\n          tag_2\n          swap2\n          swap1\n          tag_3\n          jump\t// in\n        tag_2:\n            /* \"Campaign.sol\":1924:1931  creator */\n          dup1\n            /* \"Campaign.sol\":1916:1923  manager */\n          0x02\n          0x00\n            /* \"Campaign.sol\":1916:1931  manager=creator */\n          0x0100\n          exp\n          dup2\n          sload\n          dup2\n          0xffffffffffffffffffffffffffffffffffffffff\n          mul\n          not\n          and\n          swap1\n          dup4\n          0xffffffffffffffffffffffffffffffffffffffff\n          and\n          mul\n          or\n          swap1\n          sstore\n          pop\n            /* \"Campaign.sol\":1961:1968  minimum */\n          dup2\n            /* \"Campaign.sol\":1941:1960  minimumContribution */\n          0x03\n            /* \"Campaign.sol\":1941:1968  minimumContribution=minimum */\n          dup2\n          swap1\n          sstore\n          pop\n            /* \"Campaign.sol\":1678:1975  constructor( uint minimum, address creator){... */\n          pop\n          pop\n            /* \"Campaign.sol\":862:4657  contract Campaign {... */\n          jump(tag_6)\n            /* \"#utility.yul\":7:150   */\n        tag_8:\n            /* \"#utility.yul\":64:69   */\n          0x00\n            /* \"#utility.yul\":95:101   */\n          dup2\n            /* \"#utility.yul\":89:102   */\n          mload\n            /* \"#utility.yul\":80:102   */\n          swap1\n          pop\n            /* \"#utility.yul\":111:144   */\n          tag_10\n            /* \"#utility.yul\":138:143   */\n          dup2\n            /* \"#utility.yul\":111:144   */\n          tag_11\n          jump\t// in\n        tag_10:\n            /* \"#utility.yul\":7:150   */\n          swap3\n          swap2\n          pop\n          pop\n          jump\t// out\n            /* \"#utility.yul\":156:299   */\n        tag_12:\n            /* \"#utility.yul\":213:218   */\n          0x00\n            /* \"#utility.yul\":244:250   */\n          dup2\n            /* \"#utility.yul\":238:251   */\n          mload\n            /* \"#utility.yul\":229:251   */\n          swap1\n          pop\n            /* \"#utility.yul\":260:293   */\n          tag_14\n            /* \"#utility.yul\":287:292   */\n          dup2\n            /* \"#utility.yul\":260:293   */\n          tag_15\n          jump\t// in\n        tag_14:\n            /* \"#utility.yul\":156:299   */\n          swap3\n          swap2\n          pop\n          pop\n          jump\t// out\n            /* \"#utility.yul\":305:812   */\n        tag_3:\n            /* \"#utility.yul\":384:390   */\n          0x00\n            /* \"#utility.yul\":392:398   */\n          dup1\n            /* \"#utility.yul\":441:443   */\n          0x40\n            /* \"#utility.yul\":429:438   */\n          dup4\n            /* \"#utility.yul\":420:427   */\n          dup6\n            /* \"#utility.yul\":416:439   */\n          sub\n            /* \"#utility.yul\":412:444   */\n          slt\n            /* \"#utility.yul\":409:528   */\n          iszero\n          tag_17\n          jumpi\n            /* \"#utility.yul\":447:526   */\n          tag_18\n          tag_19\n          jump\t// in\n        tag_18:\n            /* \"#utility.yul\":409:528   */\n        tag_17:\n            /* \"#utility.yul\":567:568   */\n          0x00\n            /* \"#utility.yul\":592:656   */\n          tag_20\n            /* \"#utility.yul\":648:655   */\n          dup6\n            /* \"#utility.yul\":639:645   */\n          dup3\n            /* \"#utility.yul\":628:637   */\n          dup7\n            /* \"#utility.yul\":624:646   */\n          add\n            /* \"#utility.yul\":592:656   */\n          tag_12\n          jump\t// in\n        tag_20:\n            /* \"#utility.yul\":582:656   */\n          swap3\n          pop\n            /* \"#utility.yul\":538:666   */\n          pop\n            /* \"#utility.yul\":705:707   */\n          0x20\n            /* \"#utility.yul\":731:795   */\n          tag_21\n            /* \"#utility.yul\":787:794   */\n          dup6\n            /* \"#utility.yul\":778:784   */\n          dup3\n            /* \"#utility.yul\":767:776   */\n          dup7\n            /* \"#utility.yul\":763:785   */\n          add\n            /* \"#utility.yul\":731:795   */\n          tag_8\n          jump\t// in\n        tag_21:\n            /* \"#utility.yul\":721:795   */\n          swap2\n          pop\n            /* \"#utility.yul\":676:805   */\n          pop\n            /* \"#utility.yul\":305:812   */\n          swap3\n          pop\n          swap3\n          swap1\n          pop\n          jump\t// out\n            /* \"#utility.yul\":899:995   */\n        tag_24:\n            /* \"#utility.yul\":936:943   */\n          0x00\n            /* \"#utility.yul\":965:989   */\n          tag_26\n            /* \"#utility.yul\":983:988   */\n          dup3\n            /* \"#utility.yul\":965:989   */\n          tag_27\n          jump\t// in\n        tag_26:\n            /* \"#utility.yul\":954:989   */\n          swap1\n          pop\n            /* \"#utility.yul\":899:995   */\n          swap2\n          swap1\n          pop\n          jump\t// out\n            /* \"#utility.yul\":1001:1127   */\n        tag_27:\n            /* \"#utility.yul\":1038:1045   */\n          0x00\n            /* \"#utility.yul\":1078:1120   */\n          0xffffffffffffffffffffffffffffffffffffffff\n            /* \"#utility.yul\":1071:1076   */\n          dup3\n            /* \"#utility.yul\":1067:1121   */\n          and\n            /* \"#utility.yul\":1056:1121   */\n          swap1\n          pop\n            /* \"#utility.yul\":1001:1127   */\n          swap2\n          swap1\n          pop\n          jump\t// out\n            /* \"#utility.yul\":1133:1210   */\n        tag_29:\n            /* \"#utility.yul\":1170:1177   */\n          0x00\n            /* \"#utility.yul\":1199:1204   */\n          dup2\n            /* \"#utility.yul\":1188:1204   */\n          swap1\n          pop\n            /* \"#utility.yul\":1133:1210   */\n          swap2\n          swap1\n          pop\n          jump\t// out\n            /* \"#utility.yul\":1339:1456   */\n        tag_19:\n            /* \"#utility.yul\":1448:1449   */\n          0x00\n            /* \"#utility.yul\":1445:1446   */\n          dup1\n            /* \"#utility.yul\":1438:1450   */\n          revert\n            /* \"#utility.yul\":1462:1584   */\n        tag_11:\n            /* \"#utility.yul\":1535:1559   */\n          tag_35\n            /* \"#utility.yul\":1553:1558   */\n          dup2\n            /* \"#utility.yul\":1535:1559   */\n          tag_24\n          jump\t// in\n        tag_35:\n            /* \"#utility.yul\":1528:1533   */\n          dup2\n            /* \"#utility.yul\":1525:1560   */\n          eq\n            /* \"#utility.yul\":1515:1578   */\n          tag_36\n          jumpi\n            /* \"#utility.yul\":1574:1575   */\n          0x00\n            /* \"#utility.yul\":1571:1572   */\n          dup1\n            /* \"#utility.yul\":1564:1576   */\n          revert\n            /* \"#utility.yul\":1515:1578   */\n        tag_36:\n            /* \"#utility.yul\":1462:1584   */\n          pop\n          jump\t// out\n            /* \"#utility.yul\":1590:1712   */\n        tag_15:\n            /* \"#utility.yul\":1663:1687   */\n          tag_38\n            /* \"#utility.yul\":1681:1686   */\n          dup2\n            /* \"#utility.yul\":1663:1687   */\n          tag_29\n          jump\t// in\n        tag_38:\n            /* \"#utility.yul\":1656:1661   */\n          dup2\n            /* \"#utility.yul\":1653:1688   */\n          eq\n            /* \"#utility.yul\":1643:1706   */\n          tag_39\n          jumpi\n            /* \"#utility.yul\":1702:1703   */\n          0x00\n            /* \"#utility.yul\":1699:1700   */\n          dup1\n            /* \"#utility.yul\":1692:1704   */\n          revert\n            /* \"#utility.yul\":1643:1706   */\n        tag_39:\n            /* \"#utility.yul\":1590:1712   */\n          pop\n          jump\t// out\n            /* \"Campaign.sol\":862:4657  contract Campaign {... */\n        tag_6:\n          dataSize(sub_0)\n          dup1\n          dataOffset(sub_0)\n          0x00\n          codecopy\n          0x00\n          return\n        stop\n\n        sub_0: assembly {\n                /* \"Campaign.sol\":862:4657  contract Campaign {... */\n              mstore(0x40, 0x80)\n              jumpi(tag_1, lt(calldatasize, 0x04))\n              shr(0xe0, calldataload(0x00))\n              dup1\n              0x81d12c58\n              gt\n              tag_13\n              jumpi\n              dup1\n              0x81d12c58\n              eq\n              tag_7\n              jumpi\n              dup1\n              0x8a9cfd55\n              eq\n              tag_8\n              jumpi\n              dup1\n              0x937e09b1\n              eq\n              tag_9\n              jumpi\n              dup1\n              0xd24f8cdd\n              eq\n              tag_10\n              jumpi\n              dup1\n              0xd7bb99ba\n              eq\n              tag_11\n              jumpi\n              dup1\n              0xd7d1bbdb\n              eq\n              tag_12\n              jumpi\n              jump(tag_1)\n            tag_13:\n              dup1\n              0x03441006\n              eq\n              tag_2\n              jumpi\n              dup1\n              0x3410452a\n              eq\n              tag_3\n              jumpi\n              dup1\n              0x4051ddac\n              eq\n              tag_4\n              jumpi\n              dup1\n              0x481c6a75\n              eq\n              tag_5\n              jumpi\n              dup1\n              0x72e87168\n              eq\n              tag_6\n              jumpi\n            tag_1:\n              0x00\n              dup1\n              revert\n                /* \"Campaign.sol\":3657:4090  function finalizeRequest(uint index) public restricted{... */\n            tag_2:\n              callvalue\n              dup1\n              iszero\n              tag_14\n              jumpi\n              0x00\n              dup1\n              revert\n            tag_14:\n              pop\n              tag_15\n              0x04\n              dup1\n              calldatasize\n              sub\n              dup2\n              add\n              swap1\n              tag_16\n              swap2\n              swap1\n              tag_17\n              jump\t// in\n            tag_16:\n              tag_18\n              jump\t// in\n            tag_15:\n              stop\n                /* \"Campaign.sol\":4562:4654  function getRequestsCount() public view returns(uint){... */\n            tag_3:\n              callvalue\n              dup1\n              iszero\n              tag_19\n              jumpi\n              0x00\n              dup1\n              revert\n            tag_19:\n              pop\n              tag_20\n              tag_21\n              jump\t// in\n            tag_20:\n              mload(0x40)\n              tag_22\n              swap2\n              swap1\n              tag_23\n              jump\t// in\n            tag_22:\n              mload(0x40)\n              dup1\n              swap2\n              sub\n              swap1\n              return\n                /* \"Campaign.sol\":4213:4465  function getSummary() public view returns (uint,uint,uint,uint,address){... */\n            tag_4:\n              callvalue\n              dup1\n              iszero\n              tag_24\n              jumpi\n              0x00\n              dup1\n              revert\n            tag_24:\n              pop\n              tag_25\n              tag_26\n              jump\t// in\n            tag_25:\n              mload(0x40)\n              tag_27\n              swap6\n              swap5\n              swap4\n              swap3\n              swap2\n              swap1\n              tag_28\n              jump\t// in\n            tag_27:\n              mload(0x40)\n              dup1\n              swap2\n              sub\n              swap1\n              return\n                /* \"Campaign.sol\":1354:1376  address public manager */\n            tag_5:\n              callvalue\n              dup1\n              iszero\n              tag_29\n              jumpi\n              0x00\n              dup1\n              revert\n            tag_29:\n              pop\n              tag_30\n              tag_31\n              jump\t// in\n            tag_30:\n              mload(0x40)\n              tag_32\n              swap2\n              swap1\n              tag_33\n              jump\t// in\n            tag_32:\n              mload(0x40)\n              dup1\n              swap2\n              sub\n              swap1\n              return\n                /* \"Campaign.sol\":1419:1444  uint public donatorsCount */\n            tag_6:\n              callvalue\n              dup1\n              iszero\n              tag_34\n              jumpi\n              0x00\n              dup1\n              revert\n            tag_34:\n              pop\n              tag_35\n              tag_36\n              jump\t// in\n            tag_35:\n              mload(0x40)\n              tag_37\n              swap2\n              swap1\n              tag_23\n              jump\t// in\n            tag_37:\n              mload(0x40)\n              dup1\n              swap2\n              sub\n              swap1\n              return\n                /* \"Campaign.sol\":1246:1271  Request[] public requests */\n            tag_7:\n              callvalue\n              dup1\n              iszero\n              tag_38\n              jumpi\n              0x00\n              dup1\n              revert\n            tag_38:\n              pop\n              tag_39\n              0x04\n              dup1\n              calldatasize\n              sub\n              dup2\n              add\n              swap1\n              tag_40\n              swap2\n              swap1\n              tag_17\n              jump\t// in\n            tag_40:\n              tag_41\n              jump\t// in\n            tag_39:\n              mload(0x40)\n              tag_42\n              swap6\n              swap5\n              swap4\n              swap3\n              swap2\n              swap1\n              tag_43\n              jump\t// in\n            tag_42:\n              mload(0x40)\n              dup1\n              swap2\n              sub\n              swap1\n              return\n                /* \"Campaign.sol\":2599:2997  function createRequest(string memory description, uint value, address payable recipient) public restricted{... */\n            tag_8:\n              callvalue\n              dup1\n              iszero\n              tag_44\n              jumpi\n              0x00\n              dup1\n              revert\n            tag_44:\n              pop\n              tag_45\n              0x04\n              dup1\n              calldatasize\n              sub\n              dup2\n              add\n              swap1\n              tag_46\n              swap2\n              swap1\n              tag_47\n              jump\t// in\n            tag_46:\n              tag_48\n              jump\t// in\n            tag_45:\n              stop\n                /* \"Campaign.sol\":1382:1413  uint public minimumContribution */\n            tag_9:\n              callvalue\n              dup1\n              iszero\n              tag_49\n              jumpi\n              0x00\n              dup1\n              revert\n            tag_49:\n              pop\n              tag_50\n              tag_51\n              jump\t// in\n            tag_50:\n              mload(0x40)\n              tag_52\n              swap2\n              swap1\n              tag_23\n              jump\t// in\n            tag_52:\n              mload(0x40)\n              dup1\n              swap2\n              sub\n              swap1\n              return\n                /* \"Campaign.sol\":1550:1588  mapping(address=>bool) public donators */\n            tag_10:\n              callvalue\n              dup1\n              iszero\n              tag_53\n              jumpi\n              0x00\n              dup1\n              revert\n            tag_53:\n              pop\n              tag_54\n              0x04\n              dup1\n              calldatasize\n              sub\n              dup2\n              add\n              swap1\n              tag_55\n              swap2\n              swap1\n              tag_56\n              jump\t// in\n            tag_55:\n              tag_57\n              jump\t// in\n            tag_54:\n              mload(0x40)\n              tag_58\n              swap2\n              swap1\n              tag_59\n              jump\t// in\n            tag_58:\n              mload(0x40)\n              dup1\n              swap2\n              sub\n              swap1\n              return\n                /* \"Campaign.sol\":2175:2386  function contribute() public payable{... */\n            tag_11:\n              tag_60\n              tag_61\n              jump\t// in\n            tag_60:\n              stop\n                /* \"Campaign.sol\":3182:3544  function approveRequest(uint index) public {... */\n            tag_12:\n              callvalue\n              dup1\n              iszero\n              tag_62\n              jumpi\n              0x00\n              dup1\n              revert\n            tag_62:\n              pop\n              tag_63\n              0x04\n              dup1\n              calldatasize\n              sub\n              dup2\n              add\n              swap1\n              tag_64\n              swap2\n              swap1\n              tag_17\n              jump\t// in\n            tag_64:\n              tag_65\n              jump\t// in\n            tag_63:\n              stop\n                /* \"Campaign.sol\":3657:4090  function finalizeRequest(uint index) public restricted{... */\n            tag_18:\n                /* \"Campaign.sol\":1647:1654  manager */\n              0x02\n              0x00\n              swap1\n              sload\n              swap1\n              0x0100\n              exp\n              swap1\n              div\n              0xffffffffffffffffffffffffffffffffffffffff\n              and\n                /* \"Campaign.sol\":1635:1654  msg.sender==manager */\n              0xffffffffffffffffffffffffffffffffffffffff\n              and\n                /* \"Campaign.sol\":1635:1645  msg.sender */\n              caller\n                /* \"Campaign.sol\":1635:1654  msg.sender==manager */\n              0xffffffffffffffffffffffffffffffffffffffff\n              and\n              eq\n                /* \"Campaign.sol\":1627:1655  require(msg.sender==manager) */\n              tag_67\n              jumpi\n              0x00\n              dup1\n              revert\n            tag_67:\n                /* \"Campaign.sol\":3805:3828  Request storage request */\n              0x00\n                /* \"Campaign.sol\":3829:3837  requests */\n              dup1\n                /* \"Campaign.sol\":3838:3843  index */\n              dup3\n                /* \"Campaign.sol\":3829:3844  requests[index] */\n              dup2\n              sload\n              dup2\n              lt\n              tag_69\n              jumpi\n              tag_70\n              tag_71\n              jump\t// in\n            tag_70:\n            tag_69:\n              swap1\n              0x00\n              mstore\n              keccak256(0x00, 0x20)\n              swap1\n              0x04\n              mul\n              add\n                /* \"Campaign.sol\":3805:3844  Request storage request=requests[index] */\n              swap1\n              pop\n                /* \"Campaign.sol\":3899:3900  2 */\n              0x02\n                /* \"Campaign.sol\":3885:3898  donatorsCount */\n              sload(0x04)\n                /* \"Campaign.sol\":3885:3900  donatorsCount/2 */\n              tag_73\n              swap2\n              swap1\n              tag_74\n              jump\t// in\n            tag_73:\n                /* \"Campaign.sol\":3862:3869  request */\n              dup2\n                /* \"Campaign.sol\":3862:3883  request.approvalCount */\n              0x03\n              add\n              sload\n                /* \"Campaign.sol\":3862:3901  request.approvalCount>(donatorsCount/2) */\n              gt\n                /* \"Campaign.sol\":3854:3902  require(request.approvalCount>(donatorsCount/2)) */\n              tag_75\n              jumpi\n              0x00\n              dup1\n              revert\n            tag_75:\n                /* \"Campaign.sol\":3921:3928  request */\n              dup1\n                /* \"Campaign.sol\":3921:3937  request.complete */\n              0x02\n              add\n              0x14\n              swap1\n              sload\n              swap1\n              0x0100\n              exp\n              swap1\n              div\n              0xff\n              and\n                /* \"Campaign.sol\":3920:3937  !request.complete */\n              iszero\n                /* \"Campaign.sol\":3912:3938  require(!request.complete) */\n              tag_76\n              jumpi\n              0x00\n              dup1\n              revert\n            tag_76:\n                /* \"Campaign.sol\":4008:4015  request */\n              dup1\n                /* \"Campaign.sol\":4008:4026  request.receipient */\n              0x02\n              add\n              0x00\n              swap1\n              sload\n              swap1\n              0x0100\n              exp\n              swap1\n              div\n              0xffffffffffffffffffffffffffffffffffffffff\n              and\n                /* \"Campaign.sol\":4008:4035  request.receipient.transfer */\n              0xffffffffffffffffffffffffffffffffffffffff\n              and\n                /* \"Campaign.sol\":4008:4050  request.receipient.transfer(request.value) */\n              0x08fc\n                /* \"Campaign.sol\":4036:4043  request */\n              dup3\n                /* \"Campaign.sol\":4036:4049  request.value */\n              0x01\n              add\n              sload\n                /* \"Campaign.sol\":4008:4050  request.receipient.transfer(request.value) */\n              swap1\n              dup2\n              iszero\n              mul\n              swap1\n              mload(0x40)\n              0x00\n              mload(0x40)\n              dup1\n              dup4\n              sub\n              dup2\n              dup6\n              dup9\n              dup9\n              call\n              swap4\n              pop\n              pop\n              pop\n              pop\n              iszero\n              dup1\n              iszero\n              tag_78\n              jumpi\n              returndatasize\n              0x00\n              dup1\n              returndatacopy\n              revert(0x00, returndatasize)\n            tag_78:\n              pop\n                /* \"Campaign.sol\":4077:4081  true */\n              0x01\n                /* \"Campaign.sol\":4060:4067  request */\n              dup2\n                /* \"Campaign.sol\":4060:4076  request.complete */\n              0x02\n              add\n              0x14\n                /* \"Campaign.sol\":4060:4081  request.complete=true */\n              0x0100\n              exp\n              dup2\n              sload\n              dup2\n              0xff\n              mul\n              not\n              and\n              swap1\n              dup4\n              iszero\n              iszero\n              mul\n              or\n              swap1\n              sstore\n              pop\n                /* \"Campaign.sol\":3711:4090  {... */\n              pop\n                /* \"Campaign.sol\":3657:4090  function finalizeRequest(uint index) public restricted{... */\n              pop\n              jump\t// out\n                /* \"Campaign.sol\":4562:4654  function getRequestsCount() public view returns(uint){... */\n            tag_21:\n                /* \"Campaign.sol\":4610:4614  uint */\n              0x00\n                /* \"Campaign.sol\":4632:4640  requests */\n              dup1\n                /* \"Campaign.sol\":4632:4647  requests.length */\n              dup1\n              sload\n              swap1\n              pop\n                /* \"Campaign.sol\":4625:4647  return requests.length */\n              swap1\n              pop\n                /* \"Campaign.sol\":4562:4654  function getRequestsCount() public view returns(uint){... */\n              swap1\n              jump\t// out\n                /* \"Campaign.sol\":4213:4465  function getSummary() public view returns (uint,uint,uint,uint,address){... */\n            tag_26:\n                /* \"Campaign.sol\":4256:4260  uint */\n              0x00\n                /* \"Campaign.sol\":4261:4265  uint */\n              dup1\n                /* \"Campaign.sol\":4266:4270  uint */\n              0x00\n                /* \"Campaign.sol\":4271:4275  uint */\n              dup1\n                /* \"Campaign.sol\":4276:4283  address */\n              0x00\n                /* \"Campaign.sol\":4315:4334  minimumContribution */\n              sload(0x03)\n                /* \"Campaign.sol\":4349:4370  address(this).balance */\n              selfbalance\n                /* \"Campaign.sol\":4385:4393  requests */\n              0x00\n                /* \"Campaign.sol\":4385:4400  requests.length */\n              dup1\n              sload\n              swap1\n              pop\n                /* \"Campaign.sol\":4414:4427  donatorsCount */\n              sload(0x04)\n                /* \"Campaign.sol\":4441:4448  manager */\n              0x02\n              0x00\n              swap1\n              sload\n              swap1\n              0x0100\n              exp\n              swap1\n              div\n              0xffffffffffffffffffffffffffffffffffffffff\n              and\n                /* \"Campaign.sol\":4294:4458  return (... */\n              swap5\n              pop\n              swap5\n              pop\n              swap5\n              pop\n              swap5\n              pop\n              swap5\n              pop\n                /* \"Campaign.sol\":4213:4465  function getSummary() public view returns (uint,uint,uint,uint,address){... */\n              swap1\n              swap2\n              swap3\n              swap4\n              swap5\n              jump\t// out\n                /* \"Campaign.sol\":1354:1376  address public manager */\n            tag_31:\n              0x02\n              0x00\n              swap1\n              sload\n              swap1\n              0x0100\n              exp\n              swap1\n              div\n              0xffffffffffffffffffffffffffffffffffffffff\n              and\n              dup2\n              jump\t// out\n                /* \"Campaign.sol\":1419:1444  uint public donatorsCount */\n            tag_36:\n              sload(0x04)\n              dup2\n              jump\t// out\n                /* \"Campaign.sol\":1246:1271  Request[] public requests */\n            tag_41:\n              0x00\n              dup2\n              dup2\n              sload\n              dup2\n              lt\n              tag_81\n              jumpi\n              0x00\n              dup1\n              revert\n            tag_81:\n              swap1\n              0x00\n              mstore\n              keccak256(0x00, 0x20)\n              swap1\n              0x04\n              mul\n              add\n              0x00\n              swap2\n              pop\n              swap1\n              pop\n              dup1\n              0x00\n              add\n              dup1\n              sload\n              tag_83\n              swap1\n              tag_84\n              jump\t// in\n            tag_83:\n              dup1\n              0x1f\n              add\n              0x20\n              dup1\n              swap2\n              div\n              mul\n              0x20\n              add\n              mload(0x40)\n              swap1\n              dup2\n              add\n              0x40\n              mstore\n              dup1\n              swap3\n              swap2\n              swap1\n              dup2\n              dup2\n              mstore\n              0x20\n              add\n              dup3\n              dup1\n              sload\n              tag_85\n              swap1\n              tag_84\n              jump\t// in\n            tag_85:\n              dup1\n              iszero\n              tag_86\n              jumpi\n              dup1\n              0x1f\n              lt\n              tag_87\n              jumpi\n              0x0100\n              dup1\n              dup4\n              sload\n              div\n              mul\n              dup4\n              mstore\n              swap2\n              0x20\n              add\n              swap2\n              jump(tag_86)\n            tag_87:\n              dup3\n              add\n              swap2\n              swap1\n              0x00\n              mstore\n              keccak256(0x00, 0x20)\n              swap1\n            tag_88:\n              dup2\n              sload\n              dup2\n              mstore\n              swap1\n              0x01\n              add\n              swap1\n              0x20\n              add\n              dup1\n              dup4\n              gt\n              tag_88\n              jumpi\n              dup3\n              swap1\n              sub\n              0x1f\n              and\n              dup3\n              add\n              swap2\n            tag_86:\n              pop\n              pop\n              pop\n              pop\n              pop\n              swap1\n              dup1\n              0x01\n              add\n              sload\n              swap1\n              dup1\n              0x02\n              add\n              0x00\n              swap1\n              sload\n              swap1\n              0x0100\n              exp\n              swap1\n              div\n              0xffffffffffffffffffffffffffffffffffffffff\n              and\n              swap1\n              dup1\n              0x02\n              add\n              0x14\n              swap1\n              sload\n              swap1\n              0x0100\n              exp\n              swap1\n              div\n              0xff\n              and\n              swap1\n              dup1\n              0x03\n              add\n              sload\n              swap1\n              pop\n              dup6\n              jump\t// out\n                /* \"Campaign.sol\":2599:2997  function createRequest(string memory description, uint value, address payable recipient) public restricted{... */\n            tag_48:\n                /* \"Campaign.sol\":1647:1654  manager */\n              0x02\n              0x00\n              swap1\n              sload\n              swap1\n              0x0100\n              exp\n              swap1\n              div\n              0xffffffffffffffffffffffffffffffffffffffff\n              and\n                /* \"Campaign.sol\":1635:1654  msg.sender==manager */\n              0xffffffffffffffffffffffffffffffffffffffff\n              and\n                /* \"Campaign.sol\":1635:1645  msg.sender */\n              caller\n                /* \"Campaign.sol\":1635:1654  msg.sender==manager */\n              0xffffffffffffffffffffffffffffffffffffffff\n              and\n              eq\n                /* \"Campaign.sol\":1627:1655  require(msg.sender==manager) */\n              tag_90\n              jumpi\n              0x00\n              dup1\n              revert\n            tag_90:\n                /* \"Campaign.sol\":2723:2731  donators */\n              0x05\n                /* \"Campaign.sol\":2723:2743  donators[msg.sender] */\n              0x00\n                /* \"Campaign.sol\":2732:2742  msg.sender */\n              caller\n                /* \"Campaign.sol\":2723:2743  donators[msg.sender] */\n              0xffffffffffffffffffffffffffffffffffffffff\n              and\n              0xffffffffffffffffffffffffffffffffffffffff\n              and\n              dup2\n              mstore\n              0x20\n              add\n              swap1\n              dup2\n              mstore\n              0x20\n              add\n              0x00\n              keccak256\n              0x00\n              swap1\n              sload\n              swap1\n              0x0100\n              exp\n              swap1\n              div\n              0xff\n              and\n                /* \"Campaign.sol\":2715:2744  require(donators[msg.sender]) */\n              tag_92\n              jumpi\n              0x00\n              dup1\n              revert\n            tag_92:\n                /* \"Campaign.sol\":2754:2779  Request memory newRequest */\n              0x00\n                /* \"Campaign.sol\":2780:2953  Request({... */\n              mload(0x40)\n              dup1\n              0xa0\n              add\n              0x40\n              mstore\n              dup1\n                /* \"Campaign.sol\":2814:2825  description */\n              dup6\n                /* \"Campaign.sol\":2780:2953  Request({... */\n              dup2\n              mstore\n              0x20\n              add\n                /* \"Campaign.sol\":2845:2850  value */\n              dup5\n                /* \"Campaign.sol\":2780:2953  Request({... */\n              dup2\n              mstore\n              0x20\n              add\n                /* \"Campaign.sol\":2875:2884  recipient */\n              dup4\n                /* \"Campaign.sol\":2780:2953  Request({... */\n              0xffffffffffffffffffffffffffffffffffffffff\n              and\n              dup2\n              mstore\n              0x20\n              add\n                /* \"Campaign.sol\":2907:2912  false */\n              0x00\n                /* \"Campaign.sol\":2780:2953  Request({... */\n              iszero\n              iszero\n              dup2\n              mstore\n              0x20\n              add\n                /* \"Campaign.sol\":2940:2941  0 */\n              0x00\n                /* \"Campaign.sol\":2780:2953  Request({... */\n              dup2\n              mstore\n              pop\n                /* \"Campaign.sol\":2754:2953  Request memory newRequest=Request({... */\n              swap1\n              pop\n                /* \"Campaign.sol\":2964:2972  requests */\n              0x00\n                /* \"Campaign.sol\":2978:2988  newRequest */\n              dup2\n                /* \"Campaign.sol\":2964:2989  requests.push(newRequest) */\n              swap1\n              dup1\n              0x01\n              dup2\n              sload\n              add\n              dup1\n              dup3\n              sstore\n              dup1\n              swap2\n              pop\n              pop\n              0x01\n              swap1\n              sub\n              swap1\n              0x00\n              mstore\n              keccak256(0x00, 0x20)\n              swap1\n              0x04\n              mul\n              add\n              0x00\n              swap1\n              swap2\n              swap1\n              swap2\n              swap1\n              swap2\n              pop\n              0x00\n              dup3\n              add\n              mload\n              dup2\n              0x00\n              add\n              swap1\n              dup1\n              mload\n              swap1\n              0x20\n              add\n              swap1\n              tag_94\n              swap3\n              swap2\n              swap1\n              tag_95\n              jump\t// in\n            tag_94:\n              pop\n              0x20\n              dup3\n              add\n              mload\n              dup2\n              0x01\n              add\n              sstore\n              0x40\n              dup3\n              add\n              mload\n              dup2\n              0x02\n              add\n              exp(0x0100, 0x00)\n              dup2\n              sload\n              dup2\n              0xffffffffffffffffffffffffffffffffffffffff\n              mul\n              not\n              and\n              swap1\n              dup4\n              0xffffffffffffffffffffffffffffffffffffffff\n              and\n              mul\n              or\n              swap1\n              sstore\n              pop\n              0x60\n              dup3\n              add\n              mload\n              dup2\n              0x02\n              add\n              exp(0x0100, 0x14)\n              dup2\n              sload\n              dup2\n              0xff\n              mul\n              not\n              and\n              swap1\n              dup4\n              iszero\n              iszero\n              mul\n              or\n              swap1\n              sstore\n              pop\n              0x80\n              dup3\n              add\n              mload\n              dup2\n              0x03\n              add\n              sstore\n              pop\n              pop\n                /* \"Campaign.sol\":2705:2997  {... */\n              pop\n                /* \"Campaign.sol\":2599:2997  function createRequest(string memory description, uint value, address payable recipient) public restricted{... */\n              pop\n              pop\n              pop\n              jump\t// out\n                /* \"Campaign.sol\":1382:1413  uint public minimumContribution */\n            tag_51:\n              sload(0x03)\n              dup2\n              jump\t// out\n                /* \"Campaign.sol\":1550:1588  mapping(address=>bool) public donators */\n            tag_57:\n              mstore(0x20, 0x05)\n              dup1\n              0x00\n              mstore\n              keccak256(0x00, 0x40)\n              0x00\n              swap2\n              pop\n              sload\n              swap1\n              0x0100\n              exp\n              swap1\n              div\n              0xff\n              and\n              dup2\n              jump\t// out\n                /* \"Campaign.sol\":2175:2386  function contribute() public payable{... */\n            tag_61:\n                /* \"Campaign.sol\":2239:2258  minimumContribution */\n              sload(0x03)\n                /* \"Campaign.sol\":2229:2238  msg.value */\n              callvalue\n                /* \"Campaign.sol\":2229:2258  msg.value>minimumContribution */\n              gt\n                /* \"Campaign.sol\":2221:2259  require(msg.value>minimumContribution) */\n              tag_97\n              jumpi\n              0x00\n              dup1\n              revert\n            tag_97:\n                /* \"Campaign.sol\":2349:2353  true */\n              0x01\n                /* \"Campaign.sol\":2328:2336  donators */\n              0x05\n                /* \"Campaign.sol\":2328:2348  donators[msg.sender] */\n              0x00\n                /* \"Campaign.sol\":2337:2347  msg.sender */\n              caller\n                /* \"Campaign.sol\":2328:2348  donators[msg.sender] */\n              0xffffffffffffffffffffffffffffffffffffffff\n              and\n              0xffffffffffffffffffffffffffffffffffffffff\n              and\n              dup2\n              mstore\n              0x20\n              add\n              swap1\n              dup2\n              mstore\n              0x20\n              add\n              0x00\n              keccak256\n              0x00\n                /* \"Campaign.sol\":2328:2353  donators[msg.sender]=true */\n              0x0100\n              exp\n              dup2\n              sload\n              dup2\n              0xff\n              mul\n              not\n              and\n              swap1\n              dup4\n              iszero\n              iszero\n              mul\n              or\n              swap1\n              sstore\n              pop\n                /* \"Campaign.sol\":2363:2376  donatorsCount */\n              0x04\n              0x00\n                /* \"Campaign.sol\":2363:2378  donatorsCount++ */\n              dup2\n              sload\n              dup1\n              swap3\n              swap2\n              swap1\n              tag_98\n              swap1\n              tag_99\n              jump\t// in\n            tag_98:\n              swap2\n              swap1\n              pop\n              sstore\n              pop\n                /* \"Campaign.sol\":2175:2386  function contribute() public payable{... */\n              jump\t// out\n                /* \"Campaign.sol\":3182:3544  function approveRequest(uint index) public {... */\n            tag_65:\n                /* \"Campaign.sol\":3235:3258  Request storage request */\n              0x00\n                /* \"Campaign.sol\":3259:3267  requests */\n              dup1\n                /* \"Campaign.sol\":3268:3273  index */\n              dup3\n                /* \"Campaign.sol\":3259:3274  requests[index] */\n              dup2\n              sload\n              dup2\n              lt\n              tag_101\n              jumpi\n              tag_102\n              tag_71\n              jump\t// in\n            tag_102:\n            tag_101:\n              swap1\n              0x00\n              mstore\n              keccak256(0x00, 0x20)\n              swap1\n              0x04\n              mul\n              add\n                /* \"Campaign.sol\":3235:3274  Request storage request=requests[index] */\n              swap1\n              pop\n                /* \"Campaign.sol\":3358:3366  donators */\n              0x05\n                /* \"Campaign.sol\":3358:3378  donators[msg.sender] */\n              0x00\n                /* \"Campaign.sol\":3367:3377  msg.sender */\n              caller\n                /* \"Campaign.sol\":3358:3378  donators[msg.sender] */\n              0xffffffffffffffffffffffffffffffffffffffff\n              and\n              0xffffffffffffffffffffffffffffffffffffffff\n              and\n              dup2\n              mstore\n              0x20\n              add\n              swap1\n              dup2\n              mstore\n              0x20\n              add\n              0x00\n              keccak256\n              0x00\n              swap1\n              sload\n              swap1\n              0x0100\n              exp\n              swap1\n              div\n              0xff\n              and\n                /* \"Campaign.sol\":3350:3379  require(donators[msg.sender]) */\n              tag_104\n              jumpi\n              0x00\n              dup1\n              revert\n            tag_104:\n                /* \"Campaign.sol\":3446:3455  approvals */\n              0x01\n                /* \"Campaign.sol\":3446:3467  approvals[msg.sender] */\n              0x00\n                /* \"Campaign.sol\":3456:3466  msg.sender */\n              caller\n                /* \"Campaign.sol\":3446:3467  approvals[msg.sender] */\n              0xffffffffffffffffffffffffffffffffffffffff\n              and\n              0xffffffffffffffffffffffffffffffffffffffff\n              and\n              dup2\n              mstore\n              0x20\n              add\n              swap1\n              dup2\n              mstore\n              0x20\n              add\n              0x00\n              keccak256\n              0x00\n              swap1\n              sload\n              swap1\n              0x0100\n              exp\n              swap1\n              div\n              0xff\n              and\n                /* \"Campaign.sol\":3445:3467  !approvals[msg.sender] */\n              iszero\n                /* \"Campaign.sol\":3437:3468  require(!approvals[msg.sender]) */\n              tag_105\n              jumpi\n              0x00\n              dup1\n              revert\n            tag_105:\n                /* \"Campaign.sol\":3500:3504  true */\n              0x01\n                /* \"Campaign.sol\":3478:3487  approvals */\n              dup1\n                /* \"Campaign.sol\":3478:3499  approvals[msg.sender] */\n              0x00\n                /* \"Campaign.sol\":3488:3498  msg.sender */\n              caller\n                /* \"Campaign.sol\":3478:3499  approvals[msg.sender] */\n              0xffffffffffffffffffffffffffffffffffffffff\n              and\n              0xffffffffffffffffffffffffffffffffffffffff\n              and\n              dup2\n              mstore\n              0x20\n              add\n              swap1\n              dup2\n              mstore\n              0x20\n              add\n              0x00\n              keccak256\n              0x00\n                /* \"Campaign.sol\":3478:3504  approvals[msg.sender]=true */\n              0x0100\n              exp\n              dup2\n              sload\n              dup2\n              0xff\n              mul\n              not\n              and\n              swap1\n              dup4\n              iszero\n              iszero\n              mul\n              or\n              swap1\n              sstore\n              pop\n                /* \"Campaign.sol\":3514:3521  request */\n              dup1\n                /* \"Campaign.sol\":3514:3535  request.approvalCount */\n              0x03\n              add\n              0x00\n                /* \"Campaign.sol\":3514:3537  request.approvalCount++ */\n              dup2\n              sload\n              dup1\n              swap3\n              swap2\n              swap1\n              tag_106\n              swap1\n              tag_99\n              jump\t// in\n            tag_106:\n              swap2\n              swap1\n              pop\n              sstore\n              pop\n                /* \"Campaign.sol\":3225:3544  {... */\n              pop\n                /* \"Campaign.sol\":3182:3544  function approveRequest(uint index) public {... */\n              pop\n              jump\t// out\n            tag_95:\n              dup3\n              dup1\n              sload\n              tag_107\n              swap1\n              tag_84\n              jump\t// in\n            tag_107:\n              swap1\n              0x00\n              mstore\n              keccak256(0x00, 0x20)\n              swap1\n              0x1f\n              add\n              0x20\n              swap1\n              div\n              dup2\n              add\n              swap3\n              dup3\n              tag_109\n              jumpi\n              0x00\n              dup6\n              sstore\n              jump(tag_108)\n            tag_109:\n              dup3\n              0x1f\n              lt\n              tag_110\n              jumpi\n              dup1\n              mload\n              not(0xff)\n              and\n              dup4\n              dup1\n              add\n              or\n              dup6\n              sstore\n              jump(tag_108)\n            tag_110:\n              dup3\n              dup1\n              add\n              0x01\n              add\n              dup6\n              sstore\n              dup3\n              iszero\n              tag_108\n              jumpi\n              swap2\n              dup3\n              add\n            tag_111:\n              dup3\n              dup2\n              gt\n              iszero\n              tag_112\n              jumpi\n              dup3\n              mload\n              dup3\n              sstore\n              swap2\n              0x20\n              add\n              swap2\n              swap1\n              0x01\n              add\n              swap1\n              jump(tag_111)\n            tag_112:\n            tag_108:\n              pop\n              swap1\n              pop\n              tag_113\n              swap2\n              swap1\n              tag_114\n              jump\t// in\n            tag_113:\n              pop\n              swap1\n              jump\t// out\n            tag_114:\n            tag_115:\n              dup1\n              dup3\n              gt\n              iszero\n              tag_116\n              jumpi\n              0x00\n              dup2\n              0x00\n              swap1\n              sstore\n              pop\n              0x01\n              add\n              jump(tag_115)\n            tag_116:\n              pop\n              swap1\n              jump\t// out\n                /* \"#utility.yul\":7:419   */\n            tag_118:\n                /* \"#utility.yul\":85:90   */\n              0x00\n                /* \"#utility.yul\":110:176   */\n              tag_120\n                /* \"#utility.yul\":126:175   */\n              tag_121\n                /* \"#utility.yul\":168:174   */\n              dup5\n                /* \"#utility.yul\":126:175   */\n              tag_122\n              jump\t// in\n            tag_121:\n                /* \"#utility.yul\":110:176   */\n              tag_123\n              jump\t// in\n            tag_120:\n                /* \"#utility.yul\":101:176   */\n              swap1\n              pop\n                /* \"#utility.yul\":199:205   */\n              dup3\n                /* \"#utility.yul\":192:197   */\n              dup2\n                /* \"#utility.yul\":185:206   */\n              mstore\n                /* \"#utility.yul\":237:241   */\n              0x20\n                /* \"#utility.yul\":230:235   */\n              dup2\n                /* \"#utility.yul\":226:242   */\n              add\n                /* \"#utility.yul\":275:278   */\n              dup5\n                /* \"#utility.yul\":266:272   */\n              dup5\n                /* \"#utility.yul\":261:264   */\n              dup5\n                /* \"#utility.yul\":257:273   */\n              add\n                /* \"#utility.yul\":254:279   */\n              gt\n                /* \"#utility.yul\":251:363   */\n              iszero\n              tag_124\n              jumpi\n                /* \"#utility.yul\":282:361   */\n              tag_125\n              tag_126\n              jump\t// in\n            tag_125:\n                /* \"#utility.yul\":251:363   */\n            tag_124:\n                /* \"#utility.yul\":372:413   */\n              tag_127\n                /* \"#utility.yul\":406:412   */\n              dup5\n                /* \"#utility.yul\":401:404   */\n              dup3\n                /* \"#utility.yul\":396:399   */\n              dup6\n                /* \"#utility.yul\":372:413   */\n              tag_128\n              jump\t// in\n            tag_127:\n                /* \"#utility.yul\":91:419   */\n              pop\n                /* \"#utility.yul\":7:419   */\n              swap4\n              swap3\n              pop\n              pop\n              pop\n              jump\t// out\n                /* \"#utility.yul\":425:564   */\n            tag_129:\n                /* \"#utility.yul\":471:476   */\n              0x00\n                /* \"#utility.yul\":509:515   */\n              dup2\n                /* \"#utility.yul\":496:516   */\n              calldataload\n                /* \"#utility.yul\":487:516   */\n              swap1\n              pop\n                /* \"#utility.yul\":525:558   */\n              tag_131\n                /* \"#utility.yul\":552:557   */\n              dup2\n                /* \"#utility.yul\":525:558   */\n              tag_132\n              jump\t// in\n            tag_131:\n                /* \"#utility.yul\":425:564   */\n              swap3\n              swap2\n              pop\n              pop\n              jump\t// out\n                /* \"#utility.yul\":570:725   */\n            tag_133:\n                /* \"#utility.yul\":624:629   */\n              0x00\n                /* \"#utility.yul\":662:668   */\n              dup2\n                /* \"#utility.yul\":649:669   */\n              calldataload\n                /* \"#utility.yul\":640:669   */\n              swap1\n              pop\n                /* \"#utility.yul\":678:719   */\n              tag_135\n                /* \"#utility.yul\":713:718   */\n              dup2\n                /* \"#utility.yul\":678:719   */\n              tag_136\n              jump\t// in\n            tag_135:\n                /* \"#utility.yul\":570:725   */\n              swap3\n              swap2\n              pop\n              pop\n              jump\t// out\n                /* \"#utility.yul\":745:1085   */\n            tag_137:\n                /* \"#utility.yul\":801:806   */\n              0x00\n                /* \"#utility.yul\":850:853   */\n              dup3\n                /* \"#utility.yul\":843:847   */\n              0x1f\n                /* \"#utility.yul\":835:841   */\n              dup4\n                /* \"#utility.yul\":831:848   */\n              add\n                /* \"#utility.yul\":827:854   */\n              slt\n                /* \"#utility.yul\":817:939   */\n              tag_139\n              jumpi\n                /* \"#utility.yul\":858:937   */\n              tag_140\n              tag_141\n              jump\t// in\n            tag_140:\n                /* \"#utility.yul\":817:939   */\n            tag_139:\n                /* \"#utility.yul\":975:981   */\n              dup2\n                /* \"#utility.yul\":962:982   */\n              calldataload\n                /* \"#utility.yul\":1000:1079   */\n              tag_142\n                /* \"#utility.yul\":1075:1078   */\n              dup5\n                /* \"#utility.yul\":1067:1073   */\n              dup3\n                /* \"#utility.yul\":1060:1064   */\n              0x20\n                /* \"#utility.yul\":1052:1058   */\n              dup7\n                /* \"#utility.yul\":1048:1065   */\n              add\n                /* \"#utility.yul\":1000:1079   */\n              tag_118\n              jump\t// in\n            tag_142:\n                /* \"#utility.yul\":991:1079   */\n              swap2\n              pop\n                /* \"#utility.yul\":807:1085   */\n              pop\n                /* \"#utility.yul\":745:1085   */\n              swap3\n              swap2\n              pop\n              pop\n              jump\t// out\n                /* \"#utility.yul\":1091:1230   */\n            tag_143:\n                /* \"#utility.yul\":1137:1142   */\n              0x00\n                /* \"#utility.yul\":1175:1181   */\n              dup2\n                /* \"#utility.yul\":1162:1182   */\n              calldataload\n                /* \"#utility.yul\":1153:1182   */\n              swap1\n              pop\n                /* \"#utility.yul\":1191:1224   */\n              tag_145\n                /* \"#utility.yul\":1218:1223   */\n              dup2\n                /* \"#utility.yul\":1191:1224   */\n              tag_146\n              jump\t// in\n            tag_145:\n                /* \"#utility.yul\":1091:1230   */\n              swap3\n              swap2\n              pop\n              pop\n              jump\t// out\n                /* \"#utility.yul\":1236:1565   */\n            tag_56:\n                /* \"#utility.yul\":1295:1301   */\n              0x00\n                /* \"#utility.yul\":1344:1346   */\n              0x20\n                /* \"#utility.yul\":1332:1341   */\n              dup3\n                /* \"#utility.yul\":1323:1330   */\n              dup5\n                /* \"#utility.yul\":1319:1342   */\n              sub\n                /* \"#utility.yul\":1315:1347   */\n              slt\n                /* \"#utility.yul\":1312:1431   */\n              iszero\n              tag_148\n              jumpi\n                /* \"#utility.yul\":1350:1429   */\n              tag_149\n              tag_150\n              jump\t// in\n            tag_149:\n                /* \"#utility.yul\":1312:1431   */\n            tag_148:\n                /* \"#utility.yul\":1470:1471   */\n              0x00\n                /* \"#utility.yul\":1495:1548   */\n              tag_151\n                /* \"#utility.yul\":1540:1547   */\n              dup5\n                /* \"#utility.yul\":1531:1537   */\n              dup3\n                /* \"#utility.yul\":1520:1529   */\n              dup6\n                /* \"#utility.yul\":1516:1538   */\n              add\n                /* \"#utility.yul\":1495:1548   */\n              tag_129\n              jump\t// in\n            tag_151:\n                /* \"#utility.yul\":1485:1548   */\n              swap2\n              pop\n                /* \"#utility.yul\":1441:1558   */\n              pop\n                /* \"#utility.yul\":1236:1565   */\n              swap3\n              swap2\n              pop\n              pop\n              jump\t// out\n                /* \"#utility.yul\":1571:2386   */\n            tag_47:\n                /* \"#utility.yul\":1666:1672   */\n              0x00\n                /* \"#utility.yul\":1674:1680   */\n              dup1\n                /* \"#utility.yul\":1682:1688   */\n              0x00\n                /* \"#utility.yul\":1731:1733   */\n              0x60\n                /* \"#utility.yul\":1719:1728   */\n              dup5\n                /* \"#utility.yul\":1710:1717   */\n              dup7\n                /* \"#utility.yul\":1706:1729   */\n              sub\n                /* \"#utility.yul\":1702:1734   */\n              slt\n                /* \"#utility.yul\":1699:1818   */\n              iszero\n              tag_153\n              jumpi\n                /* \"#utility.yul\":1737:1816   */\n              tag_154\n              tag_150\n              jump\t// in\n            tag_154:\n                /* \"#utility.yul\":1699:1818   */\n            tag_153:\n                /* \"#utility.yul\":1885:1886   */\n              0x00\n                /* \"#utility.yul\":1874:1883   */\n              dup5\n                /* \"#utility.yul\":1870:1887   */\n              add\n                /* \"#utility.yul\":1857:1888   */\n              calldataload\n                /* \"#utility.yul\":1915:1933   */\n              0xffffffffffffffff\n                /* \"#utility.yul\":1907:1913   */\n              dup2\n                /* \"#utility.yul\":1904:1934   */\n              gt\n                /* \"#utility.yul\":1901:2018   */\n              iszero\n              tag_155\n              jumpi\n                /* \"#utility.yul\":1937:2016   */\n              tag_156\n              tag_157\n              jump\t// in\n            tag_156:\n                /* \"#utility.yul\":1901:2018   */\n            tag_155:\n                /* \"#utility.yul\":2042:2105   */\n              tag_158\n                /* \"#utility.yul\":2097:2104   */\n              dup7\n                /* \"#utility.yul\":2088:2094   */\n              dup3\n                /* \"#utility.yul\":2077:2086   */\n              dup8\n                /* \"#utility.yul\":2073:2095   */\n              add\n                /* \"#utility.yul\":2042:2105   */\n              tag_137\n              jump\t// in\n            tag_158:\n                /* \"#utility.yul\":2032:2105   */\n              swap4\n              pop\n                /* \"#utility.yul\":1828:2115   */\n              pop\n                /* \"#utility.yul\":2154:2156   */\n              0x20\n                /* \"#utility.yul\":2180:2233   */\n              tag_159\n                /* \"#utility.yul\":2225:2232   */\n              dup7\n                /* \"#utility.yul\":2216:2222   */\n              dup3\n                /* \"#utility.yul\":2205:2214   */\n              dup8\n                /* \"#utility.yul\":2201:2223   */\n              add\n                /* \"#utility.yul\":2180:2233   */\n              tag_143\n              jump\t// in\n            tag_159:\n                /* \"#utility.yul\":2170:2233   */\n              swap3\n              pop\n                /* \"#utility.yul\":2125:2243   */\n              pop\n                /* \"#utility.yul\":2282:2284   */\n              0x40\n                /* \"#utility.yul\":2308:2369   */\n              tag_160\n                /* \"#utility.yul\":2361:2368   */\n              dup7\n                /* \"#utility.yul\":2352:2358   */\n              dup3\n                /* \"#utility.yul\":2341:2350   */\n              dup8\n                /* \"#utility.yul\":2337:2359   */\n              add\n                /* \"#utility.yul\":2308:2369   */\n              tag_133\n              jump\t// in\n            tag_160:\n                /* \"#utility.yul\":2298:2369   */\n              swap2\n              pop\n                /* \"#utility.yul\":2253:2379   */\n              pop\n                /* \"#utility.yul\":1571:2386   */\n              swap3\n              pop\n              swap3\n              pop\n              swap3\n              jump\t// out\n                /* \"#utility.yul\":2392:2721   */\n            tag_17:\n                /* \"#utility.yul\":2451:2457   */\n              0x00\n                /* \"#utility.yul\":2500:2502   */\n              0x20\n                /* \"#utility.yul\":2488:2497   */\n              dup3\n                /* \"#utility.yul\":2479:2486   */\n              dup5\n                /* \"#utility.yul\":2475:2498   */\n              sub\n                /* \"#utility.yul\":2471:2503   */\n              slt\n                /* \"#utility.yul\":2468:2587   */\n              iszero\n              tag_162\n              jumpi\n                /* \"#utility.yul\":2506:2585   */\n              tag_163\n              tag_150\n              jump\t// in\n            tag_163:\n                /* \"#utility.yul\":2468:2587   */\n            tag_162:\n                /* \"#utility.yul\":2626:2627   */\n              0x00\n                /* \"#utility.yul\":2651:2704   */\n              tag_164\n                /* \"#utility.yul\":2696:2703   */\n              dup5\n                /* \"#utility.yul\":2687:2693   */\n              dup3\n                /* \"#utility.yul\":2676:2685   */\n              dup6\n                /* \"#utility.yul\":2672:2694   */\n              add\n                /* \"#utility.yul\":2651:2704   */\n              tag_143\n              jump\t// in\n            tag_164:\n                /* \"#utility.yul\":2641:2704   */\n              swap2\n              pop\n                /* \"#utility.yul\":2597:2714   */\n              pop\n                /* \"#utility.yul\":2392:2721   */\n              swap3\n              swap2\n              pop\n              pop\n              jump\t// out\n                /* \"#utility.yul\":2727:2869   */\n            tag_165:\n                /* \"#utility.yul\":2830:2862   */\n              tag_167\n                /* \"#utility.yul\":2856:2861   */\n              dup2\n                /* \"#utility.yul\":2830:2862   */\n              tag_168\n              jump\t// in\n            tag_167:\n                /* \"#utility.yul\":2825:2828   */\n              dup3\n                /* \"#utility.yul\":2818:2863   */\n              mstore\n                /* \"#utility.yul\":2727:2869   */\n              pop\n              pop\n              jump\t// out\n                /* \"#utility.yul\":2875:2993   */\n            tag_169:\n                /* \"#utility.yul\":2962:2986   */\n              tag_171\n                /* \"#utility.yul\":2980:2985   */\n              dup2\n                /* \"#utility.yul\":2962:2986   */\n              tag_172\n              jump\t// in\n            tag_171:\n                /* \"#utility.yul\":2957:2960   */\n              dup3\n                /* \"#utility.yul\":2950:2987   */\n              mstore\n                /* \"#utility.yul\":2875:2993   */\n              pop\n              pop\n              jump\t// out\n                /* \"#utility.yul\":2999:3108   */\n            tag_173:\n                /* \"#utility.yul\":3080:3101   */\n              tag_175\n                /* \"#utility.yul\":3095:3100   */\n              dup2\n                /* \"#utility.yul\":3080:3101   */\n              tag_176\n              jump\t// in\n            tag_175:\n                /* \"#utility.yul\":3075:3078   */\n              dup3\n                /* \"#utility.yul\":3068:3102   */\n              mstore\n                /* \"#utility.yul\":2999:3108   */\n              pop\n              pop\n              jump\t// out\n                /* \"#utility.yul\":3114:3478   */\n            tag_177:\n                /* \"#utility.yul\":3202:3205   */\n              0x00\n                /* \"#utility.yul\":3230:3269   */\n              tag_179\n                /* \"#utility.yul\":3263:3268   */\n              dup3\n                /* \"#utility.yul\":3230:3269   */\n              tag_180\n              jump\t// in\n            tag_179:\n                /* \"#utility.yul\":3285:3356   */\n              tag_181\n                /* \"#utility.yul\":3349:3355   */\n              dup2\n                /* \"#utility.yul\":3344:3347   */\n              dup6\n                /* \"#utility.yul\":3285:3356   */\n              tag_182\n              jump\t// in\n            tag_181:\n                /* \"#utility.yul\":3278:3356   */\n              swap4\n              pop\n                /* \"#utility.yul\":3365:3417   */\n              tag_183\n                /* \"#utility.yul\":3410:3416   */\n              dup2\n                /* \"#utility.yul\":3405:3408   */\n              dup6\n                /* \"#utility.yul\":3398:3402   */\n              0x20\n                /* \"#utility.yul\":3391:3396   */\n              dup7\n                /* \"#utility.yul\":3387:3403   */\n              add\n                /* \"#utility.yul\":3365:3417   */\n              tag_184\n              jump\t// in\n            tag_183:\n                /* \"#utility.yul\":3442:3471   */\n              tag_185\n                /* \"#utility.yul\":3464:3470   */\n              dup2\n                /* \"#utility.yul\":3442:3471   */\n              tag_186\n              jump\t// in\n            tag_185:\n                /* \"#utility.yul\":3437:3440   */\n              dup5\n                /* \"#utility.yul\":3433:3472   */\n              add\n                /* \"#utility.yul\":3426:3472   */\n              swap2\n              pop\n                /* \"#utility.yul\":3206:3478   */\n              pop\n                /* \"#utility.yul\":3114:3478   */\n              swap3\n              swap2\n              pop\n              pop\n              jump\t// out\n                /* \"#utility.yul\":3484:3602   */\n            tag_187:\n                /* \"#utility.yul\":3571:3595   */\n              tag_189\n                /* \"#utility.yul\":3589:3594   */\n              dup2\n                /* \"#utility.yul\":3571:3595   */\n              tag_190\n              jump\t// in\n            tag_189:\n                /* \"#utility.yul\":3566:3569   */\n              dup3\n                /* \"#utility.yul\":3559:3596   */\n              mstore\n                /* \"#utility.yul\":3484:3602   */\n              pop\n              pop\n              jump\t// out\n                /* \"#utility.yul\":3608:3830   */\n            tag_33:\n                /* \"#utility.yul\":3701:3705   */\n              0x00\n                /* \"#utility.yul\":3739:3741   */\n              0x20\n                /* \"#utility.yul\":3728:3737   */\n              dup3\n                /* \"#utility.yul\":3724:3742   */\n              add\n                /* \"#utility.yul\":3716:3742   */\n              swap1\n              pop\n                /* \"#utility.yul\":3752:3823   */\n              tag_192\n                /* \"#utility.yul\":3820:3821   */\n              0x00\n                /* \"#utility.yul\":3809:3818   */\n              dup4\n                /* \"#utility.yul\":3805:3822   */\n              add\n                /* \"#utility.yul\":3796:3802   */\n              dup5\n                /* \"#utility.yul\":3752:3823   */\n              tag_169\n              jump\t// in\n            tag_192:\n                /* \"#utility.yul\":3608:3830   */\n              swap3\n              swap2\n              pop\n              pop\n              jump\t// out\n                /* \"#utility.yul\":3836:4046   */\n            tag_59:\n                /* \"#utility.yul\":3923:3927   */\n              0x00\n                /* \"#utility.yul\":3961:3963   */\n              0x20\n                /* \"#utility.yul\":3950:3959   */\n              dup3\n                /* \"#utility.yul\":3946:3964   */\n              add\n                /* \"#utility.yul\":3938:3964   */\n              swap1\n              pop\n                /* \"#utility.yul\":3974:4039   */\n              tag_194\n                /* \"#utility.yul\":4036:4037   */\n              0x00\n                /* \"#utility.yul\":4025:4034   */\n              dup4\n                /* \"#utility.yul\":4021:4038   */\n              add\n                /* \"#utility.yul\":4012:4018   */\n              dup5\n                /* \"#utility.yul\":3974:4039   */\n              tag_173\n              jump\t// in\n            tag_194:\n                /* \"#utility.yul\":3836:4046   */\n              swap3\n              swap2\n              pop\n              pop\n              jump\t// out\n                /* \"#utility.yul\":4052:4827   */\n            tag_43:\n                /* \"#utility.yul\":4287:4291   */\n              0x00\n                /* \"#utility.yul\":4325:4328   */\n              0xa0\n                /* \"#utility.yul\":4314:4323   */\n              dup3\n                /* \"#utility.yul\":4310:4329   */\n              add\n                /* \"#utility.yul\":4302:4329   */\n              swap1\n              pop\n                /* \"#utility.yul\":4375:4384   */\n              dup2\n                /* \"#utility.yul\":4369:4373   */\n              dup2\n                /* \"#utility.yul\":4365:4385   */\n              sub\n                /* \"#utility.yul\":4361:4362   */\n              0x00\n                /* \"#utility.yul\":4350:4359   */\n              dup4\n                /* \"#utility.yul\":4346:4363   */\n              add\n                /* \"#utility.yul\":4339:4386   */\n              mstore\n                /* \"#utility.yul\":4403:4481   */\n              tag_196\n                /* \"#utility.yul\":4476:4480   */\n              dup2\n                /* \"#utility.yul\":4467:4473   */\n              dup9\n                /* \"#utility.yul\":4403:4481   */\n              tag_177\n              jump\t// in\n            tag_196:\n                /* \"#utility.yul\":4395:4481   */\n              swap1\n              pop\n                /* \"#utility.yul\":4491:4563   */\n              tag_197\n                /* \"#utility.yul\":4559:4561   */\n              0x20\n                /* \"#utility.yul\":4548:4557   */\n              dup4\n                /* \"#utility.yul\":4544:4562   */\n              add\n                /* \"#utility.yul\":4535:4541   */\n              dup8\n                /* \"#utility.yul\":4491:4563   */\n              tag_187\n              jump\t// in\n            tag_197:\n                /* \"#utility.yul\":4573:4661   */\n              tag_198\n                /* \"#utility.yul\":4657:4659   */\n              0x40\n                /* \"#utility.yul\":4646:4655   */\n              dup4\n                /* \"#utility.yul\":4642:4660   */\n              add\n                /* \"#utility.yul\":4633:4639   */\n              dup7\n                /* \"#utility.yul\":4573:4661   */\n              tag_165\n              jump\t// in\n            tag_198:\n                /* \"#utility.yul\":4671:4737   */\n              tag_199\n                /* \"#utility.yul\":4733:4735   */\n              0x60\n                /* \"#utility.yul\":4722:4731   */\n              dup4\n                /* \"#utility.yul\":4718:4736   */\n              add\n                /* \"#utility.yul\":4709:4715   */\n              dup6\n                /* \"#utility.yul\":4671:4737   */\n              tag_173\n              jump\t// in\n            tag_199:\n                /* \"#utility.yul\":4747:4820   */\n              tag_200\n                /* \"#utility.yul\":4815:4818   */\n              0x80\n                /* \"#utility.yul\":4804:4813   */\n              dup4\n                /* \"#utility.yul\":4800:4819   */\n              add\n                /* \"#utility.yul\":4791:4797   */\n              dup5\n                /* \"#utility.yul\":4747:4820   */\n              tag_187\n              jump\t// in\n            tag_200:\n                /* \"#utility.yul\":4052:4827   */\n              swap7\n              swap6\n              pop\n              pop\n              pop\n              pop\n              pop\n              pop\n              jump\t// out\n                /* \"#utility.yul\":4833:5055   */\n            tag_23:\n                /* \"#utility.yul\":4926:4930   */\n              0x00\n                /* \"#utility.yul\":4964:4966   */\n              0x20\n                /* \"#utility.yul\":4953:4962   */\n              dup3\n                /* \"#utility.yul\":4949:4967   */\n              add\n                /* \"#utility.yul\":4941:4967   */\n              swap1\n              pop\n                /* \"#utility.yul\":4977:5048   */\n              tag_202\n                /* \"#utility.yul\":5045:5046   */\n              0x00\n                /* \"#utility.yul\":5034:5043   */\n              dup4\n                /* \"#utility.yul\":5030:5047   */\n              add\n                /* \"#utility.yul\":5021:5027   */\n              dup5\n                /* \"#utility.yul\":4977:5048   */\n              tag_187\n              jump\t// in\n            tag_202:\n                /* \"#utility.yul\":4833:5055   */\n              swap3\n              swap2\n              pop\n              pop\n              jump\t// out\n                /* \"#utility.yul\":5061:5725   */\n            tag_28:\n                /* \"#utility.yul\":5266:5270   */\n              0x00\n                /* \"#utility.yul\":5304:5307   */\n              0xa0\n                /* \"#utility.yul\":5293:5302   */\n              dup3\n                /* \"#utility.yul\":5289:5308   */\n              add\n                /* \"#utility.yul\":5281:5308   */\n              swap1\n              pop\n                /* \"#utility.yul\":5318:5389   */\n              tag_204\n                /* \"#utility.yul\":5386:5387   */\n              0x00\n                /* \"#utility.yul\":5375:5384   */\n              dup4\n                /* \"#utility.yul\":5371:5388   */\n              add\n                /* \"#utility.yul\":5362:5368   */\n              dup9\n                /* \"#utility.yul\":5318:5389   */\n              tag_187\n              jump\t// in\n            tag_204:\n                /* \"#utility.yul\":5399:5471   */\n              tag_205\n                /* \"#utility.yul\":5467:5469   */\n              0x20\n                /* \"#utility.yul\":5456:5465   */\n              dup4\n                /* \"#utility.yul\":5452:5470   */\n              add\n                /* \"#utility.yul\":5443:5449   */\n              dup8\n                /* \"#utility.yul\":5399:5471   */\n              tag_187\n              jump\t// in\n            tag_205:\n                /* \"#utility.yul\":5481:5553   */\n              tag_206\n                /* \"#utility.yul\":5549:5551   */\n              0x40\n                /* \"#utility.yul\":5538:5547   */\n              dup4\n                /* \"#utility.yul\":5534:5552   */\n              add\n                /* \"#utility.yul\":5525:5531   */\n              dup7\n                /* \"#utility.yul\":5481:5553   */\n              tag_187\n              jump\t// in\n            tag_206:\n                /* \"#utility.yul\":5563:5635   */\n              tag_207\n                /* \"#utility.yul\":5631:5633   */\n              0x60\n                /* \"#utility.yul\":5620:5629   */\n              dup4\n                /* \"#utility.yul\":5616:5634   */\n              add\n                /* \"#utility.yul\":5607:5613   */\n              dup6\n                /* \"#utility.yul\":5563:5635   */\n              tag_187\n              jump\t// in\n            tag_207:\n                /* \"#utility.yul\":5645:5718   */\n              tag_208\n                /* \"#utility.yul\":5713:5716   */\n              0x80\n                /* \"#utility.yul\":5702:5711   */\n              dup4\n                /* \"#utility.yul\":5698:5717   */\n              add\n                /* \"#utility.yul\":5689:5695   */\n              dup5\n                /* \"#utility.yul\":5645:5718   */\n              tag_169\n              jump\t// in\n            tag_208:\n                /* \"#utility.yul\":5061:5725   */\n              swap7\n              swap6\n              pop\n              pop\n              pop\n              pop\n              pop\n              pop\n              jump\t// out\n                /* \"#utility.yul\":5731:5860   */\n            tag_123:\n                /* \"#utility.yul\":5765:5771   */\n              0x00\n                /* \"#utility.yul\":5792:5812   */\n              tag_210\n              tag_211\n              jump\t// in\n            tag_210:\n                /* \"#utility.yul\":5782:5812   */\n              swap1\n              pop\n                /* \"#utility.yul\":5821:5854   */\n              tag_212\n                /* \"#utility.yul\":5849:5853   */\n              dup3\n                /* \"#utility.yul\":5841:5847   */\n              dup3\n                /* \"#utility.yul\":5821:5854   */\n              tag_213\n              jump\t// in\n            tag_212:\n                /* \"#utility.yul\":5731:5860   */\n              swap2\n              swap1\n              pop\n              jump\t// out\n                /* \"#utility.yul\":5866:5941   */\n            tag_211:\n                /* \"#utility.yul\":5899:5905   */\n              0x00\n                /* \"#utility.yul\":5932:5934   */\n              0x40\n                /* \"#utility.yul\":5926:5935   */\n              mload\n                /* \"#utility.yul\":5916:5935   */\n              swap1\n              pop\n                /* \"#utility.yul\":5866:5941   */\n              swap1\n              jump\t// out\n                /* \"#utility.yul\":5947:6255   */\n            tag_122:\n                /* \"#utility.yul\":6009:6013   */\n              0x00\n                /* \"#utility.yul\":6099:6117   */\n              0xffffffffffffffff\n                /* \"#utility.yul\":6091:6097   */\n              dup3\n                /* \"#utility.yul\":6088:6118   */\n              gt\n                /* \"#utility.yul\":6085:6141   */\n              iszero\n              tag_216\n              jumpi\n                /* \"#utility.yul\":6121:6139   */\n              tag_217\n              tag_218\n              jump\t// in\n            tag_217:\n                /* \"#utility.yul\":6085:6141   */\n            tag_216:\n                /* \"#utility.yul\":6159:6188   */\n              tag_219\n                /* \"#utility.yul\":6181:6187   */\n              dup3\n                /* \"#utility.yul\":6159:6188   */\n              tag_186\n              jump\t// in\n            tag_219:\n                /* \"#utility.yul\":6151:6188   */\n              swap1\n              pop\n                /* \"#utility.yul\":6243:6247   */\n              0x20\n                /* \"#utility.yul\":6237:6241   */\n              dup2\n                /* \"#utility.yul\":6233:6248   */\n              add\n                /* \"#utility.yul\":6225:6248   */\n              swap1\n              pop\n                /* \"#utility.yul\":5947:6255   */\n              swap2\n              swap1\n              pop\n              jump\t// out\n                /* \"#utility.yul\":6261:6360   */\n            tag_180:\n                /* \"#utility.yul\":6313:6319   */\n              0x00\n                /* \"#utility.yul\":6347:6352   */\n              dup2\n                /* \"#utility.yul\":6341:6353   */\n              mload\n                /* \"#utility.yul\":6331:6353   */\n              swap1\n              pop\n                /* \"#utility.yul\":6261:6360   */\n              swap2\n              swap1\n              pop\n              jump\t// out\n                /* \"#utility.yul\":6366:6535   */\n            tag_182:\n                /* \"#utility.yul\":6450:6461   */\n              0x00\n                /* \"#utility.yul\":6484:6490   */\n              dup3\n                /* \"#utility.yul\":6479:6482   */\n              dup3\n                /* \"#utility.yul\":6472:6491   */\n              mstore\n                /* \"#utility.yul\":6524:6528   */\n              0x20\n                /* \"#utility.yul\":6519:6522   */\n              dup3\n                /* \"#utility.yul\":6515:6529   */\n              add\n                /* \"#utility.yul\":6500:6529   */\n              swap1\n              pop\n                /* \"#utility.yul\":6366:6535   */\n              swap3\n              swap2\n              pop\n              pop\n              jump\t// out\n                /* \"#utility.yul\":6541:6726   */\n            tag_74:\n                /* \"#utility.yul\":6581:6582   */\n              0x00\n                /* \"#utility.yul\":6598:6618   */\n              tag_223\n                /* \"#utility.yul\":6616:6617   */\n              dup3\n                /* \"#utility.yul\":6598:6618   */\n              tag_190\n              jump\t// in\n            tag_223:\n                /* \"#utility.yul\":6593:6618   */\n              swap2\n              pop\n                /* \"#utility.yul\":6632:6652   */\n              tag_224\n                /* \"#utility.yul\":6650:6651   */\n              dup4\n                /* \"#utility.yul\":6632:6652   */\n              tag_190\n              jump\t// in\n            tag_224:\n                /* \"#utility.yul\":6627:6652   */\n              swap3\n              pop\n                /* \"#utility.yul\":6671:6672   */\n              dup3\n                /* \"#utility.yul\":6661:6696   */\n              tag_225\n              jumpi\n                /* \"#utility.yul\":6676:6694   */\n              tag_226\n              tag_227\n              jump\t// in\n            tag_226:\n                /* \"#utility.yul\":6661:6696   */\n            tag_225:\n                /* \"#utility.yul\":6718:6719   */\n              dup3\n                /* \"#utility.yul\":6715:6716   */\n              dup3\n                /* \"#utility.yul\":6711:6720   */\n              div\n                /* \"#utility.yul\":6706:6720   */\n              swap1\n              pop\n                /* \"#utility.yul\":6541:6726   */\n              swap3\n              swap2\n              pop\n              pop\n              jump\t// out\n                /* \"#utility.yul\":6732:6828   */\n            tag_172:\n                /* \"#utility.yul\":6769:6776   */\n              0x00\n                /* \"#utility.yul\":6798:6822   */\n              tag_229\n                /* \"#utility.yul\":6816:6821   */\n              dup3\n                /* \"#utility.yul\":6798:6822   */\n              tag_230\n              jump\t// in\n            tag_229:\n                /* \"#utility.yul\":6787:6822   */\n              swap1\n              pop\n                /* \"#utility.yul\":6732:6828   */\n              swap2\n              swap1\n              pop\n              jump\t// out\n                /* \"#utility.yul\":6834:6938   */\n            tag_168:\n                /* \"#utility.yul\":6879:6886   */\n              0x00\n                /* \"#utility.yul\":6908:6932   */\n              tag_232\n                /* \"#utility.yul\":6926:6931   */\n              dup3\n                /* \"#utility.yul\":6908:6932   */\n              tag_230\n              jump\t// in\n            tag_232:\n                /* \"#utility.yul\":6897:6932   */\n              swap1\n              pop\n                /* \"#utility.yul\":6834:6938   */\n              swap2\n              swap1\n              pop\n              jump\t// out\n                /* \"#utility.yul\":6944:7034   */\n            tag_176:\n                /* \"#utility.yul\":6978:6985   */\n              0x00\n                /* \"#utility.yul\":7021:7026   */\n              dup2\n                /* \"#utility.yul\":7014:7027   */\n              iszero\n                /* \"#utility.yul\":7007:7028   */\n              iszero\n                /* \"#utility.yul\":6996:7028   */\n              swap1\n              pop\n                /* \"#utility.yul\":6944:7034   */\n              swap2\n              swap1\n              pop\n              jump\t// out\n                /* \"#utility.yul\":7040:7166   */\n            tag_230:\n                /* \"#utility.yul\":7077:7084   */\n              0x00\n                /* \"#utility.yul\":7117:7159   */\n              0xffffffffffffffffffffffffffffffffffffffff\n                /* \"#utility.yul\":7110:7115   */\n              dup3\n                /* \"#utility.yul\":7106:7160   */\n              and\n                /* \"#utility.yul\":7095:7160   */\n              swap1\n              pop\n                /* \"#utility.yul\":7040:7166   */\n              swap2\n              swap1\n              pop\n              jump\t// out\n                /* \"#utility.yul\":7172:7249   */\n            tag_190:\n                /* \"#utility.yul\":7209:7216   */\n              0x00\n                /* \"#utility.yul\":7238:7243   */\n              dup2\n                /* \"#utility.yul\":7227:7243   */\n              swap1\n              pop\n                /* \"#utility.yul\":7172:7249   */\n              swap2\n              swap1\n              pop\n              jump\t// out\n                /* \"#utility.yul\":7255:7409   */\n            tag_128:\n                /* \"#utility.yul\":7339:7345   */\n              dup3\n                /* \"#utility.yul\":7334:7337   */\n              dup2\n                /* \"#utility.yul\":7329:7332   */\n              dup4\n                /* \"#utility.yul\":7316:7346   */\n              calldatacopy\n                /* \"#utility.yul\":7401:7402   */\n              0x00\n                /* \"#utility.yul\":7392:7398   */\n              dup4\n                /* \"#utility.yul\":7387:7390   */\n              dup4\n                /* \"#utility.yul\":7383:7399   */\n              add\n                /* \"#utility.yul\":7376:7403   */\n              mstore\n                /* \"#utility.yul\":7255:7409   */\n              pop\n              pop\n              pop\n              jump\t// out\n                /* \"#utility.yul\":7415:7722   */\n            tag_184:\n                /* \"#utility.yul\":7483:7484   */\n              0x00\n                /* \"#utility.yul\":7493:7606   */\n            tag_238:\n                /* \"#utility.yul\":7507:7513   */\n              dup4\n                /* \"#utility.yul\":7504:7505   */\n              dup2\n                /* \"#utility.yul\":7501:7514   */\n              lt\n                /* \"#utility.yul\":7493:7606   */\n              iszero\n              tag_240\n              jumpi\n                /* \"#utility.yul\":7592:7593   */\n              dup1\n                /* \"#utility.yul\":7587:7590   */\n              dup3\n                /* \"#utility.yul\":7583:7594   */\n              add\n                /* \"#utility.yul\":7577:7595   */\n              mload\n                /* \"#utility.yul\":7573:7574   */\n              dup2\n                /* \"#utility.yul\":7568:7571   */\n              dup5\n                /* \"#utility.yul\":7564:7575   */\n              add\n                /* \"#utility.yul\":7557:7596   */\n              mstore\n                /* \"#utility.yul\":7529:7531   */\n              0x20\n                /* \"#utility.yul\":7526:7527   */\n              dup2\n                /* \"#utility.yul\":7522:7532   */\n              add\n                /* \"#utility.yul\":7517:7532   */\n              swap1\n              pop\n                /* \"#utility.yul\":7493:7606   */\n              jump(tag_238)\n            tag_240:\n                /* \"#utility.yul\":7624:7630   */\n              dup4\n                /* \"#utility.yul\":7621:7622   */\n              dup2\n                /* \"#utility.yul\":7618:7631   */\n              gt\n                /* \"#utility.yul\":7615:7716   */\n              iszero\n              tag_241\n              jumpi\n                /* \"#utility.yul\":7704:7705   */\n              0x00\n                /* \"#utility.yul\":7695:7701   */\n              dup5\n                /* \"#utility.yul\":7690:7693   */\n              dup5\n                /* \"#utility.yul\":7686:7702   */\n              add\n                /* \"#utility.yul\":7679:7706   */\n              mstore\n                /* \"#utility.yul\":7615:7716   */\n            tag_241:\n                /* \"#utility.yul\":7464:7722   */\n              pop\n                /* \"#utility.yul\":7415:7722   */\n              pop\n              pop\n              pop\n              jump\t// out\n                /* \"#utility.yul\":7728:8048   */\n            tag_84:\n                /* \"#utility.yul\":7772:7778   */\n              0x00\n                /* \"#utility.yul\":7809:7810   */\n              0x02\n                /* \"#utility.yul\":7803:7807   */\n              dup3\n                /* \"#utility.yul\":7799:7811   */\n              div\n                /* \"#utility.yul\":7789:7811   */\n              swap1\n              pop\n                /* \"#utility.yul\":7856:7857   */\n              0x01\n                /* \"#utility.yul\":7850:7854   */\n              dup3\n                /* \"#utility.yul\":7846:7858   */\n              and\n                /* \"#utility.yul\":7877:7895   */\n              dup1\n                /* \"#utility.yul\":7867:7948   */\n              tag_243\n              jumpi\n                /* \"#utility.yul\":7933:7937   */\n              0x7f\n                /* \"#utility.yul\":7925:7931   */\n              dup3\n                /* \"#utility.yul\":7921:7938   */\n              and\n                /* \"#utility.yul\":7911:7938   */\n              swap2\n              pop\n                /* \"#utility.yul\":7867:7948   */\n            tag_243:\n                /* \"#utility.yul\":7995:7997   */\n              0x20\n                /* \"#utility.yul\":7987:7993   */\n              dup3\n                /* \"#utility.yul\":7984:7998   */\n              lt\n                /* \"#utility.yul\":7964:7982   */\n              dup2\n                /* \"#utility.yul\":7961:7999   */\n              eq\n                /* \"#utility.yul\":7958:8042   */\n              iszero\n              tag_244\n              jumpi\n                /* \"#utility.yul\":8014:8032   */\n              tag_245\n              tag_246\n              jump\t// in\n            tag_245:\n                /* \"#utility.yul\":7958:8042   */\n            tag_244:\n                /* \"#utility.yul\":7779:8048   */\n              pop\n                /* \"#utility.yul\":7728:8048   */\n              swap2\n              swap1\n              pop\n              jump\t// out\n                /* \"#utility.yul\":8054:8335   */\n            tag_213:\n                /* \"#utility.yul\":8137:8164   */\n              tag_248\n                /* \"#utility.yul\":8159:8163   */\n              dup3\n                /* \"#utility.yul\":8137:8164   */\n              tag_186\n              jump\t// in\n            tag_248:\n                /* \"#utility.yul\":8129:8135   */\n              dup2\n                /* \"#utility.yul\":8125:8165   */\n              add\n                /* \"#utility.yul\":8267:8273   */\n              dup2\n                /* \"#utility.yul\":8255:8265   */\n              dup2\n                /* \"#utility.yul\":8252:8274   */\n              lt\n                /* \"#utility.yul\":8231:8249   */\n              0xffffffffffffffff\n                /* \"#utility.yul\":8219:8229   */\n              dup3\n                /* \"#utility.yul\":8216:8250   */\n              gt\n                /* \"#utility.yul\":8213:8275   */\n              or\n                /* \"#utility.yul\":8210:8298   */\n              iszero\n              tag_249\n              jumpi\n                /* \"#utility.yul\":8278:8296   */\n              tag_250\n              tag_218\n              jump\t// in\n            tag_250:\n                /* \"#utility.yul\":8210:8298   */\n            tag_249:\n                /* \"#utility.yul\":8318:8328   */\n              dup1\n                /* \"#utility.yul\":8314:8316   */\n              0x40\n                /* \"#utility.yul\":8307:8329   */\n              mstore\n                /* \"#utility.yul\":8097:8335   */\n              pop\n                /* \"#utility.yul\":8054:8335   */\n              pop\n              pop\n              jump\t// out\n                /* \"#utility.yul\":8341:8574   */\n            tag_99:\n                /* \"#utility.yul\":8380:8383   */\n              0x00\n                /* \"#utility.yul\":8403:8427   */\n              tag_252\n                /* \"#utility.yul\":8421:8426   */\n              dup3\n                /* \"#utility.yul\":8403:8427   */\n              tag_190\n              jump\t// in\n            tag_252:\n                /* \"#utility.yul\":8394:8427   */\n              swap2\n              pop\n                /* \"#utility.yul\":8449:8515   */\n              0xffffffffffffffffffffffffffffffffffffffffffffffffffffffffffffffff\n                /* \"#utility.yul\":8442:8447   */\n              dup3\n                /* \"#utility.yul\":8439:8516   */\n              eq\n                /* \"#utility.yul\":8436:8539   */\n              iszero\n              tag_253\n              jumpi\n                /* \"#utility.yul\":8519:8537   */\n              tag_254\n              tag_255\n              jump\t// in\n            tag_254:\n                /* \"#utility.yul\":8436:8539   */\n            tag_253:\n                /* \"#utility.yul\":8566:8567   */\n              0x01\n                /* \"#utility.yul\":8559:8564   */\n              dup3\n                /* \"#utility.yul\":8555:8568   */\n              add\n                /* \"#utility.yul\":8548:8568   */\n              swap1\n              pop\n                /* \"#utility.yul\":8341:8574   */\n              swap2\n              swap1\n              pop\n              jump\t// out\n                /* \"#utility.yul\":8580:8760   */\n            tag_255:\n                /* \"#utility.yul\":8628:8705   */\n              0x4e487b7100000000000000000000000000000000000000000000000000000000\n                /* \"#utility.yul\":8625:8626   */\n              0x00\n                /* \"#utility.yul\":8618:8706   */\n              mstore\n                /* \"#utility.yul\":8725:8729   */\n              0x11\n                /* \"#utility.yul\":8722:8723   */\n              0x04\n                /* \"#utility.yul\":8715:8730   */\n              mstore\n                /* \"#utility.yul\":8749:8753   */\n              0x24\n                /* \"#utility.yul\":8746:8747   */\n              0x00\n                /* \"#utility.yul\":8739:8754   */\n              revert\n                /* \"#utility.yul\":8766:8946   */\n            tag_227:\n                /* \"#utility.yul\":8814:8891   */\n              0x4e487b7100000000000000000000000000000000000000000000000000000000\n                /* \"#utility.yul\":8811:8812   */\n              0x00\n                /* \"#utility.yul\":8804:8892   */\n              mstore\n                /* \"#utility.yul\":8911:8915   */\n              0x12\n                /* \"#utility.yul\":8908:8909   */\n              0x04\n                /* \"#utility.yul\":8901:8916   */\n              mstore\n                /* \"#utility.yul\":8935:8939   */\n              0x24\n                /* \"#utility.yul\":8932:8933   */\n              0x00\n                /* \"#utility.yul\":8925:8940   */\n              revert\n                /* \"#utility.yul\":8952:9132   */\n            tag_246:\n                /* \"#utility.yul\":9000:9077   */\n              0x4e487b7100000000000000000000000000000000000000000000000000000000\n                /* \"#utility.yul\":8997:8998   */\n              0x00\n                /* \"#utility.yul\":8990:9078   */\n              mstore\n                /* \"#utility.yul\":9097:9101   */\n              0x22\n                /* \"#utility.yul\":9094:9095   */\n              0x04\n                /* \"#utility.yul\":9087:9102   */\n              mstore\n                /* \"#utility.yul\":9121:9125   */\n              0x24\n                /* \"#utility.yul\":9118:9119   */\n              0x00\n                /* \"#utility.yul\":9111:9126   */\n              revert\n                /* \"#utility.yul\":9138:9318   */\n            tag_71:\n                /* \"#utility.yul\":9186:9263   */\n              0x4e487b7100000000000000000000000000000000000000000000000000000000\n                /* \"#utility.yul\":9183:9184   */\n              0x00\n                /* \"#utility.yul\":9176:9264   */\n              mstore\n                /* \"#utility.yul\":9283:9287   */\n              0x32\n                /* \"#utility.yul\":9280:9281   */\n              0x04\n                /* \"#utility.yul\":9273:9288   */\n              mstore\n                /* \"#utility.yul\":9307:9311   */\n              0x24\n                /* \"#utility.yul\":9304:9305   */\n              0x00\n                /* \"#utility.yul\":9297:9312   */\n              revert\n                /* \"#utility.yul\":9324:9504   */\n            tag_218:\n                /* \"#utility.yul\":9372:9449   */\n              0x4e487b7100000000000000000000000000000000000000000000000000000000\n                /* \"#utility.yul\":9369:9370   */\n              0x00\n                /* \"#utility.yul\":9362:9450   */\n              mstore\n                /* \"#utility.yul\":9469:9473   */\n              0x41\n                /* \"#utility.yul\":9466:9467   */\n              0x04\n                /* \"#utility.yul\":9459:9474   */\n              mstore\n                /* \"#utility.yul\":9493:9497   */\n              0x24\n                /* \"#utility.yul\":9490:9491   */\n              0x00\n                /* \"#utility.yul\":9483:9498   */\n              revert\n                /* \"#utility.yul\":9510:9627   */\n            tag_141:\n                /* \"#utility.yul\":9619:9620   */\n              0x00\n                /* \"#utility.yul\":9616:9617   */\n              dup1\n                /* \"#utility.yul\":9609:9621   */\n              revert\n                /* \"#utility.yul\":9633:9750   */\n            tag_126:\n                /* \"#utility.yul\":9742:9743   */\n              0x00\n                /* \"#utility.yul\":9739:9740   */\n              dup1\n                /* \"#utility.yul\":9732:9744   */\n              revert\n                /* \"#utility.yul\":9756:9873   */\n            tag_157:\n                /* \"#utility.yul\":9865:9866   */\n              0x00\n                /* \"#utility.yul\":9862:9863   */\n              dup1\n                /* \"#utility.yul\":9855:9867   */\n              revert\n                /* \"#utility.yul\":9879:9996   */\n            tag_150:\n                /* \"#utility.yul\":9988:9989   */\n              0x00\n                /* \"#utility.yul\":9985:9986   */\n              dup1\n                /* \"#utility.yul\":9978:9990   */\n              revert\n                /* \"#utility.yul\":10002:10104   */\n            tag_186:\n                /* \"#utility.yul\":10043:10049   */\n              0x00\n                /* \"#utility.yul\":10094:10096   */\n              0x1f\n                /* \"#utility.yul\":10090:10097   */\n              not\n                /* \"#utility.yul\":10085:10087   */\n              0x1f\n                /* \"#utility.yul\":10078:10083   */\n              dup4\n                /* \"#utility.yul\":10074:10088   */\n              add\n                /* \"#utility.yul\":10070:10098   */\n              and\n                /* \"#utility.yul\":10060:10098   */\n              swap1\n              pop\n                /* \"#utility.yul\":10002:10104   */\n              swap2\n              swap1\n              pop\n              jump\t// out\n                /* \"#utility.yul\":10110:10232   */\n            tag_132:\n                /* \"#utility.yul\":10183:10207   */\n              tag_267\n                /* \"#utility.yul\":10201:10206   */\n              dup2\n                /* \"#utility.yul\":10183:10207   */\n              tag_172\n              jump\t// in\n            tag_267:\n                /* \"#utility.yul\":10176:10181   */\n              dup2\n                /* \"#utility.yul\":10173:10208   */\n              eq\n                /* \"#utility.yul\":10163:10226   */\n              tag_268\n              jumpi\n                /* \"#utility.yul\":10222:10223   */\n              0x00\n                /* \"#utility.yul\":10219:10220   */\n              dup1\n                /* \"#utility.yul\":10212:10224   */\n              revert\n                /* \"#utility.yul\":10163:10226   */\n            tag_268:\n                /* \"#utility.yul\":10110:10232   */\n              pop\n              jump\t// out\n                /* \"#utility.yul\":10238:10376   */\n            tag_136:\n                /* \"#utility.yul\":10319:10351   */\n              tag_270\n                /* \"#utility.yul\":10345:10350   */\n              dup2\n                /* \"#utility.yul\":10319:10351   */\n              tag_168\n              jump\t// in\n            tag_270:\n                /* \"#utility.yul\":10312:10317   */\n              dup2\n                /* \"#utility.yul\":10309:10352   */\n              eq\n                /* \"#utility.yul\":10299:10370   */\n              tag_271\n              jumpi\n                /* \"#utility.yul\":10366:10367   */\n              0x00\n                /* \"#utility.yul\":10363:10364   */\n              dup1\n                /* \"#utility.yul\":10356:10368   */\n              revert\n                /* \"#utility.yul\":10299:10370   */\n            tag_271:\n                /* \"#utility.yul\":10238:10376   */\n              pop\n              jump\t// out\n                /* \"#utility.yul\":10382:10504   */\n            tag_146:\n                /* \"#utility.yul\":10455:10479   */\n              tag_273\n                /* \"#utility.yul\":10473:10478   */\n              dup2\n                /* \"#utility.yul\":10455:10479   */\n              tag_190\n              jump\t// in\n            tag_273:\n                /* \"#utility.yul\":10448:10453   */\n              dup2\n                /* \"#utility.yul\":10445:10480   */\n              eq\n                /* \"#utility.yul\":10435:10498   */\n              tag_274\n              jumpi\n                /* \"#utility.yul\":10494:10495   */\n              0x00\n                /* \"#utility.yul\":10491:10492   */\n              dup1\n                /* \"#utility.yul\":10484:10496   */\n              revert\n                /* \"#utility.yul\":10435:10498   */\n            tag_274:\n                /* \"#utility.yul\":10382:10504   */\n              pop\n              jump\t// out\n\n            auxdata: 0xa2646970667358221220bf50d04c488dc5c2de012ddc14bf319da13080bb0b5d8abcb43e7b0aedd457da64736f6c63430008070033\n        }\n    }\n\n    auxdata: 0xa26469706673582212202c76002e8cd032144e408183e2d6ebed32d1075a1716321b57b7f6e5e80c02d264736f6c63430008070033\n}\n",
    "bytecode": {
      "linkReferences": {},
      "object": "608060405234801561001057600080fd5b506115dd806100206000396000f3fe608060405234801561001057600080fd5b50600436106100575760003560e01c806307399b261461005c578063339d50a51461008c57806344c89b65146100bc57806351b53e07146100da578063a3303a75146100f8575b600080fd5b61007660048036038101906100719190610285565b610114565b60405161008391906102d0565b60405180910390f35b6100a660048036038101906100a19190610285565b61015b565b6040516100b391906102d0565b60405180910390f35b6100c461019a565b6040516100d191906102eb565b60405180910390f35b6100e26101a0565b6040516100ef91906102eb565b60405180910390f35b610112600480360381019061010d9190610285565b6101aa565b005b6000808281548110610129576101286103e3565b5b9060005260206000200160009054906101000a900473ffffffffffffffffffffffffffffffffffffffff169050919050565b6000818154811061016b57600080fd5b906000526020600020016000915054906101000a900473ffffffffffffffffffffffffffffffffffffffff1681565b60015481565b6000600154905090565b600081336040516101ba90610263565b6101c5929190610306565b604051809103906000f0801580156101e1573d6000803e3d6000fd5b5090506000819080600181540180825580915050600190039060005260206000200160009091909190916101000a81548173ffffffffffffffffffffffffffffffffffffffff021916908373ffffffffffffffffffffffffffffffffffffffff1602179055506001600081548092919061025a9061036b565b91905055505050565b6111798061042f83390190565b60008135905061027f81610417565b92915050565b60006020828403121561029b5761029a610412565b5b60006102a984828501610270565b91505092915050565b6102bb8161032f565b82525050565b6102ca81610361565b82525050565b60006020820190506102e560008301846102b2565b92915050565b600060208201905061030060008301846102c1565b92915050565b600060408201905061031b60008301856102c1565b61032860208301846102b2565b9392505050565b600061033a82610341565b9050919050565b600073ffffffffffffffffffffffffffffffffffffffff82169050919050565b6000819050919050565b600061037682610361565b91507fffffffffffffffffffffffffffffffffffffffffffffffffffffffffffffffff8214156103a9576103a86103b4565b5b600182019050919050565b7f4e487b7100000000000000000000000000000000000000000000000000000000600052601160045260246000fd5b7f4e487b7100000000000000000000000000000000000000000000000000000000600052603260045260246000fd5b600080fd5b61042081610361565b811461042b57600080fd5b5056fe60806040523480156200001157600080fd5b5060405162001179380380620011798339818101604052810190620000379190620000b5565b80600260006101000a81548173ffffffffffffffffffffffffffffffffffffffff021916908373ffffffffffffffffffffffffffffffffffffffff16021790555081600381905550505062000173565b60008151905062000098816200013f565b92915050565b600081519050620000af8162000159565b92915050565b60008060408385031215620000cf57620000ce6200013a565b5b6000620000df858286016200009e565b9250506020620000f28582860162000087565b9150509250929050565b6000620001098262000110565b9050919050565b600073ffffffffffffffffffffffffffffffffffffffff82169050919050565b6000819050919050565b600080fd5b6200014a81620000fc565b81146200015657600080fd5b50565b620001648162000130565b81146200017057600080fd5b50565b610ff680620001836000396000f3fe60806040526004361061009c5760003560e01c806381d12c581161006457806381d12c581461017a5780638a9cfd55146101bb578063937e09b1146101e4578063d24f8cdd1461020f578063d7bb99ba1461024c578063d7d1bbdb146102565761009c565b806303441006146100a15780633410452a146100ca5780634051ddac146100f5578063481c6a751461012457806372e871681461014f575b600080fd5b3480156100ad57600080fd5b506100c860048036038101906100c39190610ae0565b61027f565b005b3480156100d657600080fd5b506100df6103c8565b6040516100ec9190610c12565b60405180910390f35b34801561010157600080fd5b5061010a6103d4565b60405161011b959493929190610c2d565b60405180910390f35b34801561013057600080fd5b5061013961041d565b6040516101469190610b82565b60405180910390f35b34801561015b57600080fd5b50610164610443565b6040516101719190610c12565b60405180910390f35b34801561018657600080fd5b506101a1600480360381019061019c9190610ae0565b610449565b6040516101b2959493929190610bb8565b60405180910390f35b3480156101c757600080fd5b506101e260048036038101906101dd9190610a71565b610544565b005b3480156101f057600080fd5b506101f9610705565b6040516102069190610c12565b60405180910390f35b34801561021b57600080fd5b5061023660048036038101906102319190610a44565b61070b565b6040516102439190610b9d565b60405180910390f35b61025461072b565b005b34801561026257600080fd5b5061027d60048036038101906102789190610ae0565b6107ab565b005b600260009054906101000a900473ffffffffffffffffffffffffffffffffffffffff1673ffffffffffffffffffffffffffffffffffffffff163373ffffffffffffffffffffffffffffffffffffffff16146102d957600080fd5b60008082815481106102ee576102ed610ef8565b5b90600052602060002090600402019050600260045461030d9190610cf2565b81600301541161031c57600080fd5b8060020160149054906101000a900460ff161561033857600080fd5b8060020160009054906101000a900473ffffffffffffffffffffffffffffffffffffffff1673ffffffffffffffffffffffffffffffffffffffff166108fc82600101549081150290604051600060405180830381858888f193505050501580156103a6573d6000803e3d6000fd5b5060018160020160146101000a81548160ff0219169083151502179055505050565b60008080549050905090565b600080600080600060035447600080549050600454600260009054906101000a900473ffffffffffffffffffffffffffffffffffffffff16945094509450945094509091929394565b600260009054906101000a900473ffffffffffffffffffffffffffffffffffffffff1681565b60045481565b6000818154811061045957600080fd5b906000526020600020906004020160009150905080600001805461047c90610dbf565b80601f01602080910402602001604051908101604052809291908181526020018280546104a890610dbf565b80156104f55780601f106104ca576101008083540402835291602001916104f5565b820191906000526020600020905b8154815290600101906020018083116104d857829003601f168201915b5050505050908060010154908060020160009054906101000a900473ffffffffffffffffffffffffffffffffffffffff16908060020160149054906101000a900460ff16908060030154905085565b600260009054906101000a900473ffffffffffffffffffffffffffffffffffffffff1673ffffffffffffffffffffffffffffffffffffffff163373ffffffffffffffffffffffffffffffffffffffff161461059e57600080fd5b600560003373ffffffffffffffffffffffffffffffffffffffff1673ffffffffffffffffffffffffffffffffffffffff16815260200190815260200160002060009054906101000a900460ff166105f457600080fd5b60006040518060a001604052808581526020018481526020018373ffffffffffffffffffffffffffffffffffffffff16815260200160001515815260200160008152509050600081908060018154018082558091505060019003906000526020600020906004020160009091909190915060008201518160000190805190602001906106819291906108f2565b506020820151816001015560408201518160020160006101000a81548173ffffffffffffffffffffffffffffffffffffffff021916908373ffffffffffffffffffffffffffffffffffffffff16021790555060608201518160020160146101000a81548160ff02191690831515021790555060808201518160030155505050505050565b60035481565b60056020528060005260406000206000915054906101000a900460ff1681565b600354341161073957600080fd5b6001600560003373ffffffffffffffffffffffffffffffffffffffff1673ffffffffffffffffffffffffffffffffffffffff16815260200190815260200160002060006101000a81548160ff021916908315150217905550600460008154809291906107a490610e22565b9190505550565b60008082815481106107c0576107bf610ef8565b5b90600052602060002090600402019050600560003373ffffffffffffffffffffffffffffffffffffffff1673ffffffffffffffffffffffffffffffffffffffff16815260200190815260200160002060009054906101000a900460ff1661082657600080fd5b600160003373ffffffffffffffffffffffffffffffffffffffff1673ffffffffffffffffffffffffffffffffffffffff16815260200190815260200160002060009054906101000a900460ff161561087d57600080fd5b60018060003373ffffffffffffffffffffffffffffffffffffffff1673ffffffffffffffffffffffffffffffffffffffff16815260200190815260200160002060006101000a81548160ff0219169083151502179055508060030160008154809291906108e990610e22565b91905055505050565b8280546108fe90610dbf565b90600052602060002090601f0160209004810192826109205760008555610967565b82601f1061093957805160ff1916838001178555610967565b82800160010185558215610967579182015b8281111561096657825182559160200191906001019061094b565b5b5090506109749190610978565b5090565b5b80821115610991576000816000905550600101610979565b5090565b60006109a86109a384610ca5565b610c80565b9050828152602081018484840111156109c4576109c3610f5b565b5b6109cf848285610d7d565b509392505050565b6000813590506109e681610f7b565b92915050565b6000813590506109fb81610f92565b92915050565b600082601f830112610a1657610a15610f56565b5b8135610a26848260208601610995565b91505092915050565b600081359050610a3e81610fa9565b92915050565b600060208284031215610a5a57610a59610f65565b5b6000610a68848285016109d7565b91505092915050565b600080600060608486031215610a8a57610a89610f65565b5b600084013567ffffffffffffffff811115610aa857610aa7610f60565b5b610ab486828701610a01565b9350506020610ac586828701610a2f565b9250506040610ad6868287016109ec565b9150509250925092565b600060208284031215610af657610af5610f65565b5b6000610b0484828501610a2f565b91505092915050565b610b1681610d35565b82525050565b610b2581610d23565b82525050565b610b3481610d47565b82525050565b6000610b4582610cd6565b610b4f8185610ce1565b9350610b5f818560208601610d8c565b610b6881610f6a565b840191505092915050565b610b7c81610d73565b82525050565b6000602082019050610b976000830184610b1c565b92915050565b6000602082019050610bb26000830184610b2b565b92915050565b600060a0820190508181036000830152610bd28188610b3a565b9050610be16020830187610b73565b610bee6040830186610b0d565b610bfb6060830185610b2b565b610c086080830184610b73565b9695505050505050565b6000602082019050610c276000830184610b73565b92915050565b600060a082019050610c426000830188610b73565b610c4f6020830187610b73565b610c5c6040830186610b73565b610c696060830185610b73565b610c766080830184610b1c565b9695505050505050565b6000610c8a610c9b565b9050610c968282610df1565b919050565b6000604051905090565b600067ffffffffffffffff821115610cc057610cbf610f27565b5b610cc982610f6a565b9050602081019050919050565b600081519050919050565b600082825260208201905092915050565b6000610cfd82610d73565b9150610d0883610d73565b925082610d1857610d17610e9a565b5b828204905092915050565b6000610d2e82610d53565b9050919050565b6000610d4082610d53565b9050919050565b60008115159050919050565b600073ffffffffffffffffffffffffffffffffffffffff82169050919050565b6000819050919050565b82818337600083830152505050565b60005b83811015610daa578082015181840152602081019050610d8f565b83811115610db9576000848401525b50505050565b60006002820490506001821680610dd757607f821691505b60208210811415610deb57610dea610ec9565b5b50919050565b610dfa82610f6a565b810181811067ffffffffffffffff82111715610e1957610e18610f27565b5b80604052505050565b6000610e2d82610d73565b91507fffffffffffffffffffffffffffffffffffffffffffffffffffffffffffffffff821415610e6057610e5f610e6b565b5b600182019050919050565b7f4e487b7100000000000000000000000000000000000000000000000000000000600052601160045260246000fd5b7f4e487b7100000000000000000000000000000000000000000000000000000000600052601260045260246000fd5b7f4e487b7100000000000000000000000000000000000000000000000000000000600052602260045260246000fd5b7f4e487b7100000000000000000000000000000000000000000000000000000000600052603260045260246000fd5b7f4e487b7100000000000000000000000000000000000000000000000000000000600052604160045260246000fd5b600080fd5b600080fd5b600080fd5b600080fd5b6000601f19601f8301169050919050565b610f8481610d23565b8114610f8f57600080fd5b50565b610f9b81610d35565b8114610fa657600080fd5b50565b610fb281610d73565b8114610fbd57600080fd5b5056fea2646970667358221220bf50d04c488dc5c2de012ddc14bf319da13080bb0b5d8abcb43e7b0aedd457da64736f6c63430008070033a26469706673582212202c76002e8cd032144e408183e2d6ebed32d1075a1716321b57b7f6e5e80c02d264736f6c63430008070033",
      "opcodes": "PUSH1 0x80 PUSH1 0x40 MSTORE CALLVALUE DUP1 ISZERO PUSH2 0x10 JUMPI PUSH1 0x0 DUP1 REVERT JUMPDEST POP PUSH2 0x15DD DUP1 PUSH2 0x20 PUSH1 0x0 CODECOPY PUSH1 0x0 RETURN INVALID PUSH1 0x80 PUSH1 0x40 MSTORE CALLVALUE DUP1 ISZERO PUSH2 0x10 JUMPI PUSH1 0x0 DUP1 REVERT JUMPDEST POP PUSH1 0x4 CALLDATASIZE LT PUSH2 0x57 JUMPI PUSH1 0x0 CALLDATALOAD PUSH1 0xE0 SHR DUP1 PUSH4 0x7399B26 EQ PUSH2 0x5C JUMPI DUP1 PUSH4 0x339D50A5 EQ PUSH2 0x8C JUMPI DUP1 PUSH4 0x44C89B65 EQ PUSH2 0xBC JUMPI DUP1 PUSH4 0x51B53E07 EQ PUSH2 0xDA JUMPI DUP1 PUSH4 0xA3303A75 EQ PUSH2 0xF8 JUMPI JUMPDEST PUSH1 0x0 DUP1 REVERT JUMPDEST PUSH2 0x76 PUSH1 0x4 DUP1 CALLDATASIZE SUB DUP2 ADD SWAP1 PUSH2 0x71 SWAP2 SWAP1 PUSH2 0x285 JUMP JUMPDEST PUSH2 0x114 JUMP JUMPDEST PUSH1 0x40 MLOAD PUSH2 0x83 SWAP2 SWAP1 PUSH2 0x2D0 JUMP JUMPDEST PUSH1 0x40 MLOAD DUP1 SWAP2 SUB SWAP1 RETURN JUMPDEST PUSH2 0xA6 PUSH1 0x4 DUP1 CALLDATASIZE SUB DUP2 ADD SWAP1 PUSH2 0xA1 SWAP2 SWAP1 PUSH2 0x285 JUMP JUMPDEST PUSH2 0x15B JUMP JUMPDEST PUSH1 0x40 MLOAD PUSH2 0xB3 SWAP2 SWAP1 PUSH2 0x2D0 JUMP JUMPDEST PUSH1 0x40 MLOAD DUP1 SWAP2 SUB SWAP1 RETURN JUMPDEST PUSH2 0xC4 PUSH2 0x19A JUMP JUMPDEST PUSH1 0x40 MLOAD PUSH2 0xD1 SWAP2 SWAP1 PUSH2 0x2EB JUMP JUMPDEST PUSH1 0x40 MLOAD DUP1 SWAP2 SUB SWAP1 RETURN JUMPDEST PUSH2 0xE2 PUSH2 0x1A0 JUMP JUMPDEST PUSH1 0x40 MLOAD PUSH2 0xEF SWAP2 SWAP1 PUSH2 0x2EB JUMP JUMPDEST PUSH1 0x40 MLOAD DUP1 SWAP2 SUB SWAP1 RETURN JUMPDEST PUSH2 0x112 PUSH1 0x4 DUP1 CALLDATASIZE SUB DUP2 ADD SWAP1 PUSH2 0x10D SWAP2 SWAP1 PUSH2 0x285 JUMP JUMPDEST PUSH2 0x1AA JUMP JUMPDEST STOP JUMPDEST PUSH1 0x0 DUP1 DUP3 DUP2 SLOAD DUP2 LT PUSH2 0x129 JUMPI PUSH2 0x128 PUSH2 0x3E3 JUMP JUMPDEST JUMPDEST SWAP1 PUSH1 0x0 MSTORE PUSH1 0x20 PUSH1 0x0 KECCAK256 ADD PUSH1 0x0 SWAP1 SLOAD SWAP1 PUSH2 0x100 EXP SWAP1 DIV PUSH20 0xFFFFFFFFFFFFFFFFFFFFFFFFFFFFFFFFFFFFFFFF AND SWAP1 POP SWAP2 SWAP1 POP JUMP JUMPDEST PUSH1 0x0 DUP2 DUP2 SLOAD DUP2 LT PUSH2 0x16B JUMPI PUSH1 0x0 DUP1 REVERT JUMPDEST SWAP1 PUSH1 0x0 MSTORE PUSH1 0x20 PUSH1 0x0 KECCAK256 ADD PUSH1 0x0 SWAP2 POP SLOAD SWAP1 PUSH2 0x100 EXP SWAP1 DIV PUSH20 0xFFFFFFFFFFFFFFFFFFFFFFFFFFFFFFFFFFFFFFFF AND DUP2 JUMP JUMPDEST PUSH1 0x1 SLOAD DUP2 JUMP JUMPDEST PUSH1 0x0 PUSH1 0x1 SLOAD SWAP1 POP SWAP1 JUMP JUMPDEST PUSH1 0x0 DUP2 CALLER PUSH1 0x40 MLOAD PUSH2 0x1BA SWAP1 PUSH2 0x263 JUMP JUMPDEST PUSH2 0x1C5 SWAP3 SWAP2 SWAP1 PUSH2 0x306 JUMP JUMPDEST PUSH1 0x40 MLOAD DUP1 SWAP2 SUB SWAP1 PUSH1 0x0 CREATE DUP1 ISZERO DUP1 ISZERO PUSH2 0x1E1 JUMPI RETURNDATASIZE PUSH1 0x0 DUP1 RETURNDATACOPY RETURNDATASIZE PUSH1 0x0 REVERT JUMPDEST POP SWAP1 POP PUSH1 0x0 DUP2 SWAP1 DUP1 PUSH1 0x1 DUP2 SLOAD ADD DUP1 DUP3 SSTORE DUP1 SWAP2 POP POP PUSH1 0x1 SWAP1 SUB SWAP1 PUSH1 0x0 MSTORE PUSH1 0x20 PUSH1 0x0 KECCAK256 ADD PUSH1 0x0 SWAP1 SWAP2 SWAP1 SWAP2 SWAP1 SWAP2 PUSH2 0x100 EXP DUP2 SLOAD DUP2 PUSH20 0xFFFFFFFFFFFFFFFFFFFFFFFFFFFFFFFFFFFFFFFF MUL NOT AND SWAP1 DUP4 PUSH20 0xFFFFFFFFFFFFFFFFFFFFFFFFFFFFFFFFFFFFFFFF AND MUL OR SWAP1 SSTORE POP PUSH1 0x1 PUSH1 0x0 DUP2 SLOAD DUP1 SWAP3 SWAP2 SWAP1 PUSH2 0x25A SWAP1 PUSH2 0x36B JUMP JUMPDEST SWAP2 SWAP1 POP SSTORE POP POP POP JUMP JUMPDEST PUSH2 0x1179 DUP1 PUSH2 0x42F DUP4 CODECOPY ADD SWAP1 JUMP JUMPDEST PUSH1 0x0 DUP2 CALLDATALOAD SWAP1 POP PUSH2 0x27F DUP2 PUSH2 0x417 JUMP JUMPDEST SWAP3 SWAP2 POP POP JUMP JUMPDEST PUSH1 0x0 PUSH1 0x20 DUP3 DUP5 SUB SLT ISZERO PUSH2 0x29B JUMPI PUSH2 0x29A PUSH2 0x412 JUMP JUMPDEST JUMPDEST PUSH1 0x0 PUSH2 0x2A9 DUP5 DUP3 DUP6 ADD PUSH2 0x270 JUMP JUMPDEST SWAP2 POP POP SWAP3 SWAP2 POP POP JUMP JUMPDEST PUSH2 0x2BB DUP2 PUSH2 0x32F JUMP JUMPDEST DUP3 MSTORE POP POP JUMP JUMPDEST PUSH2 0x2CA DUP2 PUSH2 0x361 JUMP JUMPDEST DUP3 MSTORE POP POP JUMP JUMPDEST PUSH1 0x0 PUSH1 0x20 DUP3 ADD SWAP1 POP PUSH2 0x2E5 PUSH1 0x0 DUP4 ADD DUP5 PUSH2 0x2B2 JUMP JUMPDEST SWAP3 SWAP2 POP POP JUMP JUMPDEST PUSH1 0x0 PUSH1 0x20 DUP3 ADD SWAP1 POP PUSH2 0x300 PUSH1 0x0 DUP4 ADD DUP5 PUSH2 0x2C1 JUMP JUMPDEST SWAP3 SWAP2 POP POP JUMP JUMPDEST PUSH1 0x0 PUSH1 0x40 DUP3 ADD SWAP1 POP PUSH2 0x31B PUSH1 0x0 DUP4 ADD DUP6 PUSH2 0x2C1 JUMP JUMPDEST PUSH2 0x328 PUSH1 0x20 DUP4 ADD DUP5 PUSH2 0x2B2 JUMP JUMPDEST SWAP4 SWAP3 POP POP POP JUMP JUMPDEST PUSH1 0x0 PUSH2 0x33A DUP3 PUSH2 0x341 JUMP JUMPDEST SWAP1 POP SWAP2 SWAP1 POP JUMP JUMPDEST PUSH1 0x0 PUSH20 0xFFFFFFFFFFFFFFFFFFFFFFFFFFFFFFFFFFFFFFFF DUP3 AND SWAP1 POP SWAP2 SWAP1 POP JUMP JUMPDEST PUSH1 0x0 DUP2 SWAP1 POP SWAP2 SWAP1 POP JUMP JUMPDEST PUSH1 0x0 PUSH2 0x376 DUP3 PUSH2 0x361 JUMP JUMPDEST SWAP2 POP PUSH32 0xFFFFFFFFFFFFFFFFFFFFFFFFFFFFFFFFFFFFFFFFFFFFFFFFFFFFFFFFFFFFFFFF DUP3 EQ ISZERO PUSH2 0x3A9 JUMPI PUSH2 0x3A8 PUSH2 0x3B4 JUMP JUMPDEST JUMPDEST PUSH1 0x1 DUP3 ADD SWAP1 POP SWAP2 SWAP1 POP JUMP JUMPDEST PUSH32 0x4E487B7100000000000000000000000000000000000000000000000000000000 PUSH1 0x0 MSTORE PUSH1 0x11 PUSH1 0x4 MSTORE PUSH1 0x24 PUSH1 0x0 REVERT JUMPDEST PUSH32 0x4E487B7100000000000000000000000000000000000000000000000000000000 PUSH1 0x0 MSTORE PUSH1 0x32 PUSH1 0x4 MSTORE PUSH1 0x24 PUSH1 0x0 REVERT JUMPDEST PUSH1 0x0 DUP1 REVERT JUMPDEST PUSH2 0x420 DUP2 PUSH2 0x361 JUMP JUMPDEST DUP2 EQ PUSH2 0x42B JUMPI PUSH1 0x0 DUP1 REVERT JUMPDEST POP JUMP INVALID PUSH1 0x80 PUSH1 0x40 MSTORE CALLVALUE DUP1 ISZERO PUSH3 0x11 JUMPI PUSH1 0x0 DUP1 REVERT JUMPDEST POP PUSH1 0x40 MLOAD PUSH3 0x1179 CODESIZE SUB DUP1 PUSH3 0x1179 DUP4 CODECOPY DUP2 DUP2 ADD PUSH1 0x40 MSTORE DUP2 ADD SWAP1 PUSH3 0x37 SWAP2 SWAP1 PUSH3 0xB5 JUMP JUMPDEST DUP1 PUSH1 0x2 PUSH1 0x0 PUSH2 0x100 EXP DUP2 SLOAD DUP2 PUSH20 0xFFFFFFFFFFFFFFFFFFFFFFFFFFFFFFFFFFFFFFFF MUL NOT AND SWAP1 DUP4 PUSH20 0xFFFFFFFFFFFFFFFFFFFFFFFFFFFFFFFFFFFFFFFF AND MUL OR SWAP1 SSTORE POP DUP2 PUSH1 0x3 DUP2 SWAP1 SSTORE POP POP POP PUSH3 0x173 JUMP JUMPDEST PUSH1 0x0 DUP2 MLOAD SWAP1 POP PUSH3 0x98 DUP2 PUSH3 0x13F JUMP JUMPDEST SWAP3 SWAP2 POP POP JUMP JUMPDEST PUSH1 0x0 DUP2 MLOAD SWAP1 POP PUSH3 0xAF DUP2 PUSH3 0x159 JUMP JUMPDEST SWAP3 SWAP2 POP POP JUMP JUMPDEST PUSH1 0x0 DUP1 PUSH1 0x40 DUP4 DUP6 SUB SLT ISZERO PUSH3 0xCF JUMPI PUSH3 0xCE PUSH3 0x13A JUMP JUMPDEST JUMPDEST PUSH1 0x0 PUSH3 0xDF DUP6 DUP3 DUP7 ADD PUSH3 0x9E JUMP JUMPDEST SWAP3 POP POP PUSH1 0x20 PUSH3 0xF2 DUP6 DUP3 DUP7 ADD PUSH3 0x87 JUMP JUMPDEST SWAP2 POP POP SWAP3 POP SWAP3 SWAP1 POP JUMP JUMPDEST PUSH1 0x0 PUSH3 0x109 DUP3 PUSH3 0x110 JUMP JUMPDEST SWAP1 POP SWAP2 SWAP1 POP JUMP JUMPDEST PUSH1 0x0 PUSH20 0xFFFFFFFFFFFFFFFFFFFFFFFFFFFFFFFFFFFFFFFF DUP3 AND SWAP1 POP SWAP2 SWAP1 POP JUMP JUMPDEST PUSH1 0x0 DUP2 SWAP1 POP SWAP2 SWAP1 POP JUMP JUMPDEST PUSH1 0x0 DUP1 REVERT JUMPDEST PUSH3 0x14A DUP2 PUSH3 0xFC JUMP JUMPDEST DUP2 EQ PUSH3 0x156 JUMPI PUSH1 0x0 DUP1 REVERT JUMPDEST POP JUMP JUMPDEST PUSH3 0x164 DUP2 PUSH3 0x130 JUMP JUMPDEST DUP2 EQ PUSH3 0x170 JUMPI PUSH1 0x0 DUP1 REVERT JUMPDEST POP JUMP JUMPDEST PUSH2 0xFF6 DUP1 PUSH3 0x183 PUSH1 0x0 CODECOPY PUSH1 0x0 RETURN INVALID PUSH1 0x80 PUSH1 0x40 MSTORE PUSH1 0x4 CALLDATASIZE LT PUSH2 0x9C JUMPI PUSH1 0x0 CALLDATALOAD PUSH1 0xE0 SHR DUP1 PUSH4 0x81D12C58 GT PUSH2 0x64 JUMPI DUP1 PUSH4 0x81D12C58 EQ PUSH2 0x17A JUMPI DUP1 PUSH4 0x8A9CFD55 EQ PUSH2 0x1BB JUMPI DUP1 PUSH4 0x937E09B1 EQ PUSH2 0x1E4 JUMPI DUP1 PUSH4 0xD24F8CDD EQ PUSH2 0x20F JUMPI DUP1 PUSH4 0xD7BB99BA EQ PUSH2 0x24C JUMPI DUP1 PUSH4 0xD7D1BBDB EQ PUSH2 0x256 JUMPI PUSH2 0x9C JUMP JUMPDEST DUP1 PUSH4 0x3441006 EQ PUSH2 0xA1 JUMPI DUP1 PUSH4 0x3410452A EQ PUSH2 0xCA JUMPI DUP1 PUSH4 0x4051DDAC EQ PUSH2 0xF5 JUMPI DUP1 PUSH4 0x481C6A75 EQ PUSH2 0x124 JUMPI DUP1 PUSH4 0x72E87168 EQ PUSH2 0x14F JUMPI JUMPDEST PUSH1 0x0 DUP1 REVERT JUMPDEST CALLVALUE DUP1 ISZERO PUSH2 0xAD JUMPI PUSH1 0x0 DUP1 REVERT JUMPDEST POP PUSH2 0xC8 PUSH1 0x4 DUP1 CALLDATASIZE SUB DUP2 ADD SWAP1 PUSH2 0xC3 SWAP2 SWAP1 PUSH2 0xAE0 JUMP JUMPDEST PUSH2 0x27F JUMP JUMPDEST STOP JUMPDEST CALLVALUE DUP1 ISZERO PUSH2 0xD6 JUMPI PUSH1 0x0 DUP1 REVERT JUMPDEST POP PUSH2 0xDF PUSH2 0x3C8 JUMP JUMPDEST PUSH1 0x40 MLOAD PUSH2 0xEC SWAP2 SWAP1 PUSH2 0xC12 JUMP JUMPDEST PUSH1 0x40 MLOAD DUP1 SWAP2 SUB SWAP1 RETURN JUMPDEST CALLVALUE DUP1 ISZERO PUSH2 0x101 JUMPI PUSH1 0x0 DUP1 REVERT JUMPDEST POP PUSH2 0x10A PUSH2 0x3D4 JUMP JUMPDEST PUSH1 0x40 MLOAD PUSH2 0x11B SWAP6 SWAP5 SWAP4 SWAP3 SWAP2 SWAP1 PUSH2 0xC2D JUMP JUMPDEST PUSH1 0x40 MLOAD DUP1 SWAP2 SUB SWAP1 RETURN JUMPDEST CALLVALUE DUP1 ISZERO PUSH2 0x130 JUMPI PUSH1 0x0 DUP1 REVERT JUMPDEST POP PUSH2 0x139 PUSH2 0x41D JUMP JUMPDEST PUSH1 0x40 MLOAD PUSH2 0x146 SWAP2 SWAP1 PUSH2 0xB82 JUMP JUMPDEST PUSH1 0x40 MLOAD DUP1 SWAP2 SUB SWAP1 RETURN JUMPDEST CALLVALUE DUP1 ISZERO PUSH2 0x15B JUMPI PUSH1 0x0 DUP1 REVERT JUMPDEST POP PUSH2 0x164 PUSH2 0x443 JUMP JUMPDEST PUSH1 0x40 MLOAD PUSH2 0x171 SWAP2 SWAP1 PUSH2 0xC12 JUMP JUMPDEST PUSH1 0x40 MLOAD DUP1 SWAP2 SUB SWAP1 RETURN JUMPDEST CALLVALUE DUP1 ISZERO PUSH2 0x186 JUMPI PUSH1 0x0 DUP1 REVERT JUMPDEST POP PUSH2 0x1A1 PUSH1 0x4 DUP1 CALLDATASIZE SUB DUP2 ADD SWAP1 PUSH2 0x19C SWAP2 SWAP1 PUSH2 0xAE0 JUMP JUMPDEST PUSH2 0x449 JUMP JUMPDEST PUSH1 0x40 MLOAD PUSH2 0x1B2 SWAP6 SWAP5 SWAP4 SWAP3 SWAP2 SWAP1 PUSH2 0xBB8 JUMP JUMPDEST PUSH1 0x40 MLOAD DUP1 SWAP2 SUB SWAP1 RETURN JUMPDEST CALLVALUE DUP1 ISZERO PUSH2 0x1C7 JUMPI PUSH1 0x0 DUP1 REVERT JUMPDEST POP PUSH2 0x1E2 PUSH1 0x4 DUP1 CALLDATASIZE SUB DUP2 ADD SWAP1 PUSH2 0x1DD SWAP2 SWAP1 PUSH2 0xA71 JUMP JUMPDEST PUSH2 0x544 JUMP JUMPDEST STOP JUMPDEST CALLVALUE DUP1 ISZERO PUSH2 0x1F0 JUMPI PUSH1 0x0 DUP1 REVERT JUMPDEST POP PUSH2 0x1F9 PUSH2 0x705 JUMP JUMPDEST PUSH1 0x40 MLOAD PUSH2 0x206 SWAP2 SWAP1 PUSH2 0xC12 JUMP JUMPDEST PUSH1 0x40 MLOAD DUP1 SWAP2 SUB SWAP1 RETURN JUMPDEST CALLVALUE DUP1 ISZERO PUSH2 0x21B JUMPI PUSH1 0x0 DUP1 REVERT JUMPDEST POP PUSH2 0x236 PUSH1 0x4 DUP1 CALLDATASIZE SUB DUP2 ADD SWAP1 PUSH2 0x231 SWAP2 SWAP1 PUSH2 0xA44 JUMP JUMPDEST PUSH2 0x70B JUMP JUMPDEST PUSH1 0x40 MLOAD PUSH2 0x243 SWAP2 SWAP1 PUSH2 0xB9D JUMP JUMPDEST PUSH1 0x40 MLOAD DUP1 SWAP2 SUB SWAP1 RETURN JUMPDEST PUSH2 0x254 PUSH2 0x72B JUMP JUMPDEST STOP JUMPDEST CALLVALUE DUP1 ISZERO PUSH2 0x262 JUMPI PUSH1 0x0 DUP1 REVERT JUMPDEST POP PUSH2 0x27D PUSH1 0x4 DUP1 CALLDATASIZE SUB DUP2 ADD SWAP1 PUSH2 0x278 SWAP2 SWAP1 PUSH2 0xAE0 JUMP JUMPDEST PUSH2 0x7AB JUMP JUMPDEST STOP JUMPDEST PUSH1 0x2 PUSH1 0x0 SWAP1 SLOAD SWAP1 PUSH2 0x100 EXP SWAP1 DIV PUSH20 0xFFFFFFFFFFFFFFFFFFFFFFFFFFFFFFFFFFFFFFFF AND PUSH20 0xFFFFFFFFFFFFFFFFFFFFFFFFFFFFFFFFFFFFFFFF AND CALLER PUSH20 0xFFFFFFFFFFFFFFFFFFFFFFFFFFFFFFFFFFFFFFFF AND EQ PUSH2 0x2D9 JUMPI PUSH1 0x0 DUP1 REVERT JUMPDEST PUSH1 0x0 DUP1 DUP3 DUP2 SLOAD DUP2 LT PUSH2 0x2EE JUMPI PUSH2 0x2ED PUSH2 0xEF8 JUMP JUMPDEST JUMPDEST SWAP1 PUSH1 0x0 MSTORE PUSH1 0x20 PUSH1 0x0 KECCAK256 SWAP1 PUSH1 0x4 MUL ADD SWAP1 POP PUSH1 0x2 PUSH1 0x4 SLOAD PUSH2 0x30D SWAP2 SWAP1 PUSH2 0xCF2 JUMP JUMPDEST DUP2 PUSH1 0x3 ADD SLOAD GT PUSH2 0x31C JUMPI PUSH1 0x0 DUP1 REVERT JUMPDEST DUP1 PUSH1 0x2 ADD PUSH1 0x14 SWAP1 SLOAD SWAP1 PUSH2 0x100 EXP SWAP1 DIV PUSH1 0xFF AND ISZERO PUSH2 0x338 JUMPI PUSH1 0x0 DUP1 REVERT JUMPDEST DUP1 PUSH1 0x2 ADD PUSH1 0x0 SWAP1 SLOAD SWAP1 PUSH2 0x100 EXP SWAP1 DIV PUSH20 0xFFFFFFFFFFFFFFFFFFFFFFFFFFFFFFFFFFFFFFFF AND PUSH20 0xFFFFFFFFFFFFFFFFFFFFFFFFFFFFFFFFFFFFFFFF AND PUSH2 0x8FC DUP3 PUSH1 0x1 ADD SLOAD SWAP1 DUP2 ISZERO MUL SWAP1 PUSH1 0x40 MLOAD PUSH1 0x0 PUSH1 0x40 MLOAD DUP1 DUP4 SUB DUP2 DUP6 DUP9 DUP9 CALL SWAP4 POP POP POP POP ISZERO DUP1 ISZERO PUSH2 0x3A6 JUMPI RETURNDATASIZE PUSH1 0x0 DUP1 RETURNDATACOPY RETURNDATASIZE PUSH1 0x0 REVERT JUMPDEST POP PUSH1 0x1 DUP2 PUSH1 0x2 ADD PUSH1 0x14 PUSH2 0x100 EXP DUP2 SLOAD DUP2 PUSH1 0xFF MUL NOT AND SWAP1 DUP4 ISZERO ISZERO MUL OR SWAP1 SSTORE POP POP POP JUMP JUMPDEST PUSH1 0x0 DUP1 DUP1 SLOAD SWAP1 POP SWAP1 POP SWAP1 JUMP JUMPDEST PUSH1 0x0 DUP1 PUSH1 0x0 DUP1 PUSH1 0x0 PUSH1 0x3 SLOAD SELFBALANCE PUSH1 0x0 DUP1 SLOAD SWAP1 POP PUSH1 0x4 SLOAD PUSH1 0x2 PUSH1 0x0 SWAP1 SLOAD SWAP1 PUSH2 0x100 EXP SWAP1 DIV PUSH20 0xFFFFFFFFFFFFFFFFFFFFFFFFFFFFFFFFFFFFFFFF AND SWAP5 POP SWAP5 POP SWAP5 POP SWAP5 POP SWAP5 POP SWAP1 SWAP2 SWAP3 SWAP4 SWAP5 JUMP JUMPDEST PUSH1 0x2 PUSH1 0x0 SWAP1 SLOAD SWAP1 PUSH2 0x100 EXP SWAP1 DIV PUSH20 0xFFFFFFFFFFFFFFFFFFFFFFFFFFFFFFFFFFFFFFFF AND DUP2 JUMP JUMPDEST PUSH1 0x4 SLOAD DUP2 JUMP JUMPDEST PUSH1 0x0 DUP2 DUP2 SLOAD DUP2 LT PUSH2 0x459 JUMPI PUSH1 0x0 DUP1 REVERT JUMPDEST SWAP1 PUSH1 0x0 MSTORE PUSH1 0x20 PUSH1 0x0 KECCAK256 SWAP1 PUSH1 0x4 MUL ADD PUSH1 0x0 SWAP2 POP SWAP1 POP DUP1 PUSH1 0x0 ADD DUP1 SLOAD PUSH2 0x47C SWAP1 PUSH2 0xDBF JUMP JUMPDEST DUP1 PUSH1 0x1F ADD PUSH1 0x20 DUP1 SWAP2 DIV MUL PUSH1 0x20 ADD PUSH1 0x40 MLOAD SWAP1 DUP2 ADD PUSH1 0x40 MSTORE DUP1 SWAP3 SWAP2 SWAP1 DUP2 DUP2 MSTORE PUSH1 0x20 ADD DUP3 DUP1 SLOAD PUSH2 0x4A8 SWAP1 PUSH2 0xDBF JUMP JUMPDEST DUP1 ISZERO PUSH2 0x4F5 JUMPI DUP1 PUSH1 0x1F LT PUSH2 0x4CA JUMPI PUSH2 0x100 DUP1 DUP4 SLOAD DIV MUL DUP4 MSTORE SWAP2 PUSH1 0x20 ADD SWAP2 PUSH2 0x4F5 JUMP JUMPDEST DUP3 ADD SWAP2 SWAP1 PUSH1 0x0 MSTORE PUSH1 0x20 PUSH1 0x0 KECCAK256 SWAP1 JUMPDEST DUP2 SLOAD DUP2 MSTORE SWAP1 PUSH1 0x1 ADD SWAP1 PUSH1 0x20 ADD DUP1 DUP4 GT PUSH2 0x4D8 JUMPI DUP3 SWAP1 SUB PUSH1 0x1F AND DUP3 ADD SWAP2 JUMPDEST POP POP POP POP POP SWAP1 DUP1 PUSH1 0x1 ADD SLOAD SWAP1 DUP1 PUSH1 0x2 ADD PUSH1 0x0 SWAP1 SLOAD SWAP1 PUSH2 0x100 EXP SWAP1 DIV PUSH20 0xFFFFFFFFFFFFFFFFFFFFFFFFFFFFFFFFFFFFFFFF AND SWAP1 DUP1 PUSH1 0x2 ADD PUSH1 0x14 SWAP1 SLOAD SWAP1 PUSH2 0x100 EXP SWAP1 DIV PUSH1 0xFF AND SWAP1 DUP1 PUSH1 0x3 ADD SLOAD SWAP1 POP DUP6 JUMP JUMPDEST PUSH1 0x2 PUSH1 0x0 SWAP1 SLOAD SWAP1 PUSH2 0x100 EXP SWAP1 DIV PUSH20 0xFFFFFFFFFFFFFFFFFFFFFFFFFFFFFFFFFFFFFFFF AND PUSH20 0xFFFFFFFFFFFFFFFFFFFFFFFFFFFFFFFFFFFFFFFF AND CALLER PUSH20 0xFFFFFFFFFFFFFFFFFFFFFFFFFFFFFFFFFFFFFFFF AND EQ PUSH2 0x59E JUMPI PUSH1 0x0 DUP1 REVERT JUMPDEST PUSH1 0x5 PUSH1 0x0 CALLER PUSH20 0xFFFFFFFFFFFFFFFFFFFFFFFFFFFFFFFFFFFFFFFF AND PUSH20 0xFFFFFFFFFFFFFFFFFFFFFFFFFFFFFFFFFFFFFFFF AND DUP2 MSTORE PUSH1 0x20 ADD SWAP1 DUP2 MSTORE PUSH1 0x20 ADD PUSH1 0x0 KECCAK256 PUSH1 0x0 SWAP1 SLOAD SWAP1 PUSH2 0x100 EXP SWAP1 DIV PUSH1 0xFF AND PUSH2 0x5F4 JUMPI PUSH1 0x0 DUP1 REVERT JUMPDEST PUSH1 0x0 PUSH1 0x40 MLOAD DUP1 PUSH1 0xA0 ADD PUSH1 0x40 MSTORE DUP1 DUP6 DUP2 MSTORE PUSH1 0x20 ADD DUP5 DUP2 MSTORE PUSH1 0x20 ADD DUP4 PUSH20 0xFFFFFFFFFFFFFFFFFFFFFFFFFFFFFFFFFFFFFFFF AND DUP2 MSTORE PUSH1 0x20 ADD PUSH1 0x0 ISZERO ISZERO DUP2 MSTORE PUSH1 0x20 ADD PUSH1 0x0 DUP2 MSTORE POP SWAP1 POP PUSH1 0x0 DUP2 SWAP1 DUP1 PUSH1 0x1 DUP2 SLOAD ADD DUP1 DUP3 SSTORE DUP1 SWAP2 POP POP PUSH1 0x1 SWAP1 SUB SWAP1 PUSH1 0x0 MSTORE PUSH1 0x20 PUSH1 0x0 KECCAK256 SWAP1 PUSH1 0x4 MUL ADD PUSH1 0x0 SWAP1 SWAP2 SWAP1 SWAP2 SWAP1 SWAP2 POP PUSH1 0x0 DUP3 ADD MLOAD DUP2 PUSH1 0x0 ADD SWAP1 DUP1 MLOAD SWAP1 PUSH1 0x20 ADD SWAP1 PUSH2 0x681 SWAP3 SWAP2 SWAP1 PUSH2 0x8F2 JUMP JUMPDEST POP PUSH1 0x20 DUP3 ADD MLOAD DUP2 PUSH1 0x1 ADD SSTORE PUSH1 0x40 DUP3 ADD MLOAD DUP2 PUSH1 0x2 ADD PUSH1 0x0 PUSH2 0x100 EXP DUP2 SLOAD DUP2 PUSH20 0xFFFFFFFFFFFFFFFFFFFFFFFFFFFFFFFFFFFFFFFF MUL NOT AND SWAP1 DUP4 PUSH20 0xFFFFFFFFFFFFFFFFFFFFFFFFFFFFFFFFFFFFFFFF AND MUL OR SWAP1 SSTORE POP PUSH1 0x60 DUP3 ADD MLOAD DUP2 PUSH1 0x2 ADD PUSH1 0x14 PUSH2 0x100 EXP DUP2 SLOAD DUP2 PUSH1 0xFF MUL NOT AND SWAP1 DUP4 ISZERO ISZERO MUL OR SWAP1 SSTORE POP PUSH1 0x80 DUP3 ADD MLOAD DUP2 PUSH1 0x3 ADD SSTORE POP POP POP POP POP POP JUMP JUMPDEST PUSH1 0x3 SLOAD DUP2 JUMP JUMPDEST PUSH1 0x5 PUSH1 0x20 MSTORE DUP1 PUSH1 0x0 MSTORE PUSH1 0x40 PUSH1 0x0 KECCAK256 PUSH1 0x0 SWAP2 POP SLOAD SWAP1 PUSH2 0x100 EXP SWAP1 DIV PUSH1 0xFF AND DUP2 JUMP JUMPDEST PUSH1 0x3 SLOAD CALLVALUE GT PUSH2 0x739 JUMPI PUSH1 0x0 DUP1 REVERT JUMPDEST PUSH1 0x1 PUSH1 0x5 PUSH1 0x0 CALLER PUSH20 0xFFFFFFFFFFFFFFFFFFFFFFFFFFFFFFFFFFFFFFFF AND PUSH20 0xFFFFFFFFFFFFFFFFFFFFFFFFFFFFFFFFFFFFFFFF AND DUP2 MSTORE PUSH1 0x20 ADD SWAP1 DUP2 MSTORE PUSH1 0x20 ADD PUSH1 0x0 KECCAK256 PUSH1 0x0 PUSH2 0x100 EXP DUP2 SLOAD DUP2 PUSH1 0xFF MUL NOT AND SWAP1 DUP4 ISZERO ISZERO MUL OR SWAP1 SSTORE POP PUSH1 0x4 PUSH1 0x0 DUP2 SLOAD DUP1 SWAP3 SWAP2 SWAP1 PUSH2 0x7A4 SWAP1 PUSH2 0xE22 JUMP JUMPDEST SWAP2 SWAP1 POP SSTORE POP JUMP JUMPDEST PUSH1 0x0 DUP1 DUP3 DUP2 SLOAD DUP2 LT PUSH2 0x7C0 JUMPI PUSH2 0x7BF PUSH2 0xEF8 JUMP JUMPDEST JUMPDEST SWAP1 PUSH1 0x0 MSTORE PUSH1 0x20 PUSH1 0x0 KECCAK256 SWAP1 PUSH1 0x4 MUL ADD SWAP1 POP PUSH1 0x5 PUSH1 0x0 CALLER PUSH20 0xFFFFFFFFFFFFFFFFFFFFFFFFFFFFFFFFFFFFFFFF AND PUSH20 0xFFFFFFFFFFFFFFFFFFFFFFFFFFFFFFFFFFFFFFFF AND DUP2 MSTORE PUSH1 0x20 ADD SWAP1 DUP2 MSTORE PUSH1 0x20 ADD PUSH1 0x0 KECCAK256 PUSH1 0x0 SWAP1 SLOAD SWAP1 PUSH2 0x100 EXP SWAP1 DIV PUSH1 0xFF AND PUSH2 0x826 JUMPI PUSH1 0x0 DUP1 REVERT JUMPDEST PUSH1 0x1 PUSH1 0x0 CALLER PUSH20 0xFFFFFFFFFFFFFFFFFFFFFFFFFFFFFFFFFFFFFFFF AND PUSH20 0xFFFFFFFFFFFFFFFFFFFFFFFFFFFFFFFFFFFFFFFF AND DUP2 MSTORE PUSH1 0x20 ADD SWAP1 DUP2 MSTORE PUSH1 0x20 ADD PUSH1 0x0 KECCAK256 PUSH1 0x0 SWAP1 SLOAD SWAP1 PUSH2 0x100 EXP SWAP1 DIV PUSH1 0xFF AND ISZERO PUSH2 0x87D JUMPI PUSH1 0x0 DUP1 REVERT JUMPDEST PUSH1 0x1 DUP1 PUSH1 0x0 CALLER PUSH20 0xFFFFFFFFFFFFFFFFFFFFFFFFFFFFFFFFFFFFFFFF AND PUSH20 0xFFFFFFFFFFFFFFFFFFFFFFFFFFFFFFFFFFFFFFFF AND DUP2 MSTORE PUSH1 0x20 ADD SWAP1 DUP2 MSTORE PUSH1 0x20 ADD PUSH1 0x0 KECCAK256 PUSH1 0x0 PUSH2 0x100 EXP DUP2 SLOAD DUP2 PUSH1 0xFF MUL NOT AND SWAP1 DUP4 ISZERO ISZERO MUL OR SWAP1 SSTORE POP DUP1 PUSH1 0x3 ADD PUSH1 0x0 DUP2 SLOAD DUP1 SWAP3 SWAP2 SWAP1 PUSH2 0x8E9 SWAP1 PUSH2 0xE22 JUMP JUMPDEST SWAP2 SWAP1 POP SSTORE POP POP POP JUMP JUMPDEST DUP3 DUP1 SLOAD PUSH2 0x8FE SWAP1 PUSH2 0xDBF JUMP JUMPDEST SWAP1 PUSH1 0x0 MSTORE PUSH1 0x20 PUSH1 0x0 KECCAK256 SWAP1 PUSH1 0x1F ADD PUSH1 0x20 SWAP1 DIV DUP2 ADD SWAP3 DUP3 PUSH2 0x920 JUMPI PUSH1 0x0 DUP6 SSTORE PUSH2 0x967 JUMP JUMPDEST DUP3 PUSH1 0x1F LT PUSH2 0x939 JUMPI DUP1 MLOAD PUSH1 0xFF NOT AND DUP4 DUP1 ADD OR DUP6 SSTORE PUSH2 0x967 JUMP JUMPDEST DUP3 DUP1 ADD PUSH1 0x1 ADD DUP6 SSTORE DUP3 ISZERO PUSH2 0x967 JUMPI SWAP2 DUP3 ADD JUMPDEST DUP3 DUP2 GT ISZERO PUSH2 0x966 JUMPI DUP3 MLOAD DUP3 SSTORE SWAP2 PUSH1 0x20 ADD SWAP2 SWAP1 PUSH1 0x1 ADD SWAP1 PUSH2 0x94B JUMP JUMPDEST JUMPDEST POP SWAP1 POP PUSH2 0x974 SWAP2 SWAP1 PUSH2 0x978 JUMP JUMPDEST POP SWAP1 JUMP JUMPDEST JUMPDEST DUP1 DUP3 GT ISZERO PUSH2 0x991 JUMPI PUSH1 0x0 DUP2 PUSH1 0x0 SWAP1 SSTORE POP PUSH1 0x1 ADD PUSH2 0x979 JUMP JUMPDEST POP SWAP1 JUMP JUMPDEST PUSH1 0x0 PUSH2 0x9A8 PUSH2 0x9A3 DUP5 PUSH2 0xCA5 JUMP JUMPDEST PUSH2 0xC80 JUMP JUMPDEST SWAP1 POP DUP3 DUP2 MSTORE PUSH1 0x20 DUP2 ADD DUP5 DUP5 DUP5 ADD GT ISZERO PUSH2 0x9C4 JUMPI PUSH2 0x9C3 PUSH2 0xF5B JUMP JUMPDEST JUMPDEST PUSH2 0x9CF DUP5 DUP3 DUP6 PUSH2 0xD7D JUMP JUMPDEST POP SWAP4 SWAP3 POP POP POP JUMP JUMPDEST PUSH1 0x0 DUP2 CALLDATALOAD SWAP1 POP PUSH2 0x9E6 DUP2 PUSH2 0xF7B JUMP JUMPDEST SWAP3 SWAP2 POP POP JUMP JUMPDEST PUSH1 0x0 DUP2 CALLDATALOAD SWAP1 POP PUSH2 0x9FB DUP2 PUSH2 0xF92 JUMP JUMPDEST SWAP3 SWAP2 POP POP JUMP JUMPDEST PUSH1 0x0 DUP3 PUSH1 0x1F DUP4 ADD SLT PUSH2 0xA16 JUMPI PUSH2 0xA15 PUSH2 0xF56 JUMP JUMPDEST JUMPDEST DUP2 CALLDATALOAD PUSH2 0xA26 DUP5 DUP3 PUSH1 0x20 DUP7 ADD PUSH2 0x995 JUMP JUMPDEST SWAP2 POP POP SWAP3 SWAP2 POP POP JUMP JUMPDEST PUSH1 0x0 DUP2 CALLDATALOAD SWAP1 POP PUSH2 0xA3E DUP2 PUSH2 0xFA9 JUMP JUMPDEST SWAP3 SWAP2 POP POP JUMP JUMPDEST PUSH1 0x0 PUSH1 0x20 DUP3 DUP5 SUB SLT ISZERO PUSH2 0xA5A JUMPI PUSH2 0xA59 PUSH2 0xF65 JUMP JUMPDEST JUMPDEST PUSH1 0x0 PUSH2 0xA68 DUP5 DUP3 DUP6 ADD PUSH2 0x9D7 JUMP JUMPDEST SWAP2 POP POP SWAP3 SWAP2 POP POP JUMP JUMPDEST PUSH1 0x0 DUP1 PUSH1 0x0 PUSH1 0x60 DUP5 DUP7 SUB SLT ISZERO PUSH2 0xA8A JUMPI PUSH2 0xA89 PUSH2 0xF65 JUMP JUMPDEST JUMPDEST PUSH1 0x0 DUP5 ADD CALLDATALOAD PUSH8 0xFFFFFFFFFFFFFFFF DUP2 GT ISZERO PUSH2 0xAA8 JUMPI PUSH2 0xAA7 PUSH2 0xF60 JUMP JUMPDEST JUMPDEST PUSH2 0xAB4 DUP7 DUP3 DUP8 ADD PUSH2 0xA01 JUMP JUMPDEST SWAP4 POP POP PUSH1 0x20 PUSH2 0xAC5 DUP7 DUP3 DUP8 ADD PUSH2 0xA2F JUMP JUMPDEST SWAP3 POP POP PUSH1 0x40 PUSH2 0xAD6 DUP7 DUP3 DUP8 ADD PUSH2 0x9EC JUMP JUMPDEST SWAP2 POP POP SWAP3 POP SWAP3 POP SWAP3 JUMP JUMPDEST PUSH1 0x0 PUSH1 0x20 DUP3 DUP5 SUB SLT ISZERO PUSH2 0xAF6 JUMPI PUSH2 0xAF5 PUSH2 0xF65 JUMP JUMPDEST JUMPDEST PUSH1 0x0 PUSH2 0xB04 DUP5 DUP3 DUP6 ADD PUSH2 0xA2F JUMP JUMPDEST SWAP2 POP POP SWAP3 SWAP2 POP POP JUMP JUMPDEST PUSH2 0xB16 DUP2 PUSH2 0xD35 JUMP JUMPDEST DUP3 MSTORE POP POP JUMP JUMPDEST PUSH2 0xB25 DUP2 PUSH2 0xD23 JUMP JUMPDEST DUP3 MSTORE POP POP JUMP JUMPDEST PUSH2 0xB34 DUP2 PUSH2 0xD47 JUMP JUMPDEST DUP3 MSTORE POP POP JUMP JUMPDEST PUSH1 0x0 PUSH2 0xB45 DUP3 PUSH2 0xCD6 JUMP JUMPDEST PUSH2 0xB4F DUP2 DUP6 PUSH2 0xCE1 JUMP JUMPDEST SWAP4 POP PUSH2 0xB5F DUP2 DUP6 PUSH1 0x20 DUP7 ADD PUSH2 0xD8C JUMP JUMPDEST PUSH2 0xB68 DUP2 PUSH2 0xF6A JUMP JUMPDEST DUP5 ADD SWAP2 POP POP SWAP3 SWAP2 POP POP JUMP JUMPDEST PUSH2 0xB7C DUP2 PUSH2 0xD73 JUMP JUMPDEST DUP3 MSTORE POP POP JUMP JUMPDEST PUSH1 0x0 PUSH1 0x20 DUP3 ADD SWAP1 POP PUSH2 0xB97 PUSH1 0x0 DUP4 ADD DUP5 PUSH2 0xB1C JUMP JUMPDEST SWAP3 SWAP2 POP POP JUMP JUMPDEST PUSH1 0x0 PUSH1 0x20 DUP3 ADD SWAP1 POP PUSH2 0xBB2 PUSH1 0x0 DUP4 ADD DUP5 PUSH2 0xB2B JUMP JUMPDEST SWAP3 SWAP2 POP POP JUMP JUMPDEST PUSH1 0x0 PUSH1 0xA0 DUP3 ADD SWAP1 POP DUP2 DUP2 SUB PUSH1 0x0 DUP4 ADD MSTORE PUSH2 0xBD2 DUP2 DUP9 PUSH2 0xB3A JUMP JUMPDEST SWAP1 POP PUSH2 0xBE1 PUSH1 0x20 DUP4 ADD DUP8 PUSH2 0xB73 JUMP JUMPDEST PUSH2 0xBEE PUSH1 0x40 DUP4 ADD DUP7 PUSH2 0xB0D JUMP JUMPDEST PUSH2 0xBFB PUSH1 0x60 DUP4 ADD DUP6 PUSH2 0xB2B JUMP JUMPDEST PUSH2 0xC08 PUSH1 0x80 DUP4 ADD DUP5 PUSH2 0xB73 JUMP JUMPDEST SWAP7 SWAP6 POP POP POP POP POP POP JUMP JUMPDEST PUSH1 0x0 PUSH1 0x20 DUP3 ADD SWAP1 POP PUSH2 0xC27 PUSH1 0x0 DUP4 ADD DUP5 PUSH2 0xB73 JUMP JUMPDEST SWAP3 SWAP2 POP POP JUMP JUMPDEST PUSH1 0x0 PUSH1 0xA0 DUP3 ADD SWAP1 POP PUSH2 0xC42 PUSH1 0x0 DUP4 ADD DUP9 PUSH2 0xB73 JUMP JUMPDEST PUSH2 0xC4F PUSH1 0x20 DUP4 ADD DUP8 PUSH2 0xB73 JUMP JUMPDEST PUSH2 0xC5C PUSH1 0x40 DUP4 ADD DUP7 PUSH2 0xB73 JUMP JUMPDEST PUSH2 0xC69 PUSH1 0x60 DUP4 ADD DUP6 PUSH2 0xB73 JUMP JUMPDEST PUSH2 0xC76 PUSH1 0x80 DUP4 ADD DUP5 PUSH2 0xB1C JUMP JUMPDEST SWAP7 SWAP6 POP POP POP POP POP POP JUMP JUMPDEST PUSH1 0x0 PUSH2 0xC8A PUSH2 0xC9B JUMP JUMPDEST SWAP1 POP PUSH2 0xC96 DUP3 DUP3 PUSH2 0xDF1 JUMP JUMPDEST SWAP2 SWAP1 POP JUMP JUMPDEST PUSH1 0x0 PUSH1 0x40 MLOAD SWAP1 POP SWAP1 JUMP JUMPDEST PUSH1 0x0 PUSH8 0xFFFFFFFFFFFFFFFF DUP3 GT ISZERO PUSH2 0xCC0 JUMPI PUSH2 0xCBF PUSH2 0xF27 JUMP JUMPDEST JUMPDEST PUSH2 0xCC9 DUP3 PUSH2 0xF6A JUMP JUMPDEST SWAP1 POP PUSH1 0x20 DUP2 ADD SWAP1 POP SWAP2 SWAP1 POP JUMP JUMPDEST PUSH1 0x0 DUP2 MLOAD SWAP1 POP SWAP2 SWAP1 POP JUMP JUMPDEST PUSH1 0x0 DUP3 DUP3 MSTORE PUSH1 0x20 DUP3 ADD SWAP1 POP SWAP3 SWAP2 POP POP JUMP JUMPDEST PUSH1 0x0 PUSH2 0xCFD DUP3 PUSH2 0xD73 JUMP JUMPDEST SWAP2 POP PUSH2 0xD08 DUP4 PUSH2 0xD73 JUMP JUMPDEST SWAP3 POP DUP3 PUSH2 0xD18 JUMPI PUSH2 0xD17 PUSH2 0xE9A JUMP JUMPDEST JUMPDEST DUP3 DUP3 DIV SWAP1 POP SWAP3 SWAP2 POP POP JUMP JUMPDEST PUSH1 0x0 PUSH2 0xD2E DUP3 PUSH2 0xD53 JUMP JUMPDEST SWAP1 POP SWAP2 SWAP1 POP JUMP JUMPDEST PUSH1 0x0 PUSH2 0xD40 DUP3 PUSH2 0xD53 JUMP JUMPDEST SWAP1 POP SWAP2 SWAP1 POP JUMP JUMPDEST PUSH1 0x0 DUP2 ISZERO ISZERO SWAP1 POP SWAP2 SWAP1 POP JUMP JUMPDEST PUSH1 0x0 PUSH20 0xFFFFFFFFFFFFFFFFFFFFFFFFFFFFFFFFFFFFFFFF DUP3 AND SWAP1 POP SWAP2 SWAP1 POP JUMP JUMPDEST PUSH1 0x0 DUP2 SWAP1 POP SWAP2 SWAP1 POP JUMP JUMPDEST DUP3 DUP2 DUP4 CALLDATACOPY PUSH1 0x0 DUP4 DUP4 ADD MSTORE POP POP POP JUMP JUMPDEST PUSH1 0x0 JUMPDEST DUP4 DUP2 LT ISZERO PUSH2 0xDAA JUMPI DUP1 DUP3 ADD MLOAD DUP2 DUP5 ADD MSTORE PUSH1 0x20 DUP2 ADD SWAP1 POP PUSH2 0xD8F JUMP JUMPDEST DUP4 DUP2 GT ISZERO PUSH2 0xDB9 JUMPI PUSH1 0x0 DUP5 DUP5 ADD MSTORE JUMPDEST POP POP POP POP JUMP JUMPDEST PUSH1 0x0 PUSH1 0x2 DUP3 DIV SWAP1 POP PUSH1 0x1 DUP3 AND DUP1 PUSH2 0xDD7 JUMPI PUSH1 0x7F DUP3 AND SWAP2 POP JUMPDEST PUSH1 0x20 DUP3 LT DUP2 EQ ISZERO PUSH2 0xDEB JUMPI PUSH2 0xDEA PUSH2 0xEC9 JUMP JUMPDEST JUMPDEST POP SWAP2 SWAP1 POP JUMP JUMPDEST PUSH2 0xDFA DUP3 PUSH2 0xF6A JUMP JUMPDEST DUP2 ADD DUP2 DUP2 LT PUSH8 0xFFFFFFFFFFFFFFFF DUP3 GT OR ISZERO PUSH2 0xE19 JUMPI PUSH2 0xE18 PUSH2 0xF27 JUMP JUMPDEST JUMPDEST DUP1 PUSH1 0x40 MSTORE POP POP POP JUMP JUMPDEST PUSH1 0x0 PUSH2 0xE2D DUP3 PUSH2 0xD73 JUMP JUMPDEST SWAP2 POP PUSH32 0xFFFFFFFFFFFFFFFFFFFFFFFFFFFFFFFFFFFFFFFFFFFFFFFFFFFFFFFFFFFFFFFF DUP3 EQ ISZERO PUSH2 0xE60 JUMPI PUSH2 0xE5F PUSH2 0xE6B JUMP JUMPDEST JUMPDEST PUSH1 0x1 DUP3 ADD SWAP1 POP SWAP2 SWAP1 POP JUMP JUMPDEST PUSH32 0x4E487B7100000000000000000000000000000000000000000000000000000000 PUSH1 0x0 MSTORE PUSH1 0x11 PUSH1 0x4 MSTORE PUSH1 0x24 PUSH1 0x0 REVERT JUMPDEST PUSH32 0x4E487B7100000000000000000000000000000000000000000000000000000000 PUSH1 0x0 MSTORE PUSH1 0x12 PUSH1 0x4 MSTORE PUSH1 0x24 PUSH1 0x0 REVERT JUMPDEST PUSH32 0x4E487B7100000000000000000000000000000000000000000000000000000000 PUSH1 0x0 MSTORE PUSH1 0x22 PUSH1 0x4 MSTORE PUSH1 0x24 PUSH1 0x0 REVERT JUMPDEST PUSH32 0x4E487B7100000000000000000000000000000000000000000000000000000000 PUSH1 0x0 MSTORE PUSH1 0x32 PUSH1 0x4 MSTORE PUSH1 0x24 PUSH1 0x0 REVERT JUMPDEST PUSH32 0x4E487B7100000000000000000000000000000000000000000000000000000000 PUSH1 0x0 MSTORE PUSH1 0x41 PUSH1 0x4 MSTORE PUSH1 0x24 PUSH1 0x0 REVERT JUMPDEST PUSH1 0x0 DUP1 REVERT JUMPDEST PUSH1 0x0 DUP1 REVERT JUMPDEST PUSH1 0x0 DUP1 REVERT JUMPDEST PUSH1 0x0 DUP1 REVERT JUMPDEST PUSH1 0x0 PUSH1 0x1F NOT PUSH1 0x1F DUP4 ADD AND SWAP1 POP SWAP2 SWAP1 POP JUMP JUMPDEST PUSH2 0xF84 DUP2 PUSH2 0xD23 JUMP JUMPDEST DUP2 EQ PUSH2 0xF8F JUMPI PUSH1 0x0 DUP1 REVERT JUMPDEST POP JUMP JUMPDEST PUSH2 0xF9B DUP2 PUSH2 0xD35 JUMP JUMPDEST DUP2 EQ PUSH2 0xFA6 JUMPI PUSH1 0x0 DUP1 REVERT JUMPDEST POP JUMP JUMPDEST PUSH2 0xFB2 DUP2 PUSH2 0xD73 JUMP JUMPDEST DUP2 EQ PUSH2 0xFBD JUMPI PUSH1 0x0 DUP1 REVERT JUMPDEST POP JUMP INVALID LOG2 PUSH5 0x6970667358 0x22 SLT KECCAK256 0xBF POP 0xD0 0x4C BASEFEE DUP14 0xC5 0xC2 0xDE ADD 0x2D 0xDC EQ 0xBF BALANCE SWAP14 LOG1 ADDRESS DUP1 0xBB SIGNEXTEND 0x5D DUP11 0xBC 0xB4 RETURNDATACOPY PUSH28 0xAEDD457DA64736F6C63430008070033A26469706673582212202C76 STOP 0x2E DUP13 0xD0 ORIGIN EQ 0x4E BLOCKHASH DUP2 DUP4 0xE2 0xD6 0xEB 0xED ORIGIN 0xD1 SMOD GAS OR AND ORIGIN SHL JUMPI 0xB7 0xF6 0xE5 0xE8 0xC MUL 0xD2 PUSH5 0x736F6C6343 STOP ADDMOD SMOD STOP CALLER "
    },
    "gasEstimates": {
      "creation": {
        "codeDepositCost": "1119400",
        "executionCost": "1160",
        "totalCost": "1120560"
      },
      "external": {
        "campaignsCount()": "2451",
        "createCampaign(uint256)": "infinite",
        "deployedCampaigns(uint256)": "4956",
        "getCampaignCounts()": "2481",
        "getDeployedCampaign(uint256)": "4945"
      }
    },
    "methodIdentifiers": {
      "campaignsCount()": "44c89b65",
      "createCampaign(uint256)": "a3303a75",
      "deployedCampaigns(uint256)": "339d50a5",
      "getCampaignCounts()": "51b53e07",
      "getDeployedCampaign(uint256)": "07399b26"
    }
  },
  "storageLayout": {
    "storage": [
      {
        "astId": 4,
        "contract": "Campaign.sol:CampaignFactory",
        "label": "deployedCampaigns",
        "offset": 0,
        "slot": "0",
        "type": "t_array(t_address)dyn_storage"
      },
      {
        "astId": 6,
        "contract": "Campaign.sol:CampaignFactory",
        "label": "campaignsCount",
        "offset": 0,
        "slot": "1",
        "type": "t_uint256"
      }
    ],
    "types": {
      "t_address": {
        "encoding": "inplace",
        "label": "address",
        "numberOfBytes": "20"
      },
      "t_array(t_address)dyn_storage": {
        "base": "t_address",
        "encoding": "dynamic_array",
        "label": "address[]",
        "numberOfBytes": "32"
      },
      "t_uint256": {
        "encoding": "inplace",
        "label": "uint256",
        "numberOfBytes": "32"
      }
    }
  },
  "userdoc": {
    "kind": "user",
    "methods": {},
    "version": 1
  }
}